{
  "transactions": [
    {
      "hash": "0x93fd7d8448e69c9bd9605bf5bc92f12003b05f54ec1f9aa1756504b4c52feb8e",
      "transactionType": "CALL",
      "contractName": null,
      "contractAddress": "0xbe8a9d22560a1b126554b70aaca2d763b2e70c4e",
      "function": "grantRole(bytes32,address)",
      "arguments": [
        "0x0000000000000000000000000000000000000000000000000000000000000000",
        "0xe56E7B7243C5820E1d59319937413C1462Ed5B5c"
      ],
      "transaction": {
        "from": "0x3f07367008158dc272dd8a38812e1460ef5a390a",
        "to": "0xbe8a9d22560a1b126554b70aaca2d763b2e70c4e",
        "gas": "0x11346",
        "value": "0x0",
        "input": "0x2f2ff15d0000000000000000000000000000000000000000000000000000000000000000000000000000000000000000e56e7b7243c5820e1d59319937413c1462ed5b5c",
        "nonce": "0x87",
        "chainId": "0x3e6"
      },
      "additionalContracts": [],
      "isFixedGasLimit": false
    },
    {
      "hash": "0xe4d2d10fc8e58b97d73c65a90c00ecb3e3955096439b0da088b5922654a23ad8",
      "transactionType": "CALL",
      "contractName": null,
      "contractAddress": "0x93669dac07321ff397cf5734ae8364ea24addf45",
      "function": "grantRole(bytes32,address)",
      "arguments": [
        "0x0000000000000000000000000000000000000000000000000000000000000000",
        "0xe56E7B7243C5820E1d59319937413C1462Ed5B5c"
      ],
      "transaction": {
        "from": "0x3f07367008158dc272dd8a38812e1460ef5a390a",
        "to": "0x93669dac07321ff397cf5734ae8364ea24addf45",
        "gas": "0x11346",
        "value": "0x0",
        "input": "0x2f2ff15d0000000000000000000000000000000000000000000000000000000000000000000000000000000000000000e56e7b7243c5820e1d59319937413c1462ed5b5c",
        "nonce": "0x88",
        "chainId": "0x3e6"
      },
      "additionalContracts": [],
      "isFixedGasLimit": false
    },
    {
      "hash": "0x51a31f331f903fb86990cd95677aa326e2f720bf789c8595d0765c8c7c70e0d4",
      "transactionType": "CALL",
      "contractName": null,
      "contractAddress": "0xb62ba9d0a14ac9f9601891179b3da52be71ce052",
      "function": "grantRole(bytes32,address)",
      "arguments": [
        "0x0000000000000000000000000000000000000000000000000000000000000000",
        "0xe56E7B7243C5820E1d59319937413C1462Ed5B5c"
      ],
      "transaction": {
        "from": "0x3f07367008158dc272dd8a38812e1460ef5a390a",
        "to": "0xb62ba9d0a14ac9f9601891179b3da52be71ce052",
        "gas": "0x11346",
        "value": "0x0",
        "input": "0x2f2ff15d0000000000000000000000000000000000000000000000000000000000000000000000000000000000000000e56e7b7243c5820e1d59319937413c1462ed5b5c",
        "nonce": "0x89",
        "chainId": "0x3e6"
      },
      "additionalContracts": [],
      "isFixedGasLimit": false
    },
    {
      "hash": "0x9bd83a529e447c1b9406948f96d41ad9b0d9ed80acfe690e38af5dae569a6bf3",
      "transactionType": "CALL",
      "contractName": null,
      "contractAddress": "0x8b15204d88a9bb155be6798522983a3b5f7d7cb0",
      "function": "grantRole(bytes32,address)",
      "arguments": [
        "0x0000000000000000000000000000000000000000000000000000000000000000",
        "0xe56E7B7243C5820E1d59319937413C1462Ed5B5c"
      ],
      "transaction": {
        "from": "0x3f07367008158dc272dd8a38812e1460ef5a390a",
        "to": "0x8b15204d88a9bb155be6798522983a3b5f7d7cb0",
        "gas": "0x11346",
        "value": "0x0",
        "input": "0x2f2ff15d0000000000000000000000000000000000000000000000000000000000000000000000000000000000000000e56e7b7243c5820e1d59319937413c1462ed5b5c",
        "nonce": "0x8a",
        "chainId": "0x3e6"
      },
      "additionalContracts": [],
      "isFixedGasLimit": false
    },
    {
      "hash": "0x8058a6a40455af7b3910efe6f3ac47219e7293fbec0437e11e343e0daa2ac725",
      "transactionType": "CALL",
      "contractName": null,
      "contractAddress": "0x4e2e7fd3c85c05697b24743e580b03abcd6d0c65",
      "function": "grantRole(bytes32,address)",
      "arguments": [
        "0x0000000000000000000000000000000000000000000000000000000000000000",
        "0xe56E7B7243C5820E1d59319937413C1462Ed5B5c"
      ],
      "transaction": {
        "from": "0x3f07367008158dc272dd8a38812e1460ef5a390a",
        "to": "0x4e2e7fd3c85c05697b24743e580b03abcd6d0c65",
        "gas": "0x1122b",
        "value": "0x0",
        "input": "0x2f2ff15d0000000000000000000000000000000000000000000000000000000000000000000000000000000000000000e56e7b7243c5820e1d59319937413c1462ed5b5c",
        "nonce": "0x8b",
        "chainId": "0x3e6"
      },
      "additionalContracts": [],
      "isFixedGasLimit": false
    },
    {
      "hash": "0xbe2a9cc4da66b6be051ba940230616efb826150475baac20bc1840ec0b6c9f22",
      "transactionType": "CALL",
      "contractName": null,
      "contractAddress": "0x15f6c4bf4000747e0fdd85b33998a36f5bdf5007",
      "function": "grantRole(bytes32,address)",
      "arguments": [
        "0x0000000000000000000000000000000000000000000000000000000000000000",
        "0xe56E7B7243C5820E1d59319937413C1462Ed5B5c"
      ],
      "transaction": {
        "from": "0x3f07367008158dc272dd8a38812e1460ef5a390a",
        "to": "0x15f6c4bf4000747e0fdd85b33998a36f5bdf5007",
        "gas": "0x1222c",
        "value": "0x0",
        "input": "0x2f2ff15d0000000000000000000000000000000000000000000000000000000000000000000000000000000000000000e56e7b7243c5820e1d59319937413c1462ed5b5c",
        "nonce": "0x8c",
        "chainId": "0x3e6"
      },
      "additionalContracts": [],
      "isFixedGasLimit": false
    },
    {
      "hash": "0x9a3a937165d246ef9f34df8c12c96e04d28f23e895b50554d7ed3d0dff6bef6e",
      "transactionType": "CALL",
      "contractName": null,
      "contractAddress": "0x8fb48f84aa69e89e0360e6d2d26c447aa57dcf73",
      "function": "grantRole(bytes32,address)",
      "arguments": [
        "0x0000000000000000000000000000000000000000000000000000000000000000",
        "0xe56E7B7243C5820E1d59319937413C1462Ed5B5c"
      ],
      "transaction": {
        "from": "0x3f07367008158dc272dd8a38812e1460ef5a390a",
        "to": "0x8fb48f84aa69e89e0360e6d2d26c447aa57dcf73",
        "gas": "0x1124a",
        "value": "0x0",
        "input": "0x2f2ff15d0000000000000000000000000000000000000000000000000000000000000000000000000000000000000000e56e7b7243c5820e1d59319937413c1462ed5b5c",
        "nonce": "0x8d",
        "chainId": "0x3e6"
      },
      "additionalContracts": [],
      "isFixedGasLimit": false
    },
    {
      "hash": "0xc1759dedda914eeada78884fb2a8f0582ca1213ccb39b7bb7c1b96343e086020",
      "transactionType": "CALL",
      "contractName": null,
      "contractAddress": "0x403e8c79653b1cb7a5c0eaa313ec0c7d0cac7e2c",
      "function": "grantRole(bytes32,address)",
      "arguments": [
        "0x0000000000000000000000000000000000000000000000000000000000000000",
        "0xe56E7B7243C5820E1d59319937413C1462Ed5B5c"
      ],
      "transaction": {
        "from": "0x3f07367008158dc272dd8a38812e1460ef5a390a",
        "to": "0x403e8c79653b1cb7a5c0eaa313ec0c7d0cac7e2c",
        "gas": "0x1124a",
        "value": "0x0",
        "input": "0x2f2ff15d0000000000000000000000000000000000000000000000000000000000000000000000000000000000000000e56e7b7243c5820e1d59319937413c1462ed5b5c",
        "nonce": "0x8e",
        "chainId": "0x3e6"
      },
      "additionalContracts": [],
      "isFixedGasLimit": false
    },
    {
      "hash": "0x6d850d059266dd68a4aa72bdbfaa09f3c60ef5d8d06facef0c889dc9956d3e56",
      "transactionType": "CALL",
      "contractName": null,
      "contractAddress": "0xc69f8a8014b4d17ee2e7457109ff1db33c0c7d7f",
      "function": "grantRole(bytes32,address)",
      "arguments": [
        "0x0000000000000000000000000000000000000000000000000000000000000000",
        "0xe56E7B7243C5820E1d59319937413C1462Ed5B5c"
      ],
      "transaction": {
        "from": "0x3f07367008158dc272dd8a38812e1460ef5a390a",
        "to": "0xc69f8a8014b4d17ee2e7457109ff1db33c0c7d7f",
        "gas": "0x1124a",
        "value": "0x0",
        "input": "0x2f2ff15d0000000000000000000000000000000000000000000000000000000000000000000000000000000000000000e56e7b7243c5820e1d59319937413c1462ed5b5c",
        "nonce": "0x8f",
        "chainId": "0x3e6"
      },
      "additionalContracts": [],
      "isFixedGasLimit": false
    },
    {
      "hash": "0x3e3e5be7590eff8ec59083d002c9e50e2a53e90d906166a8028ab7d4ee92da16",
      "transactionType": "CALL",
      "contractName": null,
      "contractAddress": "0xe990bfbc5c1e5779cb54cb95150edbbb2c2800d0",
      "function": "grantRole(bytes32,address)",
      "arguments": [
        "0x0000000000000000000000000000000000000000000000000000000000000000",
        "0xe56E7B7243C5820E1d59319937413C1462Ed5B5c"
      ],
      "transaction": {
        "from": "0x3f07367008158dc272dd8a38812e1460ef5a390a",
        "to": "0xe990bfbc5c1e5779cb54cb95150edbbb2c2800d0",
        "gas": "0x1124a",
        "value": "0x0",
        "input": "0x2f2ff15d0000000000000000000000000000000000000000000000000000000000000000000000000000000000000000e56e7b7243c5820e1d59319937413c1462ed5b5c",
        "nonce": "0x90",
        "chainId": "0x3e6"
      },
      "additionalContracts": [],
      "isFixedGasLimit": false
    },
    {
      "hash": "0x294a5fd1ea7c89283a518507228da196c606d7686e02fc933bc3974c6322200c",
      "transactionType": "CALL",
      "contractName": null,
      "contractAddress": "0xacd862ef134d772b0ca53a97f53ccdd00abc05cf",
      "function": "grantRole(bytes32,address)",
      "arguments": [
        "0x0000000000000000000000000000000000000000000000000000000000000000",
        "0xe56E7B7243C5820E1d59319937413C1462Ed5B5c"
      ],
      "transaction": {
        "from": "0x3f07367008158dc272dd8a38812e1460ef5a390a",
        "to": "0xacd862ef134d772b0ca53a97f53ccdd00abc05cf",
        "gas": "0x1128d",
        "value": "0x0",
        "input": "0x2f2ff15d0000000000000000000000000000000000000000000000000000000000000000000000000000000000000000e56e7b7243c5820e1d59319937413c1462ed5b5c",
        "nonce": "0x91",
        "chainId": "0x3e6"
      },
      "additionalContracts": [],
      "isFixedGasLimit": false
    },
    {
      "hash": "0xddc3246f343c5b5e7746f8bb6387bdff75759f0a7c4f0aca5eefe100f91b3a35",
      "transactionType": "CALL",
      "contractName": null,
      "contractAddress": "0x1504ca3c050c88ccca67696d642f634fc381fd03",
      "function": "grantRole(bytes32,address)",
      "arguments": [
        "0x0000000000000000000000000000000000000000000000000000000000000000",
        "0xe56E7B7243C5820E1d59319937413C1462Ed5B5c"
      ],
      "transaction": {
        "from": "0x3f07367008158dc272dd8a38812e1460ef5a390a",
        "to": "0x1504ca3c050c88ccca67696d642f634fc381fd03",
        "gas": "0x112af",
        "value": "0x0",
        "input": "0x2f2ff15d0000000000000000000000000000000000000000000000000000000000000000000000000000000000000000e56e7b7243c5820e1d59319937413c1462ed5b5c",
        "nonce": "0x92",
        "chainId": "0x3e6"
      },
      "additionalContracts": [],
      "isFixedGasLimit": false
    },
    {
      "hash": "0x8c1cf8889c17db0de0bf379b7ab9cde626b989e0858f48580ed650ddf5ba2fca",
      "transactionType": "CALL",
      "contractName": null,
      "contractAddress": "0xbe8a9d22560a1b126554b70aaca2d763b2e70c4e",
      "function": "renounceRole(bytes32,address)",
      "arguments": [
        "0x0000000000000000000000000000000000000000000000000000000000000000",
        "0x3F07367008158dC272Dd8A38812e1460eF5a390a"
      ],
      "transaction": {
        "from": "0x3f07367008158dc272dd8a38812e1460ef5a390a",
        "to": "0xbe8a9d22560a1b126554b70aaca2d763b2e70c4e",
        "gas": "0x85a8",
        "value": "0x0",
        "input": "0x36568abe00000000000000000000000000000000000000000000000000000000000000000000000000000000000000003f07367008158dc272dd8a38812e1460ef5a390a",
        "nonce": "0x93",
        "chainId": "0x3e6"
      },
      "additionalContracts": [],
      "isFixedGasLimit": false
    },
    {
      "hash": "0xe9c389ea48f68b90fc3c38c2ff8c97983957d36683bb59dd5ee74b542f0d6674",
      "transactionType": "CALL",
      "contractName": null,
      "contractAddress": "0x93669dac07321ff397cf5734ae8364ea24addf45",
      "function": "renounceRole(bytes32,address)",
      "arguments": [
        "0x0000000000000000000000000000000000000000000000000000000000000000",
        "0x3F07367008158dC272Dd8A38812e1460eF5a390a"
      ],
      "transaction": {
        "from": "0x3f07367008158dc272dd8a38812e1460ef5a390a",
        "to": "0x93669dac07321ff397cf5734ae8364ea24addf45",
        "gas": "0x85a8",
        "value": "0x0",
        "input": "0x36568abe00000000000000000000000000000000000000000000000000000000000000000000000000000000000000003f07367008158dc272dd8a38812e1460ef5a390a",
        "nonce": "0x94",
        "chainId": "0x3e6"
      },
      "additionalContracts": [],
      "isFixedGasLimit": false
    },
    {
      "hash": "0x8d3b2e422825be3cfb81756771fd54d1b02841462aef1e2e5b6395a57fb63fc3",
      "transactionType": "CALL",
      "contractName": null,
      "contractAddress": "0xb62ba9d0a14ac9f9601891179b3da52be71ce052",
      "function": "renounceRole(bytes32,address)",
      "arguments": [
        "0x0000000000000000000000000000000000000000000000000000000000000000",
        "0x3F07367008158dC272Dd8A38812e1460eF5a390a"
      ],
      "transaction": {
        "from": "0x3f07367008158dc272dd8a38812e1460ef5a390a",
        "to": "0xb62ba9d0a14ac9f9601891179b3da52be71ce052",
        "gas": "0x85a8",
        "value": "0x0",
        "input": "0x36568abe00000000000000000000000000000000000000000000000000000000000000000000000000000000000000003f07367008158dc272dd8a38812e1460ef5a390a",
        "nonce": "0x95",
        "chainId": "0x3e6"
      },
      "additionalContracts": [],
      "isFixedGasLimit": false
    },
    {
      "hash": "0x88afcf889f795da2ec644754da84b279c236feb2ce0c78b7d9698379bb9d3aac",
      "transactionType": "CALL",
      "contractName": null,
      "contractAddress": "0x8b15204d88a9bb155be6798522983a3b5f7d7cb0",
      "function": "renounceRole(bytes32,address)",
      "arguments": [
        "0x0000000000000000000000000000000000000000000000000000000000000000",
        "0x3F07367008158dC272Dd8A38812e1460eF5a390a"
      ],
      "transaction": {
        "from": "0x3f07367008158dc272dd8a38812e1460ef5a390a",
        "to": "0x8b15204d88a9bb155be6798522983a3b5f7d7cb0",
        "gas": "0x85a8",
        "value": "0x0",
        "input": "0x36568abe00000000000000000000000000000000000000000000000000000000000000000000000000000000000000003f07367008158dc272dd8a38812e1460ef5a390a",
        "nonce": "0x96",
        "chainId": "0x3e6"
      },
      "additionalContracts": [],
      "isFixedGasLimit": false
    },
    {
      "hash": "0x0f5f5389bf047ee188163eb5a4cfb07e897d07519be54e007bee9318da170d4f",
      "transactionType": "CALL",
      "contractName": null,
      "contractAddress": "0x4e2e7fd3c85c05697b24743e580b03abcd6d0c65",
      "function": "renounceRole(bytes32,address)",
      "arguments": [
        "0x0000000000000000000000000000000000000000000000000000000000000000",
        "0x3F07367008158dC272Dd8A38812e1460eF5a390a"
      ],
      "transaction": {
        "from": "0x3f07367008158dc272dd8a38812e1460ef5a390a",
        "to": "0x4e2e7fd3c85c05697b24743e580b03abcd6d0c65",
        "gas": "0x8bfe",
        "value": "0x0",
        "input": "0x36568abe00000000000000000000000000000000000000000000000000000000000000000000000000000000000000003f07367008158dc272dd8a38812e1460ef5a390a",
        "nonce": "0x97",
        "chainId": "0x3e6"
      },
      "additionalContracts": [],
      "isFixedGasLimit": false
    },
    {
      "hash": "0xbefdfd5e084e982a00b35ee8fd4803ad7cbe5221c1c13be0b917290cd5aeb2e8",
      "transactionType": "CALL",
      "contractName": null,
      "contractAddress": "0x4e2e7fd3c85c05697b24743e580b03abcd6d0c65",
      "function": "renounceRole(bytes32,address)",
      "arguments": [
        "0x7935bd0ae54bc31f548c14dba4d37c5c64b3f8ca900cb468fb8abd54d5894f55",
        "0x3F07367008158dC272Dd8A38812e1460eF5a390a"
      ],
      "transaction": {
        "from": "0x3f07367008158dc272dd8a38812e1460ef5a390a",
        "to": "0x4e2e7fd3c85c05697b24743e580b03abcd6d0c65",
        "gas": "0x8e30",
        "value": "0x0",
        "input": "0x36568abe7935bd0ae54bc31f548c14dba4d37c5c64b3f8ca900cb468fb8abd54d5894f550000000000000000000000003f07367008158dc272dd8a38812e1460ef5a390a",
        "nonce": "0x98",
        "chainId": "0x3e6"
      },
      "additionalContracts": [],
      "isFixedGasLimit": false
    },
    {
      "hash": "0x5721e0e83d4333ac14efa4982fe1ace1e5e467e51c01e906306c0e35a8b17d20",
      "transactionType": "CALL",
      "contractName": null,
      "contractAddress": "0x15f6c4bf4000747e0fdd85b33998a36f5bdf5007",
      "function": "renounceRole(bytes32,address)",
      "arguments": [
        "0x0000000000000000000000000000000000000000000000000000000000000000",
        "0x3F07367008158dC272Dd8A38812e1460eF5a390a"
      ],
      "transaction": {
        "from": "0x3f07367008158dc272dd8a38812e1460ef5a390a",
        "to": "0x15f6c4bf4000747e0fdd85b33998a36f5bdf5007",
        "gas": "0x8bdd",
        "value": "0x0",
        "input": "0x36568abe00000000000000000000000000000000000000000000000000000000000000000000000000000000000000003f07367008158dc272dd8a38812e1460ef5a390a",
        "nonce": "0x99",
        "chainId": "0x3e6"
      },
      "additionalContracts": [],
      "isFixedGasLimit": false
    },
    {
      "hash": "0xcb9129f7e66f704adc1cef42b1ceb7ff1333e2e55aeee82f1922fbaed0836c34",
      "transactionType": "CALL",
      "contractName": null,
      "contractAddress": "0x15f6c4bf4000747e0fdd85b33998a36f5bdf5007",
      "function": "renounceRole(bytes32,address)",
      "arguments": [
        "0x7935bd0ae54bc31f548c14dba4d37c5c64b3f8ca900cb468fb8abd54d5894f55",
        "0x3F07367008158dC272Dd8A38812e1460eF5a390a"
      ],
      "transaction": {
        "from": "0x3f07367008158dc272dd8a38812e1460ef5a390a",
        "to": "0x15f6c4bf4000747e0fdd85b33998a36f5bdf5007",
        "gas": "0x8e0f",
        "value": "0x0",
        "input": "0x36568abe7935bd0ae54bc31f548c14dba4d37c5c64b3f8ca900cb468fb8abd54d5894f550000000000000000000000003f07367008158dc272dd8a38812e1460ef5a390a",
        "nonce": "0x9a",
        "chainId": "0x3e6"
      },
      "additionalContracts": [],
      "isFixedGasLimit": false
    },
    {
      "hash": "0x65252eef2b7313ea056fb39b6993102ab95f3486be0b268c062d78217b53a6fd",
      "transactionType": "CALL",
      "contractName": null,
      "contractAddress": "0x15f6c4bf4000747e0fdd85b33998a36f5bdf5007",
      "function": "renounceRole(bytes32,address)",
      "arguments": [
        "0x9957de8c5d95da580823ca52e598d0c0d2818cb1f8fd9773a5166d2a45d82b05",
        "0x3F07367008158dC272Dd8A38812e1460eF5a390a"
      ],
      "transaction": {
        "from": "0x3f07367008158dc272dd8a38812e1460ef5a390a",
        "to": "0x15f6c4bf4000747e0fdd85b33998a36f5bdf5007",
        "gas": "0x8e0f",
        "value": "0x0",
        "input": "0x36568abe9957de8c5d95da580823ca52e598d0c0d2818cb1f8fd9773a5166d2a45d82b050000000000000000000000003f07367008158dc272dd8a38812e1460ef5a390a",
        "nonce": "0x9b",
        "chainId": "0x3e6"
      },
      "additionalContracts": [],
      "isFixedGasLimit": false
    },
    {
      "hash": "0x0d67c9c588625061f512524e0fb05b323c56f6d5906b198d9297a38adbbd8381",
      "transactionType": "CALL",
      "contractName": null,
      "contractAddress": "0x8fb48f84aa69e89e0360e6d2d26c447aa57dcf73",
      "function": "renounceRole(bytes32,address)",
      "arguments": [
        "0x0000000000000000000000000000000000000000000000000000000000000000",
        "0x3F07367008158dC272Dd8A38812e1460eF5a390a"
      ],
      "transaction": {
        "from": "0x3f07367008158dc272dd8a38812e1460ef5a390a",
        "to": "0x8fb48f84aa69e89e0360e6d2d26c447aa57dcf73",
        "gas": "0x8454",
        "value": "0x0",
        "input": "0x36568abe00000000000000000000000000000000000000000000000000000000000000000000000000000000000000003f07367008158dc272dd8a38812e1460ef5a390a",
        "nonce": "0x9c",
        "chainId": "0x3e6"
      },
      "additionalContracts": [],
      "isFixedGasLimit": false
    },
    {
      "hash": "0xdaaa0953a54a16d225b1e19733e90f535b8ff762afbf023b02e00fd374562b1f",
      "transactionType": "CALL",
      "contractName": null,
      "contractAddress": "0x8fb48f84aa69e89e0360e6d2d26c447aa57dcf73",
      "function": "renounceRole(bytes32,address)",
      "arguments": [
        "0x7935bd0ae54bc31f548c14dba4d37c5c64b3f8ca900cb468fb8abd54d5894f55",
        "0x3F07367008158dC272Dd8A38812e1460eF5a390a"
      ],
      "transaction": {
        "from": "0x3f07367008158dc272dd8a38812e1460ef5a390a",
        "to": "0x8fb48f84aa69e89e0360e6d2d26c447aa57dcf73",
        "gas": "0x8667",
        "value": "0x0",
        "input": "0x36568abe7935bd0ae54bc31f548c14dba4d37c5c64b3f8ca900cb468fb8abd54d5894f550000000000000000000000003f07367008158dc272dd8a38812e1460ef5a390a",
        "nonce": "0x9d",
        "chainId": "0x3e6"
      },
      "additionalContracts": [],
      "isFixedGasLimit": false
    },
    {
      "hash": "0x9137294cbc720a5dcd58bde3e0be27cfdd9e162120498345182dcc6ab46b974b",
      "transactionType": "CALL",
      "contractName": null,
      "contractAddress": "0x403e8c79653b1cb7a5c0eaa313ec0c7d0cac7e2c",
      "function": "renounceRole(bytes32,address)",
      "arguments": [
        "0x0000000000000000000000000000000000000000000000000000000000000000",
        "0x3F07367008158dC272Dd8A38812e1460eF5a390a"
      ],
      "transaction": {
        "from": "0x3f07367008158dc272dd8a38812e1460ef5a390a",
        "to": "0x403e8c79653b1cb7a5c0eaa313ec0c7d0cac7e2c",
        "gas": "0x8454",
        "value": "0x0",
        "input": "0x36568abe00000000000000000000000000000000000000000000000000000000000000000000000000000000000000003f07367008158dc272dd8a38812e1460ef5a390a",
        "nonce": "0x9e",
        "chainId": "0x3e6"
      },
      "additionalContracts": [],
      "isFixedGasLimit": false
    },
    {
      "hash": "0xc6584b207aa49486a127db3f94a8f530cf2c151271cd01d1ea352b301c4b933b",
      "transactionType": "CALL",
      "contractName": null,
      "contractAddress": "0x403e8c79653b1cb7a5c0eaa313ec0c7d0cac7e2c",
      "function": "renounceRole(bytes32,address)",
      "arguments": [
        "0x7935bd0ae54bc31f548c14dba4d37c5c64b3f8ca900cb468fb8abd54d5894f55",
        "0x3F07367008158dC272Dd8A38812e1460eF5a390a"
      ],
      "transaction": {
        "from": "0x3f07367008158dc272dd8a38812e1460ef5a390a",
        "to": "0x403e8c79653b1cb7a5c0eaa313ec0c7d0cac7e2c",
        "gas": "0x8667",
        "value": "0x0",
        "input": "0x36568abe7935bd0ae54bc31f548c14dba4d37c5c64b3f8ca900cb468fb8abd54d5894f550000000000000000000000003f07367008158dc272dd8a38812e1460ef5a390a",
        "nonce": "0x9f",
        "chainId": "0x3e6"
      },
      "additionalContracts": [],
      "isFixedGasLimit": false
    },
    {
      "hash": "0x1b3a0895b486913d9b86b5a72b77c20c77ba9fa63d22233301dffea00c4f7bfb",
      "transactionType": "CALL",
      "contractName": null,
      "contractAddress": "0xc69f8a8014b4d17ee2e7457109ff1db33c0c7d7f",
      "function": "renounceRole(bytes32,address)",
      "arguments": [
        "0x0000000000000000000000000000000000000000000000000000000000000000",
        "0x3F07367008158dC272Dd8A38812e1460eF5a390a"
      ],
      "transaction": {
        "from": "0x3f07367008158dc272dd8a38812e1460ef5a390a",
        "to": "0xc69f8a8014b4d17ee2e7457109ff1db33c0c7d7f",
        "gas": "0x8454",
        "value": "0x0",
        "input": "0x36568abe00000000000000000000000000000000000000000000000000000000000000000000000000000000000000003f07367008158dc272dd8a38812e1460ef5a390a",
        "nonce": "0xa0",
        "chainId": "0x3e6"
      },
      "additionalContracts": [],
      "isFixedGasLimit": false
    },
    {
      "hash": "0x8e4080c21768c5052430ac695d57d12bf8611f5736cec9c38ec94512ce35adad",
      "transactionType": "CALL",
      "contractName": null,
      "contractAddress": "0xc69f8a8014b4d17ee2e7457109ff1db33c0c7d7f",
      "function": "renounceRole(bytes32,address)",
      "arguments": [
        "0x7935bd0ae54bc31f548c14dba4d37c5c64b3f8ca900cb468fb8abd54d5894f55",
        "0x3F07367008158dC272Dd8A38812e1460eF5a390a"
      ],
      "transaction": {
        "from": "0x3f07367008158dc272dd8a38812e1460ef5a390a",
        "to": "0xc69f8a8014b4d17ee2e7457109ff1db33c0c7d7f",
        "gas": "0x8667",
        "value": "0x0",
        "input": "0x36568abe7935bd0ae54bc31f548c14dba4d37c5c64b3f8ca900cb468fb8abd54d5894f550000000000000000000000003f07367008158dc272dd8a38812e1460ef5a390a",
        "nonce": "0xa1",
        "chainId": "0x3e6"
      },
      "additionalContracts": [],
      "isFixedGasLimit": false
    },
    {
      "hash": "0xc33cce222aeae0f09bd8a3460819bd8a0cda63bb45721ca70d9c7d4d93d80379",
      "transactionType": "CALL",
      "contractName": null,
      "contractAddress": "0xe990bfbc5c1e5779cb54cb95150edbbb2c2800d0",
      "function": "renounceRole(bytes32,address)",
      "arguments": [
        "0x0000000000000000000000000000000000000000000000000000000000000000",
        "0x3F07367008158dC272Dd8A38812e1460eF5a390a"
      ],
      "transaction": {
        "from": "0x3f07367008158dc272dd8a38812e1460ef5a390a",
        "to": "0xe990bfbc5c1e5779cb54cb95150edbbb2c2800d0",
        "gas": "0x8454",
        "value": "0x0",
        "input": "0x36568abe00000000000000000000000000000000000000000000000000000000000000000000000000000000000000003f07367008158dc272dd8a38812e1460ef5a390a",
        "nonce": "0xa2",
        "chainId": "0x3e6"
      },
      "additionalContracts": [],
      "isFixedGasLimit": false
    },
    {
      "hash": "0x4095f9c65643d07b24b6eabaf7fb73f9e4fdfba127944c7a34302df3783a4b30",
      "transactionType": "CALL",
      "contractName": null,
      "contractAddress": "0xe990bfbc5c1e5779cb54cb95150edbbb2c2800d0",
      "function": "renounceRole(bytes32,address)",
      "arguments": [
        "0x7935bd0ae54bc31f548c14dba4d37c5c64b3f8ca900cb468fb8abd54d5894f55",
        "0x3F07367008158dC272Dd8A38812e1460eF5a390a"
      ],
      "transaction": {
        "from": "0x3f07367008158dc272dd8a38812e1460ef5a390a",
        "to": "0xe990bfbc5c1e5779cb54cb95150edbbb2c2800d0",
        "gas": "0x8667",
        "value": "0x0",
        "input": "0x36568abe7935bd0ae54bc31f548c14dba4d37c5c64b3f8ca900cb468fb8abd54d5894f550000000000000000000000003f07367008158dc272dd8a38812e1460ef5a390a",
        "nonce": "0xa3",
        "chainId": "0x3e6"
      },
      "additionalContracts": [],
      "isFixedGasLimit": false
    },
    {
      "hash": "0x40dfa72bf09c60a76f8a887cac7e7c94ffc6aada117d9bd05e1de71a5505d516",
      "transactionType": "CALL",
      "contractName": null,
      "contractAddress": "0xacd862ef134d772b0ca53a97f53ccdd00abc05cf",
      "function": "renounceRole(bytes32,address)",
      "arguments": [
        "0x0000000000000000000000000000000000000000000000000000000000000000",
        "0x3F07367008158dC272Dd8A38812e1460eF5a390a"
      ],
      "transaction": {
        "from": "0x3f07367008158dc272dd8a38812e1460ef5a390a",
        "to": "0xacd862ef134d772b0ca53a97f53ccdd00abc05cf",
        "gas": "0x84d5",
        "value": "0x0",
        "input": "0x36568abe00000000000000000000000000000000000000000000000000000000000000000000000000000000000000003f07367008158dc272dd8a38812e1460ef5a390a",
        "nonce": "0xa4",
        "chainId": "0x3e6"
      },
      "additionalContracts": [],
      "isFixedGasLimit": false
    },
    {
      "hash": "0xdadd8c30b5b7d89090f1a790c81c8f5519b24c6194b34019203018aba09317a8",
      "transactionType": "CALL",
      "contractName": null,
      "contractAddress": "0xacd862ef134d772b0ca53a97f53ccdd00abc05cf",
      "function": "renounceRole(bytes32,address)",
      "arguments": [
        "0xfc8737ab85eb45125971625a9ebdb75cc78e01d5c1fa80c4c6e5203f47bc4fab",
        "0x3F07367008158dC272Dd8A38812e1460eF5a390a"
      ],
      "transaction": {
        "from": "0x3f07367008158dc272dd8a38812e1460ef5a390a",
        "to": "0xacd862ef134d772b0ca53a97f53ccdd00abc05cf",
        "gas": "0x86e7",
        "value": "0x0",
        "input": "0x36568abefc8737ab85eb45125971625a9ebdb75cc78e01d5c1fa80c4c6e5203f47bc4fab0000000000000000000000003f07367008158dc272dd8a38812e1460ef5a390a",
        "nonce": "0xa5",
        "chainId": "0x3e6"
      },
      "additionalContracts": [],
      "isFixedGasLimit": false
    },
    {
      "hash": "0x7cc8ca0855704602f6143fb0998b93d6544d999ff5850589c68d675e1ff526c3",
      "transactionType": "CALL",
      "contractName": null,
      "contractAddress": "0xacd862ef134d772b0ca53a97f53ccdd00abc05cf",
      "function": "renounceRole(bytes32,address)",
      "arguments": [
        "0x55435dd261a4b9b3364963f7738a7a662ad9c84396d64be3365284bb7f0a5041",
        "0x3F07367008158dC272Dd8A38812e1460eF5a390a"
      ],
      "transaction": {
        "from": "0x3f07367008158dc272dd8a38812e1460ef5a390a",
        "to": "0xacd862ef134d772b0ca53a97f53ccdd00abc05cf",
        "gas": "0x86e7",
        "value": "0x0",
        "input": "0x36568abe55435dd261a4b9b3364963f7738a7a662ad9c84396d64be3365284bb7f0a50410000000000000000000000003f07367008158dc272dd8a38812e1460ef5a390a",
        "nonce": "0xa6",
        "chainId": "0x3e6"
      },
      "additionalContracts": [],
      "isFixedGasLimit": false
    },
    {
      "hash": "0xa022287d2fe44dcf3e96c02d367e01684fef1afc726f29715e3629974ded0031",
      "transactionType": "CALL",
      "contractName": null,
      "contractAddress": "0x1504ca3c050c88ccca67696d642f634fc381fd03",
      "function": "renounceRole(bytes32,address)",
      "arguments": [
        "0x0000000000000000000000000000000000000000000000000000000000000000",
        "0x3F07367008158dC272Dd8A38812e1460eF5a390a"
      ],
      "transaction": {
        "from": "0x3f07367008158dc272dd8a38812e1460ef5a390a",
        "to": "0x1504ca3c050c88ccca67696d642f634fc381fd03",
        "gas": "0x84c3",
        "value": "0x0",
        "input": "0x36568abe00000000000000000000000000000000000000000000000000000000000000000000000000000000000000003f07367008158dc272dd8a38812e1460ef5a390a",
        "nonce": "0xa7",
        "chainId": "0x3e6"
      },
      "additionalContracts": [],
      "isFixedGasLimit": false
    }
  ],
  "receipts": [
    {
      "type": "0x0",
      "status": "0x1",
      "cumulativeGasUsed": "0x55b02",
      "logs": [
        {
          "address": "0xbe8a9d22560a1b126554b70aaca2d763b2e70c4e",
          "topics": [
            "0x2f8788117e7eff1d82e926ec794901d17c78024a50270940304540a733656f0d",
            "0x0000000000000000000000000000000000000000000000000000000000000000",
            "0x000000000000000000000000e56e7b7243c5820e1d59319937413c1462ed5b5c",
            "0x0000000000000000000000003f07367008158dc272dd8a38812e1460ef5a390a"
          ],
          "data": "0x",
          "blockHash": "0x6eae6b8cabf2da0adea1523ab41996a9fd8e3353750ce88cc528e171b9ba50a0",
          "blockNumber": "0x33beff8",
          "blockTimestamp": "0x6a116e70",
          "transactionHash": "0x93fd7d8448e69c9bd9605bf5bc92f12003b05f54ec1f9aa1756504b4c52feb8e",
          "transactionIndex": "0x4",
          "logIndex": "0x9",
          "removed": false
        }
      ],
      "logsBloom": "0x00000004000000000000000000000000008000000000000000000008000000000000000000000000000000000000000000000000000000000000000000000000000000000000000000000000000000000000000000000000000000010000020000000000020000000000000000000840000000800002000000000000000000000000000000000000000000000000000000000000000000000000000000000000000000000000000000010000000000000000000000000000001000000000000080000000000000000000000000000000000000000000000100000000000020000000000000000000000000000000000000000000000000000000000000000000",
      "transactionHash": "0x93fd7d8448e69c9bd9605bf5bc92f12003b05f54ec1f9aa1756504b4c52feb8e",
      "transactionIndex": "0x4",
      "blockHash": "0x6eae6b8cabf2da0adea1523ab41996a9fd8e3353750ce88cc528e171b9ba50a0",
      "blockNumber": "0x33beff8",
      "gasUsed": "0xc74c",
      "effectiveGasPrice": "0x5f5e100",
      "from": "0x3f07367008158dc272dd8a38812e1460ef5a390a",
      "to": "0xbe8a9d22560a1b126554b70aaca2d763b2e70c4e",
      "contractAddress": null
    },
    {
      "type": "0x0",
      "status": "0x1",
      "cumulativeGasUsed": "0xc74c",
      "logs": [
        {
          "address": "0x93669dac07321ff397cf5734ae8364ea24addf45",
          "topics": [
            "0x2f8788117e7eff1d82e926ec794901d17c78024a50270940304540a733656f0d",
            "0x0000000000000000000000000000000000000000000000000000000000000000",
            "0x000000000000000000000000e56e7b7243c5820e1d59319937413c1462ed5b5c",
            "0x0000000000000000000000003f07367008158dc272dd8a38812e1460ef5a390a"
          ],
          "data": "0x",
          "blockHash": "0x2bd56646ac198349f18392bc440b06e05cf6f215b85671d3d952fd80458b1e44",
          "blockNumber": "0x33bf035",
          "blockTimestamp": "0x6a116eac",
          "transactionHash": "0xe4d2d10fc8e58b97d73c65a90c00ecb3e3955096439b0da088b5922654a23ad8",
          "transactionIndex": "0x0",
          "logIndex": "0x0",
          "removed": false
        }
      ],
      "logsBloom": "0x00000004000000000000000000000000000000000000000000000008000000000010000000000000000000000000000000000000000000000000000000000000000000000000000000000000000000000000000000000000000000010000020000000000020000000000000000000840000000800000000000800000000000000000000000000000000000000000000000000000020000000000000000000000000000000000000000010000000000000000000000000000001000000000000000000000000000000000000000000000000000000000000100000000000020000000000000000000000000000000000000000000000000000000000000000000",
      "transactionHash": "0xe4d2d10fc8e58b97d73c65a90c00ecb3e3955096439b0da088b5922654a23ad8",
      "transactionIndex": "0x0",
      "blockHash": "0x2bd56646ac198349f18392bc440b06e05cf6f215b85671d3d952fd80458b1e44",
      "blockNumber": "0x33bf035",
      "gasUsed": "0xc74c",
      "effectiveGasPrice": "0x5f5e100",
      "from": "0x3f07367008158dc272dd8a38812e1460ef5a390a",
      "to": "0x93669dac07321ff397cf5734ae8364ea24addf45",
      "contractAddress": null
    },
    {
      "type": "0x0",
      "status": "0x1",
      "cumulativeGasUsed": "0xc74c",
      "logs": [
        {
          "address": "0xb62ba9d0a14ac9f9601891179b3da52be71ce052",
          "topics": [
            "0x2f8788117e7eff1d82e926ec794901d17c78024a50270940304540a733656f0d",
            "0x0000000000000000000000000000000000000000000000000000000000000000",
            "0x000000000000000000000000e56e7b7243c5820e1d59319937413c1462ed5b5c",
            "0x0000000000000000000000003f07367008158dc272dd8a38812e1460ef5a390a"
          ],
          "data": "0x",
          "blockHash": "0x068eb1631dd113eba1e96b6eec514fd64de5a2aa582987afe02dd135ded05ed3",
          "blockNumber": "0x33bf072",
          "blockTimestamp": "0x6a116ee8",
          "transactionHash": "0x51a31f331f903fb86990cd95677aa326e2f720bf789c8595d0765c8c7c70e0d4",
          "transactionIndex": "0x0",
          "logIndex": "0x0",
          "removed": false
        }
      ],
      "logsBloom": "0x00000004000000000000000000000000000000000000000000000008000000000000000000000400000000000000000000000000000000000000000000000000040000000000000000000000000000000000000000000000000000010000020000000000020000000000000000000840000000800000000000000800000000000000000000000000000000000000000000000000000000000000000000000000000000000000000000010000000000000000000000000000001000000000000000000000000000000000000000000000000000000000000100000000000020000000000000000000000000000000000000000000000000000000000000000000",
      "transactionHash": "0x51a31f331f903fb86990cd95677aa326e2f720bf789c8595d0765c8c7c70e0d4",
      "transactionIndex": "0x0",
      "blockHash": "0x068eb1631dd113eba1e96b6eec514fd64de5a2aa582987afe02dd135ded05ed3",
      "blockNumber": "0x33bf072",
      "gasUsed": "0xc74c",
      "effectiveGasPrice": "0x5f5e100",
      "from": "0x3f07367008158dc272dd8a38812e1460ef5a390a",
      "to": "0xb62ba9d0a14ac9f9601891179b3da52be71ce052",
      "contractAddress": null
    },
    {
      "type": "0x0",
      "status": "0x1",
      "cumulativeGasUsed": "0xc74c",
      "logs": [
        {
          "address": "0x8b15204d88a9bb155be6798522983a3b5f7d7cb0",
          "topics": [
            "0x2f8788117e7eff1d82e926ec794901d17c78024a50270940304540a733656f0d",
            "0x0000000000000000000000000000000000000000000000000000000000000000",
            "0x000000000000000000000000e56e7b7243c5820e1d59319937413c1462ed5b5c",
            "0x0000000000000000000000003f07367008158dc272dd8a38812e1460ef5a390a"
          ],
          "data": "0x",
          "blockHash": "0x6d5b2ee26a32b1beba8077fbe4254d2f77e2140d868ccea73489a3051cb89f08",
          "blockNumber": "0x33bf0af",
          "blockTimestamp": "0x6a116f24",
          "transactionHash": "0x9bd83a529e447c1b9406948f96d41ad9b0d9ed80acfe690e38af5dae569a6bf3",
          "transactionIndex": "0x0",
          "logIndex": "0x0",
          "removed": false
        }
      ],
      "logsBloom": "0x00000004000000000000000000000000000000000000000000000008000000000000000000000000000000000000000000000000000004000000000000000000000000000000000000000000000000000000000000000000000000010000020000000000020000000000000000000840000000800000000000000000000000000000000000000000000000000000000000000000000000000000000000000000000000004000000000010000000000000000000000000000001000000000000000000000000000000000000000000000000000000000000100000000000020000000000000001000000000000000000000000000000000000000000000000000",
      "transactionHash": "0x9bd83a529e447c1b9406948f96d41ad9b0d9ed80acfe690e38af5dae569a6bf3",
      "transactionIndex": "0x0",
      "blockHash": "0x6d5b2ee26a32b1beba8077fbe4254d2f77e2140d868ccea73489a3051cb89f08",
      "blockNumber": "0x33bf0af",
      "gasUsed": "0xc74c",
      "effectiveGasPrice": "0x5f5e100",
      "from": "0x3f07367008158dc272dd8a38812e1460ef5a390a",
      "to": "0x8b15204d88a9bb155be6798522983a3b5f7d7cb0",
      "contractAddress": null
    },
    {
      "type": "0x0",
      "status": "0x1",
      "cumulativeGasUsed": "0xc67f",
      "logs": [
        {
          "address": "0x4e2e7fd3c85c05697b24743e580b03abcd6d0c65",
          "topics": [
            "0x2f8788117e7eff1d82e926ec794901d17c78024a50270940304540a733656f0d",
            "0x0000000000000000000000000000000000000000000000000000000000000000",
            "0x000000000000000000000000e56e7b7243c5820e1d59319937413c1462ed5b5c",
            "0x0000000000000000000000003f07367008158dc272dd8a38812e1460ef5a390a"
          ],
          "data": "0x",
          "blockHash": "0xaad76ab01398b5fe54bc81ddba3d4b5fb8d6fb90b1fba3b4af96909ec47366ec",
          "blockNumber": "0x33bf0ec",
          "blockTimestamp": "0x6a116f60",
          "transactionHash": "0x8058a6a40455af7b3910efe6f3ac47219e7293fbec0437e11e343e0daa2ac725",
          "transactionIndex": "0x0",
          "logIndex": "0x0",
          "removed": false
        }
      ],
      "logsBloom": "0x00000004000000000000000000000000000000000000000000000008000000000000000000000000000000000000000000000000000000000000000000000000000000000000000000000000000000000000000000000000000000010000020000000000020000000000000000000840000000800000000000100000000000000000000000000000000000000000000000000000000000000000000000000000000000000000000000010000000000000000001000000000001000000000080000000000000000000000000000000000000000000000000100000000000020000000000000000000000000000000000000000000000000000000000000000000",
      "transactionHash": "0x8058a6a40455af7b3910efe6f3ac47219e7293fbec0437e11e343e0daa2ac725",
      "transactionIndex": "0x0",
      "blockHash": "0xaad76ab01398b5fe54bc81ddba3d4b5fb8d6fb90b1fba3b4af96909ec47366ec",
      "blockNumber": "0x33bf0ec",
      "gasUsed": "0xc67f",
      "effectiveGasPrice": "0x5f5e100",
      "from": "0x3f07367008158dc272dd8a38812e1460ef5a390a",
      "to": "0x4e2e7fd3c85c05697b24743e580b03abcd6d0c65",
      "contractAddress": null
    },
    {
      "type": "0x0",
      "status": "0x1",
      "cumulativeGasUsed": "0xc669",
      "logs": [
        {
          "address": "0x15f6c4bf4000747e0fdd85b33998a36f5bdf5007",
          "topics": [
            "0x2f8788117e7eff1d82e926ec794901d17c78024a50270940304540a733656f0d",
            "0x0000000000000000000000000000000000000000000000000000000000000000",
            "0x000000000000000000000000e56e7b7243c5820e1d59319937413c1462ed5b5c",
            "0x0000000000000000000000003f07367008158dc272dd8a38812e1460ef5a390a"
          ],
          "data": "0x",
          "blockHash": "0x49558c0d7df8e1228b6dc292fc6ddcc0a53cc4c2808a86c90f2089269c551338",
          "blockNumber": "0x33bf129",
          "blockTimestamp": "0x6a116f9c",
          "transactionHash": "0xbe2a9cc4da66b6be051ba940230616efb826150475baac20bc1840ec0b6c9f22",
          "transactionIndex": "0x0",
          "logIndex": "0x0",
          "removed": false
        }
      ],
      "logsBloom": "0x00000004000000000000000000000000002000000000000000000008000000000000000000000004000000000000000000000000000000000000000000000000000000000000000000000000000000000000000000000000000000010000020000000000020000000000000000000840000000800000000000000000000000000000000000000000000000000000000000000080000000000000000000000000000000000000000000010000000000000000000000000000001000000000000000000000000000000000000000000000000000000000000100000000000020000000000000000000000000000000000000000000000000000000000000000000",
      "transactionHash": "0xbe2a9cc4da66b6be051ba940230616efb826150475baac20bc1840ec0b6c9f22",
      "transactionIndex": "0x0",
      "blockHash": "0x49558c0d7df8e1228b6dc292fc6ddcc0a53cc4c2808a86c90f2089269c551338",
      "blockNumber": "0x33bf129",
      "gasUsed": "0xc669",
      "effectiveGasPrice": "0x5f5e100",
      "from": "0x3f07367008158dc272dd8a38812e1460ef5a390a",
      "to": "0x15f6c4bf4000747e0fdd85b33998a36f5bdf5007",
      "contractAddress": null
    },
    {
      "type": "0x0",
      "status": "0x1",
      "cumulativeGasUsed": "0xc695",
      "logs": [
        {
          "address": "0x8fb48f84aa69e89e0360e6d2d26c447aa57dcf73",
          "topics": [
            "0x2f8788117e7eff1d82e926ec794901d17c78024a50270940304540a733656f0d",
            "0x0000000000000000000000000000000000000000000000000000000000000000",
            "0x000000000000000000000000e56e7b7243c5820e1d59319937413c1462ed5b5c",
            "0x0000000000000000000000003f07367008158dc272dd8a38812e1460ef5a390a"
          ],
          "data": "0x",
          "blockHash": "0x68966b7760c5dc03fe31fd366765fbac65c1b61007e2287fe698c6586576f85e",
          "blockNumber": "0x33bf166",
          "blockTimestamp": "0x6a116fd8",
          "transactionHash": "0x9a3a937165d246ef9f34df8c12c96e04d28f23e895b50554d7ed3d0dff6bef6e",
          "transactionIndex": "0x0",
          "logIndex": "0x0",
          "removed": false
        }
      ],
      "logsBloom": "0x00000004000000000000000000000000000000000000000000000008000000000000000000000000000000000000000000000000000000000000000000000000000000000000000000000000000000000000000000000000000000010000020000000000020000000000000000000840000000800000000000000000000000000000000000000000000000000000000000000000000000000000000000000000000000000000000000010000000000000000000000000000001400000000000000000000000000000000000000000000000000000000000100000000024020000000000000000000000000000000000000000000000000000000000000000000",
      "transactionHash": "0x9a3a937165d246ef9f34df8c12c96e04d28f23e895b50554d7ed3d0dff6bef6e",
      "transactionIndex": "0x0",
      "blockHash": "0x68966b7760c5dc03fe31fd366765fbac65c1b61007e2287fe698c6586576f85e",
      "blockNumber": "0x33bf166",
      "gasUsed": "0xc695",
      "effectiveGasPrice": "0x5f5e100",
      "from": "0x3f07367008158dc272dd8a38812e1460ef5a390a",
      "to": "0x8fb48f84aa69e89e0360e6d2d26c447aa57dcf73",
      "contractAddress": null
    },
    {
      "type": "0x0",
      "status": "0x1",
      "cumulativeGasUsed": "0xc695",
      "logs": [
        {
          "address": "0x403e8c79653b1cb7a5c0eaa313ec0c7d0cac7e2c",
          "topics": [
            "0x2f8788117e7eff1d82e926ec794901d17c78024a50270940304540a733656f0d",
            "0x0000000000000000000000000000000000000000000000000000000000000000",
            "0x000000000000000000000000e56e7b7243c5820e1d59319937413c1462ed5b5c",
            "0x0000000000000000000000003f07367008158dc272dd8a38812e1460ef5a390a"
          ],
          "data": "0x",
          "blockHash": "0xa7019eb6ea8da74374468c159e0ff5b270ffdb4aff5aed608bf147fceee8e57d",
          "blockNumber": "0x33bf1a3",
          "blockTimestamp": "0x6a117014",
          "transactionHash": "0xc1759dedda914eeada78884fb2a8f0582ca1213ccb39b7bb7c1b96343e086020",
          "transactionIndex": "0x0",
          "logIndex": "0x0",
          "removed": false
        }
      ],
      "logsBloom": "0x00000004000000000000000200000000000000000000000000000008000000000000000000000000000000000000000000000000000000000000000000000000000000000000000000000000000000000000000000000000000000010000020000000000020000000000000000000840000000800000000000000000000000000000000000000040000000000000000000000000000000000000100000000000000000000000000000010000000000000000000000000000001000000000000000000000000000000000000000000000000000000000000100000000000020000000000000000000000000000000000000000000000000000000000000000000",
      "transactionHash": "0xc1759dedda914eeada78884fb2a8f0582ca1213ccb39b7bb7c1b96343e086020",
      "transactionIndex": "0x0",
      "blockHash": "0xa7019eb6ea8da74374468c159e0ff5b270ffdb4aff5aed608bf147fceee8e57d",
      "blockNumber": "0x33bf1a3",
      "gasUsed": "0xc695",
      "effectiveGasPrice": "0x5f5e100",
      "from": "0x3f07367008158dc272dd8a38812e1460ef5a390a",
      "to": "0x403e8c79653b1cb7a5c0eaa313ec0c7d0cac7e2c",
      "contractAddress": null
    },
    {
      "type": "0x0",
      "status": "0x1",
      "cumulativeGasUsed": "0xc695",
      "logs": [
        {
          "address": "0xc69f8a8014b4d17ee2e7457109ff1db33c0c7d7f",
          "topics": [
            "0x2f8788117e7eff1d82e926ec794901d17c78024a50270940304540a733656f0d",
            "0x0000000000000000000000000000000000000000000000000000000000000000",
            "0x000000000000000000000000e56e7b7243c5820e1d59319937413c1462ed5b5c",
            "0x0000000000000000000000003f07367008158dc272dd8a38812e1460ef5a390a"
          ],
          "data": "0x",
          "blockHash": "0x67ad73b99c786a4fd64b12feaedc5f26d6dce91954d393d04ab558e959dc7f6f",
          "blockNumber": "0x33bf1e0",
          "blockTimestamp": "0x6a117050",
          "transactionHash": "0x6d850d059266dd68a4aa72bdbfaa09f3c60ef5d8d06facef0c889dc9956d3e56",
          "transactionIndex": "0x0",
          "logIndex": "0x0",
          "removed": false
        }
      ],
      "logsBloom": "0x00000004000000000000000000000000000000000000000000000008000000000000000000080000000000000000000000800000000000000000000000000000000000000000000000000000000000000000000000000000000000010000020000000000020000000000000000000840000000800000000000000000000000000000000000000000000000000000000000000000000000000000000000000000000000000000100000010000000000000000000000000000001000000000000000000000000000000000000000000000000000000000000100000000000020000000000000000000000000000000000000000000000000000000000000000000",
      "transactionHash": "0x6d850d059266dd68a4aa72bdbfaa09f3c60ef5d8d06facef0c889dc9956d3e56",
      "transactionIndex": "0x0",
      "blockHash": "0x67ad73b99c786a4fd64b12feaedc5f26d6dce91954d393d04ab558e959dc7f6f",
      "blockNumber": "0x33bf1e0",
      "gasUsed": "0xc695",
      "effectiveGasPrice": "0x5f5e100",
      "from": "0x3f07367008158dc272dd8a38812e1460ef5a390a",
      "to": "0xc69f8a8014b4d17ee2e7457109ff1db33c0c7d7f",
      "contractAddress": null
    },
    {
      "type": "0x0",
      "status": "0x1",
      "cumulativeGasUsed": "0xc695",
      "logs": [
        {
          "address": "0xe990bfbc5c1e5779cb54cb95150edbbb2c2800d0",
          "topics": [
            "0x2f8788117e7eff1d82e926ec794901d17c78024a50270940304540a733656f0d",
            "0x0000000000000000000000000000000000000000000000000000000000000000",
            "0x000000000000000000000000e56e7b7243c5820e1d59319937413c1462ed5b5c",
            "0x0000000000000000000000003f07367008158dc272dd8a38812e1460ef5a390a"
          ],
          "data": "0x",
          "blockHash": "0xdd49fef5bb2ad715c9c8841153ae0938a35c6132b71e0e59a7d9f6e34d2f8345",
          "blockNumber": "0x33bf21d",
          "blockTimestamp": "0x6a11708c",
          "transactionHash": "0x3e3e5be7590eff8ec59083d002c9e50e2a53e90d906166a8028ab7d4ee92da16",
          "transactionIndex": "0x0",
          "logIndex": "0x0",
          "removed": false
        }
      ],
      "logsBloom": "0x00000004000000000000000000000000000000000000000000000008000000000000000000000000000000000000000000000000000000000000000000000000000000000000000000000000000000000000000000000000000000010000020000000000020000000000000000000840000000800000000000000000000000000000000000000000000000000000000000000000000000000000000000000008000000000000000000010000000000000000000000000000001000000000000000000000000000000000000000000000000000000000000100000002000020000000000000000000000000000000000000000000000000000004000000000000",
      "transactionHash": "0x3e3e5be7590eff8ec59083d002c9e50e2a53e90d906166a8028ab7d4ee92da16",
      "transactionIndex": "0x0",
      "blockHash": "0xdd49fef5bb2ad715c9c8841153ae0938a35c6132b71e0e59a7d9f6e34d2f8345",
      "blockNumber": "0x33bf21d",
      "gasUsed": "0xc695",
      "effectiveGasPrice": "0x5f5e100",
      "from": "0x3f07367008158dc272dd8a38812e1460ef5a390a",
      "to": "0xe990bfbc5c1e5779cb54cb95150edbbb2c2800d0",
      "contractAddress": null
    },
    {
      "type": "0x0",
      "status": "0x1",
      "cumulativeGasUsed": "0xc6c6",
      "logs": [
        {
          "address": "0xacd862ef134d772b0ca53a97f53ccdd00abc05cf",
          "topics": [
            "0x2f8788117e7eff1d82e926ec794901d17c78024a50270940304540a733656f0d",
            "0x0000000000000000000000000000000000000000000000000000000000000000",
            "0x000000000000000000000000e56e7b7243c5820e1d59319937413c1462ed5b5c",
            "0x0000000000000000000000003f07367008158dc272dd8a38812e1460ef5a390a"
          ],
          "data": "0x",
          "blockHash": "0xcb128270736abd5c00d9b4e4da7bcd78fd1f7ef5824e15008bc237c0d0b33aa0",
          "blockNumber": "0x33bf25a",
          "blockTimestamp": "0x6a1170c8",
          "transactionHash": "0x294a5fd1ea7c89283a518507228da196c606d7686e02fc933bc3974c6322200c",
          "transactionIndex": "0x0",
          "logIndex": "0x0",
          "removed": false
        }
      ],
      "logsBloom": "0x00000004000000000000000000000000000000000000000000000008000000000000001000000000000000000000000000000000000000000000000000000000000000000000000000000000000000000000000000000000000000010000020000000000020000000000000000000840000000800000000000000000000000000000000800000000000000000000000000000000000000000000000000000000000000000000000000010000000000400000000000000000001000000000000000000000000000000000000000000000000000000000000100000000000020000000000000000000000000000000000000000000000000000000000000000000",
      "transactionHash": "0x294a5fd1ea7c89283a518507228da196c606d7686e02fc933bc3974c6322200c",
      "transactionIndex": "0x0",
      "blockHash": "0xcb128270736abd5c00d9b4e4da7bcd78fd1f7ef5824e15008bc237c0d0b33aa0",
      "blockNumber": "0x33bf25a",
      "gasUsed": "0xc6c6",
      "effectiveGasPrice": "0x5f5e100",
      "from": "0x3f07367008158dc272dd8a38812e1460ef5a390a",
      "to": "0xacd862ef134d772b0ca53a97f53ccdd00abc05cf",
      "contractAddress": null
    },
    {
      "type": "0x0",
      "status": "0x1",
      "cumulativeGasUsed": "0xc6df",
      "logs": [
        {
          "address": "0x1504ca3c050c88ccca67696d642f634fc381fd03",
          "topics": [
            "0x2f8788117e7eff1d82e926ec794901d17c78024a50270940304540a733656f0d",
            "0x0000000000000000000000000000000000000000000000000000000000000000",
            "0x000000000000000000000000e56e7b7243c5820e1d59319937413c1462ed5b5c",
            "0x0000000000000000000000003f07367008158dc272dd8a38812e1460ef5a390a"
          ],
          "data": "0x",
          "blockHash": "0x144d60b7fdcfb09dc5ef3a27c0eea616d179a97e7ea0f96522de56442ad30111",
          "blockNumber": "0x33bf297",
          "blockTimestamp": "0x6a117104",
          "transactionHash": "0xddc3246f343c5b5e7746f8bb6387bdff75759f0a7c4f0aca5eefe100f91b3a35",
          "transactionIndex": "0x0",
          "logIndex": "0x0",
          "removed": false
        }
      ],
      "logsBloom": "0x00000004000000000000000000000000000000000000001000000008000000000000000000000000000000000000004000000000000000000000000000000000000000000000000000000000000000000000080000000000000000010000020000000000020000000000000000000840000000800000000000000000000000000000000000000000000000000000000000000000000000000000000000000000000000000000000000010000000000000000000000000000001000000000000000000000000000000000000000000000000000000000000100000000000020000000000000000000000000000000000000000000000000000000000000000000",
      "transactionHash": "0xddc3246f343c5b5e7746f8bb6387bdff75759f0a7c4f0aca5eefe100f91b3a35",
      "transactionIndex": "0x0",
      "blockHash": "0x144d60b7fdcfb09dc5ef3a27c0eea616d179a97e7ea0f96522de56442ad30111",
      "blockNumber": "0x33bf297",
      "gasUsed": "0xc6df",
      "effectiveGasPrice": "0x5f5e100",
      "from": "0x3f07367008158dc272dd8a38812e1460ef5a390a",
      "to": "0x1504ca3c050c88ccca67696d642f634fc381fd03",
      "contractAddress": null
    },
    {
      "type": "0x0",
      "status": "0x1",
      "cumulativeGasUsed": "0x60c4",
      "logs": [
        {
          "address": "0xbe8a9d22560a1b126554b70aaca2d763b2e70c4e",
          "topics": [
            "0xf6391f5c32d9c69d2a47ea670b442974b53935d1edc7fd64eb21e047a839171b",
            "0x0000000000000000000000000000000000000000000000000000000000000000",
            "0x0000000000000000000000003f07367008158dc272dd8a38812e1460ef5a390a",
            "0x0000000000000000000000003f07367008158dc272dd8a38812e1460ef5a390a"
          ],
          "data": "0x",
          "blockHash": "0xa5d3e1f715223b875e151d9f5446844aa338fafacd9d7445c43eff49edc61b37",
          "blockNumber": "0x33bf2d4",
          "blockTimestamp": "0x6a117140",
          "transactionHash": "0x8c1cf8889c17db0de0bf379b7ab9cde626b989e0858f48580ed650ddf5ba2fca",
          "transactionIndex": "0x0",
          "logIndex": "0x0",
          "removed": false
        }
      ],
      "logsBloom": "0x00000000000000000000000000000000008000000000000000000008000000000000000000000000000000000000000000200000000000000000000000000000000000000000000000000000000000000000000000000000000000000000020040000000020000000000000000000800000000000002000000000000000000000000000040000000000000000000000000000000000000000000000000000000000000000000000000010000000000000000000000000000000000000000000080000000000000000000000000000000000000000000000000000000000020000000000000000000000000000000000000000000000000000000000000000000",
      "transactionHash": "0x8c1cf8889c17db0de0bf379b7ab9cde626b989e0858f48580ed650ddf5ba2fca",
      "transactionIndex": "0x0",
      "blockHash": "0xa5d3e1f715223b875e151d9f5446844aa338fafacd9d7445c43eff49edc61b37",
      "blockNumber": "0x33bf2d4",
      "gasUsed": "0x60c4",
      "effectiveGasPrice": "0x5f5e100",
      "from": "0x3f07367008158dc272dd8a38812e1460ef5a390a",
      "to": "0xbe8a9d22560a1b126554b70aaca2d763b2e70c4e",
      "contractAddress": null
    },
    {
      "type": "0x0",
      "status": "0x1",
      "cumulativeGasUsed": "0x60c4",
      "logs": [
        {
          "address": "0x93669dac07321ff397cf5734ae8364ea24addf45",
          "topics": [
            "0xf6391f5c32d9c69d2a47ea670b442974b53935d1edc7fd64eb21e047a839171b",
            "0x0000000000000000000000000000000000000000000000000000000000000000",
            "0x0000000000000000000000003f07367008158dc272dd8a38812e1460ef5a390a",
            "0x0000000000000000000000003f07367008158dc272dd8a38812e1460ef5a390a"
          ],
          "data": "0x",
          "blockHash": "0xd651f3fdc363a717a25791a3cf9faac3c47c4801441e3e0dca3882518f5b9cee",
          "blockNumber": "0x33bf311",
          "blockTimestamp": "0x6a11717c",
          "transactionHash": "0xe9c389ea48f68b90fc3c38c2ff8c97983957d36683bb59dd5ee74b542f0d6674",
          "transactionIndex": "0x0",
          "logIndex": "0x0",
          "removed": false
        }
      ],
      "logsBloom": "0x00000000000000000000000000000000000000000000000000000008000000000010000000000000000000000000000000200000000000000000000000000000000000000000000000000000000000000000000000000000000000000000020040000000020000000000000000000800000000000000000000800000000000000000000040000000000000000000000000000000020000000000000000000000000000000000000000010000000000000000000000000000000000000000000000000000000000000000000000000000000000000000000000000000000020000000000000000000000000000000000000000000000000000000000000000000",
      "transactionHash": "0xe9c389ea48f68b90fc3c38c2ff8c97983957d36683bb59dd5ee74b542f0d6674",
      "transactionIndex": "0x0",
      "blockHash": "0xd651f3fdc363a717a25791a3cf9faac3c47c4801441e3e0dca3882518f5b9cee",
      "blockNumber": "0x33bf311",
      "gasUsed": "0x60c4",
      "effectiveGasPrice": "0x5f5e100",
      "from": "0x3f07367008158dc272dd8a38812e1460ef5a390a",
      "to": "0x93669dac07321ff397cf5734ae8364ea24addf45",
      "contractAddress": null
    },
    {
      "type": "0x0",
      "status": "0x1",
      "cumulativeGasUsed": "0x60c4",
      "logs": [
        {
          "address": "0xb62ba9d0a14ac9f9601891179b3da52be71ce052",
          "topics": [
            "0xf6391f5c32d9c69d2a47ea670b442974b53935d1edc7fd64eb21e047a839171b",
            "0x0000000000000000000000000000000000000000000000000000000000000000",
            "0x0000000000000000000000003f07367008158dc272dd8a38812e1460ef5a390a",
            "0x0000000000000000000000003f07367008158dc272dd8a38812e1460ef5a390a"
          ],
          "data": "0x",
          "blockHash": "0x33f7346fdf21c477954b3ef54f2785695f7c550b34038725eaf6d49c9aab6f23",
          "blockNumber": "0x33bf34e",
          "blockTimestamp": "0x6a1171b8",
          "transactionHash": "0x8d3b2e422825be3cfb81756771fd54d1b02841462aef1e2e5b6395a57fb63fc3",
          "transactionIndex": "0x0",
          "logIndex": "0x0",
          "removed": false
        }
      ],
      "logsBloom": "0x00000000000000000000000000000000000000000000000000000008000000000000000000000400000000000000000000200000000000000000000000000000040000000000000000000000000000000000000000000000000000000000020040000000020000000000000000000800000000000000000000000800000000000000000040000000000000000000000000000000000000000000000000000000000000000000000000010000000000000000000000000000000000000000000000000000000000000000000000000000000000000000000000000000000020000000000000000000000000000000000000000000000000000000000000000000",
      "transactionHash": "0x8d3b2e422825be3cfb81756771fd54d1b02841462aef1e2e5b6395a57fb63fc3",
      "transactionIndex": "0x0",
      "blockHash": "0x33f7346fdf21c477954b3ef54f2785695f7c550b34038725eaf6d49c9aab6f23",
      "blockNumber": "0x33bf34e",
      "gasUsed": "0x60c4",
      "effectiveGasPrice": "0x5f5e100",
      "from": "0x3f07367008158dc272dd8a38812e1460ef5a390a",
      "to": "0xb62ba9d0a14ac9f9601891179b3da52be71ce052",
      "contractAddress": null
    },
    {
      "type": "0x0",
      "status": "0x1",
      "cumulativeGasUsed": "0x60c4",
      "logs": [
        {
          "address": "0x8b15204d88a9bb155be6798522983a3b5f7d7cb0",
          "topics": [
            "0xf6391f5c32d9c69d2a47ea670b442974b53935d1edc7fd64eb21e047a839171b",
            "0x0000000000000000000000000000000000000000000000000000000000000000",
            "0x0000000000000000000000003f07367008158dc272dd8a38812e1460ef5a390a",
            "0x0000000000000000000000003f07367008158dc272dd8a38812e1460ef5a390a"
          ],
          "data": "0x",
          "blockHash": "0x635d8dd6032d4bc7e8d157e34967fa38ba700b746528cb342b466744eccd4013",
          "blockNumber": "0x33bf38b",
          "blockTimestamp": "0x6a1171f4",
          "transactionHash": "0x88afcf889f795da2ec644754da84b279c236feb2ce0c78b7d9698379bb9d3aac",
          "transactionIndex": "0x0",
          "logIndex": "0x0",
          "removed": false
        }
      ],
      "logsBloom": "0x00000000000000000000000000000000000000000000000000000008000000000000000000000000000000000000000000200000000004000000000000000000000000000000000000000000000000000000000000000000000000000000020040000000020000000000000000000800000000000000000000000000000000000000000040000000000000000000000000000000000000000000000000000000000000004000000000010000000000000000000000000000000000000000000000000000000000000000000000000000000000000000000000000000000020000000000000001000000000000000000000000000000000000000000000000000",
      "transactionHash": "0x88afcf889f795da2ec644754da84b279c236feb2ce0c78b7d9698379bb9d3aac",
      "transactionIndex": "0x0",
      "blockHash": "0x635d8dd6032d4bc7e8d157e34967fa38ba700b746528cb342b466744eccd4013",
      "blockNumber": "0x33bf38b",
      "gasUsed": "0x60c4",
      "effectiveGasPrice": "0x5f5e100",
      "from": "0x3f07367008158dc272dd8a38812e1460ef5a390a",
      "to": "0x8b15204d88a9bb155be6798522983a3b5f7d7cb0",
      "contractAddress": null
    },
    {
      "type": "0x0",
      "status": "0x1",
      "cumulativeGasUsed": "0x5fb9",
      "logs": [
        {
          "address": "0x4e2e7fd3c85c05697b24743e580b03abcd6d0c65",
          "topics": [
            "0xf6391f5c32d9c69d2a47ea670b442974b53935d1edc7fd64eb21e047a839171b",
            "0x0000000000000000000000000000000000000000000000000000000000000000",
            "0x0000000000000000000000003f07367008158dc272dd8a38812e1460ef5a390a",
            "0x0000000000000000000000003f07367008158dc272dd8a38812e1460ef5a390a"
          ],
          "data": "0x",
          "blockHash": "0xa5b74ee38d715ecfc01db4b077ad7758ba702731d8e0f785e68cc23a5606099e",
          "blockNumber": "0x33bf3c8",
          "blockTimestamp": "0x6a117230",
          "transactionHash": "0x0f5f5389bf047ee188163eb5a4cfb07e897d07519be54e007bee9318da170d4f",
          "transactionIndex": "0x0",
          "logIndex": "0x0",
          "removed": false
        }
      ],
      "logsBloom": "0x00000000000000000000000000000000000000000000000000000008000000000000000000000000000000000000000000200000000000000000000000000000000000000000000000000000000000000000000000000000000000000000020040000000020000000000000000000800000000000000000000100000000000000000000040000000000000000000000000000000000000000000000000000000000000000000000000010000000000000000001000000000000000000000080000000000000000000000000000000000000000000000000000000000000020000000000000000000000000000000000000000000000000000000000000000000",
      "transactionHash": "0x0f5f5389bf047ee188163eb5a4cfb07e897d07519be54e007bee9318da170d4f",
      "transactionIndex": "0x0",
      "blockHash": "0xa5b74ee38d715ecfc01db4b077ad7758ba702731d8e0f785e68cc23a5606099e",
      "blockNumber": "0x33bf3c8",
      "gasUsed": "0x5fb9",
      "effectiveGasPrice": "0x5f5e100",
      "from": "0x3f07367008158dc272dd8a38812e1460ef5a390a",
      "to": "0x4e2e7fd3c85c05697b24743e580b03abcd6d0c65",
      "contractAddress": null
    },
    {
      "type": "0x0",
      "status": "0x1",
      "cumulativeGasUsed": "0x6139",
      "logs": [
        {
          "address": "0x4e2e7fd3c85c05697b24743e580b03abcd6d0c65",
          "topics": [
            "0xf6391f5c32d9c69d2a47ea670b442974b53935d1edc7fd64eb21e047a839171b",
            "0x7935bd0ae54bc31f548c14dba4d37c5c64b3f8ca900cb468fb8abd54d5894f55",
            "0x0000000000000000000000003f07367008158dc272dd8a38812e1460ef5a390a",
            "0x0000000000000000000000003f07367008158dc272dd8a38812e1460ef5a390a"
          ],
          "data": "0x",
          "blockHash": "0xc3421694d21873421177d4b18e4a7ae7848b6451971077030f31039cce8ecd30",
          "blockNumber": "0x33bf405",
          "blockTimestamp": "0x6a11726c",
          "transactionHash": "0xbefdfd5e084e982a00b35ee8fd4803ad7cbe5221c1c13be0b917290cd5aeb2e8",
          "transactionIndex": "0x0",
          "logIndex": "0x0",
          "removed": false
        }
      ],
      "logsBloom": "0x00000000000000000000000000000000000000000000000000000008000000000000000000000000000000000000000000200000000000000000000000000000000000000000000000000000000000000000000000000000000000000000020040000000000000000000000000000000000000000000000000100000000000000000000040000000000000000000000000000000000000000000000000000000000000000000000000010000000000000000001000000000000000000000080000000000000000000000008000000000000000000000000000000000000000000000800000000000000000000000000400000000000000000000000000000000",
      "transactionHash": "0xbefdfd5e084e982a00b35ee8fd4803ad7cbe5221c1c13be0b917290cd5aeb2e8",
      "transactionIndex": "0x0",
      "blockHash": "0xc3421694d21873421177d4b18e4a7ae7848b6451971077030f31039cce8ecd30",
      "blockNumber": "0x33bf405",
      "gasUsed": "0x6139",
      "effectiveGasPrice": "0x5f5e100",
      "from": "0x3f07367008158dc272dd8a38812e1460ef5a390a",
      "to": "0x4e2e7fd3c85c05697b24743e580b03abcd6d0c65",
      "contractAddress": null
    },
    {
      "type": "0x0",
      "status": "0x1",
      "cumulativeGasUsed": "0x5fa3",
      "logs": [
        {
          "address": "0x15f6c4bf4000747e0fdd85b33998a36f5bdf5007",
          "topics": [
            "0xf6391f5c32d9c69d2a47ea670b442974b53935d1edc7fd64eb21e047a839171b",
            "0x0000000000000000000000000000000000000000000000000000000000000000",
            "0x0000000000000000000000003f07367008158dc272dd8a38812e1460ef5a390a",
            "0x0000000000000000000000003f07367008158dc272dd8a38812e1460ef5a390a"
          ],
          "data": "0x",
          "blockHash": "0x9dc86334347805f9c8a9b735c85ddca938aa58e67292af0a8e5dd994daff738a",
          "blockNumber": "0x33bf442",
          "blockTimestamp": "0x6a1172a8",
          "transactionHash": "0x5721e0e83d4333ac14efa4982fe1ace1e5e467e51c01e906306c0e35a8b17d20",
          "transactionIndex": "0x0",
          "logIndex": "0x0",
          "removed": false
        }
      ],
      "logsBloom": "0x00000000000000000000000000000000002000000000000000000008000000000000000000000004000000000000000000200000000000000000000000000000000000000000000000000000000000000000000000000000000000000000020040000000020000000000000000000800000000000000000000000000000000000000000040000000000000000000000000000080000000000000000000000000000000000000000000010000000000000000000000000000000000000000000000000000000000000000000000000000000000000000000000000000000020000000000000000000000000000000000000000000000000000000000000000000",
      "transactionHash": "0x5721e0e83d4333ac14efa4982fe1ace1e5e467e51c01e906306c0e35a8b17d20",
      "transactionIndex": "0x0",
      "blockHash": "0x9dc86334347805f9c8a9b735c85ddca938aa58e67292af0a8e5dd994daff738a",
      "blockNumber": "0x33bf442",
      "gasUsed": "0x5fa3",
      "effectiveGasPrice": "0x5f5e100",
      "from": "0x3f07367008158dc272dd8a38812e1460ef5a390a",
      "to": "0x15f6c4bf4000747e0fdd85b33998a36f5bdf5007",
      "contractAddress": null
    },
    {
      "type": "0x0",
      "status": "0x1",
      "cumulativeGasUsed": "0x6123",
      "logs": [
        {
          "address": "0x15f6c4bf4000747e0fdd85b33998a36f5bdf5007",
          "topics": [
            "0xf6391f5c32d9c69d2a47ea670b442974b53935d1edc7fd64eb21e047a839171b",
            "0x7935bd0ae54bc31f548c14dba4d37c5c64b3f8ca900cb468fb8abd54d5894f55",
            "0x0000000000000000000000003f07367008158dc272dd8a38812e1460ef5a390a",
            "0x0000000000000000000000003f07367008158dc272dd8a38812e1460ef5a390a"
          ],
          "data": "0x",
          "blockHash": "0x788987b6d531808d9baf2f89df21478e25248376962ae6f6f7bead8cb6a6c12b",
          "blockNumber": "0x33bf47f",
          "blockTimestamp": "0x6a1172e4",
          "transactionHash": "0xcb9129f7e66f704adc1cef42b1ceb7ff1333e2e55aeee82f1922fbaed0836c34",
          "transactionIndex": "0x0",
          "logIndex": "0x0",
          "removed": false
        }
      ],
      "logsBloom": "0x00000000000000000000000000000000002000000000000000000008000000000000000000000004000000000000000000200000000000000000000000000000000000000000000000000000000000000000000000000000000000000000020040000000000000000000000000000000000000000000000000000000000000000000000040000000000000000000000000000080000000000000000000000000000000000000000000010000000000000000000000000000000000000000000000000000000000000000008000000000000000000000000000000000000000000000800000000000000000000000000400000000000000000000000000000000",
      "transactionHash": "0xcb9129f7e66f704adc1cef42b1ceb7ff1333e2e55aeee82f1922fbaed0836c34",
      "transactionIndex": "0x0",
      "blockHash": "0x788987b6d531808d9baf2f89df21478e25248376962ae6f6f7bead8cb6a6c12b",
      "blockNumber": "0x33bf47f",
      "gasUsed": "0x6123",
      "effectiveGasPrice": "0x5f5e100",
      "from": "0x3f07367008158dc272dd8a38812e1460ef5a390a",
      "to": "0x15f6c4bf4000747e0fdd85b33998a36f5bdf5007",
      "contractAddress": null
    },
    {
      "type": "0x0",
      "status": "0x1",
      "cumulativeGasUsed": "0x6123",
      "logs": [
        {
          "address": "0x15f6c4bf4000747e0fdd85b33998a36f5bdf5007",
          "topics": [
            "0xf6391f5c32d9c69d2a47ea670b442974b53935d1edc7fd64eb21e047a839171b",
            "0x9957de8c5d95da580823ca52e598d0c0d2818cb1f8fd9773a5166d2a45d82b05",
            "0x0000000000000000000000003f07367008158dc272dd8a38812e1460ef5a390a",
            "0x0000000000000000000000003f07367008158dc272dd8a38812e1460ef5a390a"
          ],
          "data": "0x",
          "blockHash": "0x47c10553d248ba15c3e2f52ffa4a73589d19246ba291c535a0b62d32f9ff14bc",
          "blockNumber": "0x33bf4bc",
          "blockTimestamp": "0x6a117320",
          "transactionHash": "0x65252eef2b7313ea056fb39b6993102ab95f3486be0b268c062d78217b53a6fd",
          "transactionIndex": "0x0",
          "logIndex": "0x0",
          "removed": false
        }
      ],
      "logsBloom": "0x00000000000000000000000400000000002000000000000000000008000000000000000000000004000000000000000000200000000000000000000000000000000000000000000002000000000000000000000000000000000000000000020040000000000000000000000000000000000000000000000000000000000000000000000040000000000000000000000000000080000000000000000000000000000000000000000000010000000000000000000000000000000000000000000000000000000000000000000000000000000000000000000000000000000000000000000000000000000000000000000000000000000000000000000000000020",
      "transactionHash": "0x65252eef2b7313ea056fb39b6993102ab95f3486be0b268c062d78217b53a6fd",
      "transactionIndex": "0x0",
      "blockHash": "0x47c10553d248ba15c3e2f52ffa4a73589d19246ba291c535a0b62d32f9ff14bc",
      "blockNumber": "0x33bf4bc",
      "gasUsed": "0x6123",
      "effectiveGasPrice": "0x5f5e100",
      "from": "0x3f07367008158dc272dd8a38812e1460ef5a390a",
      "to": "0x15f6c4bf4000747e0fdd85b33998a36f5bdf5007",
      "contractAddress": null
    },
    {
      "type": "0x0",
      "status": "0x1",
      "cumulativeGasUsed": "0x44e9f",
      "logs": [
        {
          "address": "0x8fb48f84aa69e89e0360e6d2d26c447aa57dcf73",
          "topics": [
            "0xf6391f5c32d9c69d2a47ea670b442974b53935d1edc7fd64eb21e047a839171b",
            "0x0000000000000000000000000000000000000000000000000000000000000000",
            "0x0000000000000000000000003f07367008158dc272dd8a38812e1460ef5a390a",
            "0x0000000000000000000000003f07367008158dc272dd8a38812e1460ef5a390a"
          ],
          "data": "0x",
          "blockHash": "0x4dab7fc58e89be9f53dbfd76a3e2c3c63a6c7055e6b848ca52544d236480390f",
          "blockNumber": "0x33bf4f9",
          "blockTimestamp": "0x6a11735c",
          "transactionHash": "0x0d67c9c588625061f512524e0fb05b323c56f6d5906b198d9297a38adbbd8381",
          "transactionIndex": "0x3",
          "logIndex": "0x9",
          "removed": false
        }
      ],
      "logsBloom": "0x00000000000000000000000000000000000000000000000000000008000000000000000000000000000000000000000000200000000000000000000000000000000000000000000000000000000000000000000000000000000000000000020040000000020000000000000000000800000000000000000000000000000000000000000040000000000000000000000000000000000000000000000000000000000000000000000000010000000000000000000000000000000400000000000000000000000000000000000000000000000000000000000000000000024020000000000000000000000000000000000000000000000000000000000000000000",
      "transactionHash": "0x0d67c9c588625061f512524e0fb05b323c56f6d5906b198d9297a38adbbd8381",
      "transactionIndex": "0x3",
      "blockHash": "0x4dab7fc58e89be9f53dbfd76a3e2c3c63a6c7055e6b848ca52544d236480390f",
      "blockNumber": "0x33bf4f9",
      "gasUsed": "0x5fcf",
      "effectiveGasPrice": "0x5f5e100",
      "from": "0x3f07367008158dc272dd8a38812e1460ef5a390a",
      "to": "0x8fb48f84aa69e89e0360e6d2d26c447aa57dcf73",
      "contractAddress": null
    },
    {
      "type": "0x0",
      "status": "0x1",
      "cumulativeGasUsed": "0x614f",
      "logs": [
        {
          "address": "0x8fb48f84aa69e89e0360e6d2d26c447aa57dcf73",
          "topics": [
            "0xf6391f5c32d9c69d2a47ea670b442974b53935d1edc7fd64eb21e047a839171b",
            "0x7935bd0ae54bc31f548c14dba4d37c5c64b3f8ca900cb468fb8abd54d5894f55",
            "0x0000000000000000000000003f07367008158dc272dd8a38812e1460ef5a390a",
            "0x0000000000000000000000003f07367008158dc272dd8a38812e1460ef5a390a"
          ],
          "data": "0x",
          "blockHash": "0x53305eb26e4e3d56d2bc1d973d0fe74768e56f97c40bd49f9c6b6a56720f5513",
          "blockNumber": "0x33bf536",
          "blockTimestamp": "0x6a117398",
          "transactionHash": "0xdaaa0953a54a16d225b1e19733e90f535b8ff762afbf023b02e00fd374562b1f",
          "transactionIndex": "0x0",
          "logIndex": "0x0",
          "removed": false
        }
      ],
      "logsBloom": "0x00000000000000000000000000000000000000000000000000000008000000000000000000000000000000000000000000200000000000000000000000000000000000000000000000000000000000000000000000000000000000000000020040000000000000000000000000000000000000000000000000000000000000000000000040000000000000000000000000000000000000000000000000000000000000000000000000010000000000000000000000000000000400000000000000000000000000000000008000000000000000000000000000000000024000000000800000000000000000000000000400000000000000000000000000000000",
      "transactionHash": "0xdaaa0953a54a16d225b1e19733e90f535b8ff762afbf023b02e00fd374562b1f",
      "transactionIndex": "0x0",
      "blockHash": "0x53305eb26e4e3d56d2bc1d973d0fe74768e56f97c40bd49f9c6b6a56720f5513",
      "blockNumber": "0x33bf536",
      "gasUsed": "0x614f",
      "effectiveGasPrice": "0x5f5e100",
      "from": "0x3f07367008158dc272dd8a38812e1460ef5a390a",
      "to": "0x8fb48f84aa69e89e0360e6d2d26c447aa57dcf73",
      "contractAddress": null
    },
    {
      "type": "0x0",
      "status": "0x1",
      "cumulativeGasUsed": "0x5fcf",
      "logs": [
        {
          "address": "0x403e8c79653b1cb7a5c0eaa313ec0c7d0cac7e2c",
          "topics": [
            "0xf6391f5c32d9c69d2a47ea670b442974b53935d1edc7fd64eb21e047a839171b",
            "0x0000000000000000000000000000000000000000000000000000000000000000",
            "0x0000000000000000000000003f07367008158dc272dd8a38812e1460ef5a390a",
            "0x0000000000000000000000003f07367008158dc272dd8a38812e1460ef5a390a"
          ],
          "data": "0x",
          "blockHash": "0x229e2b88c8acd90d7d97422c813eca4379ff6c93941b348729529f8350a75f36",
          "blockNumber": "0x33bf573",
          "blockTimestamp": "0x6a1173d4",
          "transactionHash": "0x9137294cbc720a5dcd58bde3e0be27cfdd9e162120498345182dcc6ab46b974b",
          "transactionIndex": "0x0",
          "logIndex": "0x0",
          "removed": false
        }
      ],
      "logsBloom": "0x00000000000000000000000200000000000000000000000000000008000000000000000000000000000000000000000000200000000000000000000000000000000000000000000000000000000000000000000000000000000000000000020040000000020000000000000000000800000000000000000000000000000000000000000040000040000000000000000000000000000000000000100000000000000000000000000000010000000000000000000000000000000000000000000000000000000000000000000000000000000000000000000000000000000020000000000000000000000000000000000000000000000000000000000000000000",
      "transactionHash": "0x9137294cbc720a5dcd58bde3e0be27cfdd9e162120498345182dcc6ab46b974b",
      "transactionIndex": "0x0",
      "blockHash": "0x229e2b88c8acd90d7d97422c813eca4379ff6c93941b348729529f8350a75f36",
      "blockNumber": "0x33bf573",
      "gasUsed": "0x5fcf",
      "effectiveGasPrice": "0x5f5e100",
      "from": "0x3f07367008158dc272dd8a38812e1460ef5a390a",
      "to": "0x403e8c79653b1cb7a5c0eaa313ec0c7d0cac7e2c",
      "contractAddress": null
    },
    {
      "type": "0x0",
      "status": "0x1",
      "cumulativeGasUsed": "0x614f",
      "logs": [
        {
          "address": "0x403e8c79653b1cb7a5c0eaa313ec0c7d0cac7e2c",
          "topics": [
            "0xf6391f5c32d9c69d2a47ea670b442974b53935d1edc7fd64eb21e047a839171b",
            "0x7935bd0ae54bc31f548c14dba4d37c5c64b3f8ca900cb468fb8abd54d5894f55",
            "0x0000000000000000000000003f07367008158dc272dd8a38812e1460ef5a390a",
            "0x0000000000000000000000003f07367008158dc272dd8a38812e1460ef5a390a"
          ],
          "data": "0x",
          "blockHash": "0xb8a03146e704060f8a00793925d7b7d04e1affed916cca3d1ecd6d1cbb8ece74",
          "blockNumber": "0x33bf5b0",
          "blockTimestamp": "0x6a117410",
          "transactionHash": "0xc6584b207aa49486a127db3f94a8f530cf2c151271cd01d1ea352b301c4b933b",
          "transactionIndex": "0x0",
          "logIndex": "0x0",
          "removed": false
        }
      ],
      "logsBloom": "0x00000000000000000000000200000000000000000000000000000008000000000000000000000000000000000000000000200000000000000000000000000000000000000000000000000000000000000000000000000000000000000000020040000000000000000000000000000000000000000000000000000000000000000000000040000040000000000000000000000000000000000000100000000000000000000000000000010000000000000000000000000000000000000000000000000000000000000000008000000000000000000000000000000000000000000000800000000000000000000000000400000000000000000000000000000000",
      "transactionHash": "0xc6584b207aa49486a127db3f94a8f530cf2c151271cd01d1ea352b301c4b933b",
      "transactionIndex": "0x0",
      "blockHash": "0xb8a03146e704060f8a00793925d7b7d04e1affed916cca3d1ecd6d1cbb8ece74",
      "blockNumber": "0x33bf5b0",
      "gasUsed": "0x614f",
      "effectiveGasPrice": "0x5f5e100",
      "from": "0x3f07367008158dc272dd8a38812e1460ef5a390a",
      "to": "0x403e8c79653b1cb7a5c0eaa313ec0c7d0cac7e2c",
      "contractAddress": null
    },
    {
      "type": "0x0",
      "status": "0x1",
      "cumulativeGasUsed": "0x5fcf",
      "logs": [
        {
          "address": "0xc69f8a8014b4d17ee2e7457109ff1db33c0c7d7f",
          "topics": [
            "0xf6391f5c32d9c69d2a47ea670b442974b53935d1edc7fd64eb21e047a839171b",
            "0x0000000000000000000000000000000000000000000000000000000000000000",
            "0x0000000000000000000000003f07367008158dc272dd8a38812e1460ef5a390a",
            "0x0000000000000000000000003f07367008158dc272dd8a38812e1460ef5a390a"
          ],
          "data": "0x",
          "blockHash": "0xf3a8d6719a9df9f752b8b369dfd97ba8ae172fa2aa1d49736a141cb24fc0bc16",
          "blockNumber": "0x33bf5ed",
          "blockTimestamp": "0x6a11744c",
          "transactionHash": "0x1b3a0895b486913d9b86b5a72b77c20c77ba9fa63d22233301dffea00c4f7bfb",
          "transactionIndex": "0x0",
          "logIndex": "0x0",
          "removed": false
        }
      ],
      "logsBloom": "0x00000000000000000000000000000000000000000000000000000008000000000000000000080000000000000000000000a00000000000000000000000000000000000000000000000000000000000000000000000000000000000000000020040000000020000000000000000000800000000000000000000000000000000000000000040000000000000000000000000000000000000000000000000000000000000000000100000010000000000000000000000000000000000000000000000000000000000000000000000000000000000000000000000000000000020000000000000000000000000000000000000000000000000000000000000000000",
      "transactionHash": "0x1b3a0895b486913d9b86b5a72b77c20c77ba9fa63d22233301dffea00c4f7bfb",
      "transactionIndex": "0x0",
      "blockHash": "0xf3a8d6719a9df9f752b8b369dfd97ba8ae172fa2aa1d49736a141cb24fc0bc16",
      "blockNumber": "0x33bf5ed",
      "gasUsed": "0x5fcf",
      "effectiveGasPrice": "0x5f5e100",
      "from": "0x3f07367008158dc272dd8a38812e1460ef5a390a",
      "to": "0xc69f8a8014b4d17ee2e7457109ff1db33c0c7d7f",
      "contractAddress": null
    },
    {
      "type": "0x0",
      "status": "0x1",
      "cumulativeGasUsed": "0x614f",
      "logs": [
        {
          "address": "0xc69f8a8014b4d17ee2e7457109ff1db33c0c7d7f",
          "topics": [
            "0xf6391f5c32d9c69d2a47ea670b442974b53935d1edc7fd64eb21e047a839171b",
            "0x7935bd0ae54bc31f548c14dba4d37c5c64b3f8ca900cb468fb8abd54d5894f55",
            "0x0000000000000000000000003f07367008158dc272dd8a38812e1460ef5a390a",
            "0x0000000000000000000000003f07367008158dc272dd8a38812e1460ef5a390a"
          ],
          "data": "0x",
          "blockHash": "0x16169284671d87605aeb9f3a3fcfc84ef97e077ec96de768f06218547bf8f276",
          "blockNumber": "0x33bf62a",
          "blockTimestamp": "0x6a117488",
          "transactionHash": "0x8e4080c21768c5052430ac695d57d12bf8611f5736cec9c38ec94512ce35adad",
          "transactionIndex": "0x0",
          "logIndex": "0x0",
          "removed": false
        }
      ],
      "logsBloom": "0x00000000000000000000000000000000000000000000000000000008000000000000000000080000000000000000000000a00000000000000000000000000000000000000000000000000000000000000000000000000000000000000000020040000000000000000000000000000000000000000000000000000000000000000000000040000000000000000000000000000000000000000000000000000000000000000000100000010000000000000000000000000000000000000000000000000000000000000000008000000000000000000000000000000000000000000000800000000000000000000000000400000000000000000000000000000000",
      "transactionHash": "0x8e4080c21768c5052430ac695d57d12bf8611f5736cec9c38ec94512ce35adad",
      "transactionIndex": "0x0",
      "blockHash": "0x16169284671d87605aeb9f3a3fcfc84ef97e077ec96de768f06218547bf8f276",
      "blockNumber": "0x33bf62a",
      "gasUsed": "0x614f",
      "effectiveGasPrice": "0x5f5e100",
      "from": "0x3f07367008158dc272dd8a38812e1460ef5a390a",
      "to": "0xc69f8a8014b4d17ee2e7457109ff1db33c0c7d7f",
      "contractAddress": null
    },
    {
      "type": "0x0",
      "status": "0x1",
      "cumulativeGasUsed": "0x5fcf",
      "logs": [
        {
          "address": "0xe990bfbc5c1e5779cb54cb95150edbbb2c2800d0",
          "topics": [
            "0xf6391f5c32d9c69d2a47ea670b442974b53935d1edc7fd64eb21e047a839171b",
            "0x0000000000000000000000000000000000000000000000000000000000000000",
            "0x0000000000000000000000003f07367008158dc272dd8a38812e1460ef5a390a",
            "0x0000000000000000000000003f07367008158dc272dd8a38812e1460ef5a390a"
          ],
          "data": "0x",
          "blockHash": "0xb7cf2d7853c3983d993cbf1e4c9e474395a54d6134269573ac74e170544f2dc6",
          "blockNumber": "0x33bf667",
          "blockTimestamp": "0x6a1174c4",
          "transactionHash": "0xc33cce222aeae0f09bd8a3460819bd8a0cda63bb45721ca70d9c7d4d93d80379",
          "transactionIndex": "0x0",
          "logIndex": "0x0",
          "removed": false
        }
      ],
      "logsBloom": "0x00000000000000000000000000000000000000000000000000000008000000000000000000000000000000000000000000200000000000000000000000000000000000000000000000000000000000000000000000000000000000000000020040000000020000000000000000000800000000000000000000000000000000000000000040000000000000000000000000000000000000000000000000000008000000000000000000010000000000000000000000000000000000000000000000000000000000000000000000000000000000000000000000000002000020000000000000000000000000000000000000000000000000000004000000000000",
      "transactionHash": "0xc33cce222aeae0f09bd8a3460819bd8a0cda63bb45721ca70d9c7d4d93d80379",
      "transactionIndex": "0x0",
      "blockHash": "0xb7cf2d7853c3983d993cbf1e4c9e474395a54d6134269573ac74e170544f2dc6",
      "blockNumber": "0x33bf667",
      "gasUsed": "0x5fcf",
      "effectiveGasPrice": "0x5f5e100",
      "from": "0x3f07367008158dc272dd8a38812e1460ef5a390a",
      "to": "0xe990bfbc5c1e5779cb54cb95150edbbb2c2800d0",
      "contractAddress": null
    },
    {
      "type": "0x0",
      "status": "0x1",
      "cumulativeGasUsed": "0x614f",
      "logs": [
        {
          "address": "0xe990bfbc5c1e5779cb54cb95150edbbb2c2800d0",
          "topics": [
            "0xf6391f5c32d9c69d2a47ea670b442974b53935d1edc7fd64eb21e047a839171b",
            "0x7935bd0ae54bc31f548c14dba4d37c5c64b3f8ca900cb468fb8abd54d5894f55",
            "0x0000000000000000000000003f07367008158dc272dd8a38812e1460ef5a390a",
            "0x0000000000000000000000003f07367008158dc272dd8a38812e1460ef5a390a"
          ],
          "data": "0x",
          "blockHash": "0x76b6d573ea0a10a563cadb441d413c05e62abfb67b0236a6a1d8e9bdcba9597e",
          "blockNumber": "0x33bf6a4",
          "blockTimestamp": "0x6a117500",
          "transactionHash": "0x4095f9c65643d07b24b6eabaf7fb73f9e4fdfba127944c7a34302df3783a4b30",
          "transactionIndex": "0x0",
          "logIndex": "0x0",
          "removed": false
        }
      ],
      "logsBloom": "0x00000000000000000000000000000000000000000000000000000008000000000000000000000000000000000000000000200000000000000000000000000000000000000000000000000000000000000000000000000000000000000000020040000000000000000000000000000000000000000000000000000000000000000000000040000000000000000000000000000000000000000000000000000008000000000000000000010000000000000000000000000000000000000000000000000000000000000000008000000000000000000000000000000002000000000000800000000000000000000000000400000000000000000004000000000000",
      "transactionHash": "0x4095f9c65643d07b24b6eabaf7fb73f9e4fdfba127944c7a34302df3783a4b30",
      "transactionIndex": "0x0",
      "blockHash": "0x76b6d573ea0a10a563cadb441d413c05e62abfb67b0236a6a1d8e9bdcba9597e",
      "blockNumber": "0x33bf6a4",
      "gasUsed": "0x614f",
      "effectiveGasPrice": "0x5f5e100",
      "from": "0x3f07367008158dc272dd8a38812e1460ef5a390a",
      "to": "0xe990bfbc5c1e5779cb54cb95150edbbb2c2800d0",
      "contractAddress": null
    },
    {
      "type": "0x0",
      "status": "0x1",
      "cumulativeGasUsed": "0x602c",
      "logs": [
        {
          "address": "0xacd862ef134d772b0ca53a97f53ccdd00abc05cf",
          "topics": [
            "0xf6391f5c32d9c69d2a47ea670b442974b53935d1edc7fd64eb21e047a839171b",
            "0x0000000000000000000000000000000000000000000000000000000000000000",
            "0x0000000000000000000000003f07367008158dc272dd8a38812e1460ef5a390a",
            "0x0000000000000000000000003f07367008158dc272dd8a38812e1460ef5a390a"
          ],
          "data": "0x",
          "blockHash": "0x6037c6ff87f9931ab87fe957e4b5344d9b223b5fecad43675ce970436ca57dfe",
          "blockNumber": "0x33bf6e1",
          "blockTimestamp": "0x6a11753c",
          "transactionHash": "0x40dfa72bf09c60a76f8a887cac7e7c94ffc6aada117d9bd05e1de71a5505d516",
          "transactionIndex": "0x0",
          "logIndex": "0x0",
          "removed": false
        }
      ],
      "logsBloom": "0x00000000000000000000000000000000000000000000000000000008000000000000001000000000000000000000000000200000000000000000000000000000000000000000000000000000000000000000000000000000000000000000020040000000020000000000000000000800000000000000000000000000000000000000000840000000000000000000000000000000000000000000000000000000000000000000000000010000000000400000000000000000000000000000000000000000000000000000000000000000000000000000000000000000000020000000000000000000000000000000000000000000000000000000000000000000",
      "transactionHash": "0x40dfa72bf09c60a76f8a887cac7e7c94ffc6aada117d9bd05e1de71a5505d516",
      "transactionIndex": "0x0",
      "blockHash": "0x6037c6ff87f9931ab87fe957e4b5344d9b223b5fecad43675ce970436ca57dfe",
      "blockNumber": "0x33bf6e1",
      "gasUsed": "0x602c",
      "effectiveGasPrice": "0x5f5e100",
      "from": "0x3f07367008158dc272dd8a38812e1460ef5a390a",
      "to": "0xacd862ef134d772b0ca53a97f53ccdd00abc05cf",
      "contractAddress": null
    },
    {
      "type": "0x0",
      "status": "0x1",
      "cumulativeGasUsed": "0x61ac",
      "logs": [
        {
          "address": "0xacd862ef134d772b0ca53a97f53ccdd00abc05cf",
          "topics": [
            "0xf6391f5c32d9c69d2a47ea670b442974b53935d1edc7fd64eb21e047a839171b",
            "0xfc8737ab85eb45125971625a9ebdb75cc78e01d5c1fa80c4c6e5203f47bc4fab",
            "0x0000000000000000000000003f07367008158dc272dd8a38812e1460ef5a390a",
            "0x0000000000000000000000003f07367008158dc272dd8a38812e1460ef5a390a"
          ],
          "data": "0x",
          "blockHash": "0xb8999347ca3aefe6d78cd0a58931c6f261a8ea6766123b3520178a33d05308b9",
          "blockNumber": "0x33bf71e",
          "blockTimestamp": "0x6a117578",
          "transactionHash": "0xdadd8c30b5b7d89090f1a790c81c8f5519b24c6194b34019203018aba09317a8",
          "transactionIndex": "0x0",
          "logIndex": "0x0",
          "removed": false
        }
      ],
      "logsBloom": "0x00000000000000000000000000000000000000000000000000000008000000000000001000000000000000000000000000200000000000000000000000000000000000100000000000000000000000000000000000000000000000000000020040000000000000000000000000000000000000000000000000000000000000000200000840000000000000000000000000000000000000000000000000000000000000000000000000010000000000400000000000000000000000000000080000000000000000000000000000000000000000000000000000000000000000000000000000000000000000000000000000000000000000000000000000000000",
      "transactionHash": "0xdadd8c30b5b7d89090f1a790c81c8f5519b24c6194b34019203018aba09317a8",
      "transactionIndex": "0x0",
      "blockHash": "0xb8999347ca3aefe6d78cd0a58931c6f261a8ea6766123b3520178a33d05308b9",
      "blockNumber": "0x33bf71e",
      "gasUsed": "0x61ac",
      "effectiveGasPrice": "0x5f5e100",
      "from": "0x3f07367008158dc272dd8a38812e1460ef5a390a",
      "to": "0xacd862ef134d772b0ca53a97f53ccdd00abc05cf",
      "contractAddress": null
    },
    {
      "type": "0x0",
      "status": "0x1",
      "cumulativeGasUsed": "0x61ac",
      "logs": [
        {
          "address": "0xacd862ef134d772b0ca53a97f53ccdd00abc05cf",
          "topics": [
            "0xf6391f5c32d9c69d2a47ea670b442974b53935d1edc7fd64eb21e047a839171b",
            "0x55435dd261a4b9b3364963f7738a7a662ad9c84396d64be3365284bb7f0a5041",
            "0x0000000000000000000000003f07367008158dc272dd8a38812e1460ef5a390a",
            "0x0000000000000000000000003f07367008158dc272dd8a38812e1460ef5a390a"
          ],
          "data": "0x",
          "blockHash": "0x9f6dee385c29bd719fb55f9d61748f8faca5735a860d519bae055c771995c909",
          "blockNumber": "0x33bf75b",
          "blockTimestamp": "0x6a1175b4",
          "transactionHash": "0x7cc8ca0855704602f6143fb0998b93d6544d999ff5850589c68d675e1ff526c3",
          "transactionIndex": "0x0",
          "logIndex": "0x0",
          "removed": false
        }
      ],
      "logsBloom": "0x00000000000000000000000000000000000000000000000000000008000000000000001000000000000000000000000000200000000000000000000000000000000000000000000000000000000000000000000000000000000000000000020040000000000000000000000000000000000000000000000000000000000000000000000840000000000000000000000000000000000000000000000000004000000000000000000000010000000000400000000000000000000000000000000000000000020000000000000000000000000000000000000000000000000000000000000000000000000000000000000000000000000000000000000000040000",
      "transactionHash": "0x7cc8ca0855704602f6143fb0998b93d6544d999ff5850589c68d675e1ff526c3",
      "transactionIndex": "0x0",
      "blockHash": "0x9f6dee385c29bd719fb55f9d61748f8faca5735a860d519bae055c771995c909",
      "blockNumber": "0x33bf75b",
      "gasUsed": "0x61ac",
      "effectiveGasPrice": "0x5f5e100",
      "from": "0x3f07367008158dc272dd8a38812e1460ef5a390a",
      "to": "0xacd862ef134d772b0ca53a97f53ccdd00abc05cf",
      "contractAddress": null
    },
    {
      "type": "0x0",
      "status": "0x1",
      "cumulativeGasUsed": "0x601f",
      "logs": [
        {
          "address": "0x1504ca3c050c88ccca67696d642f634fc381fd03",
          "topics": [
            "0xf6391f5c32d9c69d2a47ea670b442974b53935d1edc7fd64eb21e047a839171b",
            "0x0000000000000000000000000000000000000000000000000000000000000000",
            "0x0000000000000000000000003f07367008158dc272dd8a38812e1460ef5a390a",
            "0x0000000000000000000000003f07367008158dc272dd8a38812e1460ef5a390a"
          ],
          "data": "0x",
          "blockHash": "0x8053afcedd58b598cc62a69cabf0602e82e6bbb9a8d3fdfdfba4ce287723f141",
          "blockNumber": "0x33bf798",
          "blockTimestamp": "0x6a1175f0",
          "transactionHash": "0xa022287d2fe44dcf3e96c02d367e01684fef1afc726f29715e3629974ded0031",
          "transactionIndex": "0x0",
          "logIndex": "0x0",
          "removed": false
        }
      ],
      "logsBloom": "0x00000000000000000000000000000000000000000000001000000008000000000000000000000000000000000000004000200000000000000000000000000000000000000000000000000000000000000000080000000000000000000000020040000000020000000000000000000800000000000000000000000000000000000000000040000000000000000000000000000000000000000000000000000000000000000000000000010000000000000000000000000000000000000000000000000000000000000000000000000000000000000000000000000000000020000000000000000000000000000000000000000000000000000000000000000000",
      "transactionHash": "0xa022287d2fe44dcf3e96c02d367e01684fef1afc726f29715e3629974ded0031",
      "transactionIndex": "0x0",
      "blockHash": "0x8053afcedd58b598cc62a69cabf0602e82e6bbb9a8d3fdfdfba4ce287723f141",
      "blockNumber": "0x33bf798",
      "gasUsed": "0x601f",
      "effectiveGasPrice": "0x5f5e100",
      "from": "0x3f07367008158dc272dd8a38812e1460ef5a390a",
      "to": "0x1504ca3c050c88ccca67696d642f634fc381fd03",
      "contractAddress": null
    }
  ],
  "libraries": [],
  "pending": [],
  "returns": {},
  "timestamp": 1779529204226,
  "chain": 998,
  "commit": "fd4ac02"
}