{
  "transactions": [
    {
      "hash": "0x0dea4a36eea3cb021e5818b45b22ed2aadf89d17e06863378992c5cf714e03dd",
      "transactionType": "CREATE",
      "contractName": "HyperCoreAdapter",
      "contractAddress": "0xdad9175f6d2da1709ba3f73711e69022538d21a7",
      "function": null,
      "arguments": [
        "0x21ba1F7C028B1ADc78e75Ac187B08b1BDd567118"
      ],
      "transaction": {
        "from": "0x3f07367008158dc272dd8a38812e1460ef5a390a",
        "gas": "0x146f46",
        "value": "0x0",
        "input": "0x60806040523461023557604051601f6112b438819003918201601f19168301916001600160401b038311848410176102395780849260209460405283398101031261023557516001600160a01b03811680820361023557156101f0578061006861006e9261026c565b506102e2565b5061007761024d565b5f8152602081016006815260408201600181525f8052600160205263ffffffff60405f2093511665ff000000000064ff000000008554945160201b169251151560281b169265ffffffffffff191617171790556100d261024d565b600181526020810160068152604082016001815260015f52600160205263ffffffff60405f2093511665ff000000000064ff000000008554945160201b169251151560281b169265ffffffffffff1916171717905561012f61024d565b600281526020810160068152604082016001815260025f52600160205263ffffffff60405f2093511665ff000000000064ff000000008554945160201b169251151560281b169265ffffffffffff1916171717905561018c61024d565b600381526020810160058152604082016001815260035f52600160205263ffffffff60405f2093511665ff000000000064ff000000008554945160201b169251151560281b169265ffffffffffff19161717179055604051610ede90816103768239f35b60405162461bcd60e51b815260206004820152601f60248201527f4879706572436f7265416461707465723a207a65726f20676f7665726e6f72006044820152606490fd5b5f80fd5b634e487b7160e01b5f52604160045260245ffd5b60405190606082016001600160401b0381118382101761023957604052565b6001600160a01b0381165f9081525f5160206112945f395f51905f52602052604090205460ff166102dd576001600160a01b03165f8181525f5160206112945f395f51905f5260205260408120805460ff191660011790553391905f5160206112545f395f51905f528180a4600190565b505f90565b6001600160a01b0381165f9081525f5160206112745f395f51905f52602052604090205460ff166102dd576001600160a01b03165f8181525f5160206112745f395f51905f5260205260408120805460ff191660011790553391907f7935bd0ae54bc31f548c14dba4d37c5c64b3f8ca900cb468fb8abd54d5894f55905f5160206112545f395f51905f529080a460019056fe60806040526004361015610011575f80fd5b5f3560e01c806301ffc9a71461011f5780630d85a9a81461011a578063248a9ca31461011557806327c37b3d146101105780632f2ff15d1461010b5780633326075a1461010657806336568abe146101015780634f39f8d6146100f257806391d14854146100fc578063a217fddf146100f7578063b961b604146100f2578063c8a37f64146100ed578063ccc57490146100e8578063d547741f146100e3578063e223a5d3146100de578063e89393a3146100d95763ea2d2a44146100d4575f80fd5b610761565b610571565b610509565b6104da565b6104a0565b61037c565b610307565b610362565b610322565b6102d1565b6102b6565b610280565b61022c565b6101fa565b6101a9565b346101755760203660031901126101755760043563ffffffff60e01b811680910361017557602090637965db0b60e01b8114908115610164575b506040519015158152f35b6301ffc9a760e01b1490505f610159565b5f80fd5b6004359060ff8216820361017557565b6044359060ff8216820361017557565b60a4359060ff8216820361017557565b346101755760203660031901126101755760ff6101c4610179565b165f526001602052606060405f205460ff6040519163ffffffff81168352818160201c16602084015260281c1615156040820152f35b346101755760203660031901126101755760206102246004355f525f602052600160405f20015490565b604051908152f35b34610175575f3660031901126101755760206040517333333333333333333333333333333333333333338152f35b604090600319011261017557600435906024356001600160a01b03811681036101755790565b34610175576102b46102913661025a565b906102af6102aa825f525f602052600160405f20015490565b610852565b61088a565b005b34610175575f36600319011261017557602060405160028152f35b34610175576102df3661025a565b336001600160a01b038216036102f8576102b491610916565b63334bd91960e11b5f5260045ffd5b34610175575f36600319011261017557602060405160018152f35b3461017557602060ff6103566103373661025a565b905f525f845260405f209060018060a01b03165f5260205260405f2090565b54166040519015158152f35b34610175575f3660031901126101755760206040515f8152f35b3461017557606036600319011261017557610395610179565b60243563ffffffff81168103610175576103ad610189565b6103b56107e3565b600360ff84161161044d576102b4926103ec610404926103e26103d6610790565b63ffffffff9096168652565b60ff166020850152565b6001604084015260ff165f52600160205260405f2090565b8151815460208085015160409095015165ff000000000090151560281b1664ff000000009590911b9490941663ffffffff90921665ffffffffffff199091161717919091179055565b60405162461bcd60e51b815260206004820152602560248201527f4879706572436f7265416461707465723a20696e76616c6964206c6f63616c20604482015264185cdcd95d60da1b6064820152608490fd5b34610175575f3660031901126101755760206040517f7935bd0ae54bc31f548c14dba4d37c5c64b3f8ca900cb468fb8abd54d5894f558152f35b34610175576102b46104eb3661025a565b906105046102aa825f525f602052600160405f20015490565b610916565b34610175575f3660031901126101755760206040516108008152f35b60243590811515820361017557565b60843590811515820361017557565b6044359067ffffffffffffffff8216820361017557565b6064359067ffffffffffffffff8216820361017557565b346101755760e03660031901126101755761058a610179565b610592610525565b61059a610543565b916105a361055a565b916105ac610534565b936105b5610199565b60c435946001600160801b0386168603610175576105e66105e18660ff165f52600160205260405f2090565b6107b5565b6105fa6105f66040830151151590565b1590565b61074b5767ffffffffffffffff84161561072e5767ffffffffffffffff821615610711578683898461069d855f8061070d9f8863ffffffff9c8f927f1039f6e4298e89a9bce172fce0ce0ad6f8d87c22e80bdc62572c4993c2497aa29f9d8e610674956106f09f61066f905163ffffffff1690565b610a28565b602081519101827333333333333333333333333333333333333333335af1505163ffffffff1690565b9560ff604051988998169b1699879460a09467ffffffffffffffff6001600160801b03958160ff959b9a9660c08b019c15158b521660208a01521660408801521515606087015216608085015216910152565b0390a36040516001600160801b0390911681529081906020820190565b0390f35b6315d59dcf60e01b5f5267ffffffffffffffff821660045260245ffd5b6361aa390160e01b5f5267ffffffffffffffff841660045260245ffd5b6354efd23160e11b5f5260ff861660045260245ffd5b34610175575f36600319011261017557602060405160038152f35b634e487b7160e01b5f52604160045260245ffd5b604051906060820182811067ffffffffffffffff8211176107b057604052565b61077c565b9060ff6107c0610790565b925463ffffffff81168452818160201c16602085015260281c1615156040830152565b335f9081527f6f3b488caa0dc03e5f3d9fd6a25fa8755afcfd62ccffb6e436c696bfa6b866de602052604090205460ff161561081b57565b63e2517d3f60e01b5f52336004527f7935bd0ae54bc31f548c14dba4d37c5c64b3f8ca900cb468fb8abd54d5894f5560245260445ffd5b5f8181526020818152604080832033845290915290205460ff16156108745750565b63e2517d3f60e01b5f523360045260245260445ffd5b5f818152602081815260408083206001600160a01b038616845290915290205460ff16610910575f818152602081815260408083206001600160a01b03861684529091529020805460ff1916600117905533916001600160a01b0316907f2f8788117e7eff1d82e926ec794901d17c78024a50270940304540a733656f0d5f80a4600190565b50505f90565b5f818152602081815260408083206001600160a01b038616845290915290205460ff1615610910575f818152602081815260408083206001600160a01b03861684529091529020805460ff1916905533916001600160a01b0316907ff6391f5c32d9c69d2a47ea670b442974b53935d1edc7fd64eb21e047a839171b5f80a4600190565b67ffffffffffffffff81116107b057601f01601f191660200190565b8051156109c35760200190565b634e487b7160e01b5f52603260045260245ffd5b8051600110156109c35760210190565b8051600610156109c35760260190565b8051601710156109c35760370190565b8051601810156109c35760380190565b9081518110156109c3570160200190565b9695929491939094610a3a602961099a565b60405195601f909101601f191686019167ffffffffffffffff8311878410176107b057610ac5878093610aff9a610aca9660405260298352601f19610a7f602961099a565b01366020850137610aa983809f6001610a97836109b6565b536001610aa3836109d7565b53610b88565b15610b0757600160f81b5b5f1a610abf836109e7565b53610c2f565b610d42565b15610b0157600160f81b5b5f1a610ae0846109f7565b5360f81b6001600160f81b0319165f1a610af983610a07565b53610e4b565b565b5f610ad5565b5f610ab4565b634e487b7160e01b5f52601160045260245ffd5b9060018201809211610b2f57565b610b0d565b9060028201809211610b2f57565b9060038201809211610b2f57565b9060048201809211610b2f57565b9060058201809211610b2f57565b9060068201809211610b2f57565b9060078201809211610b2f57565b60f881901b6001600160f81b0319165f1a610ba4600284610a17565b53610c2c90610c1990610be890610be2906001600160f81b031960f082901b165f1a610bd1600388610a17565b53610bf8610be8601083901c61ffff165b60ff1690565b60f81b6001600160f81b03191690565b610c0f610c056002610b34565b915f1a9188610a17565b5360181c60ff1690565b610c236002610b42565b905f1a92610a17565b53565b610d38610be8610be2610c2c9360ff60f81b8160f81b165f1a610c53600788610a17565b53610c6d610be8600883901c66ffffffffffffff16610be2565b610c7a610c056007610b21565b53610c93610be8601083901c65ffffffffffff16610be2565b610ca0610c056007610b34565b53610cb8610be8601883901c64ffffffffff16610be2565b610cc5610c056007610b42565b53610cdc610be8602083901c63ffffffff16610be2565b610ce9610c056007610b50565b53610cff610be8602883901c62ffffff16610be2565b610d0c610c056007610b5e565b53610d21610be8603083901c61ffff16610be2565b610d2e610c056007610b6c565b5360381c60ff1690565b610c236007610b7a565b610e41610be8610be2610c2c9360ff60f81b8160f81b165f1a610d66600f88610a17565b53610d80610be8600883901c66ffffffffffffff16610be2565b610d8d610c05600f610b21565b53610da6610be8601083901c65ffffffffffff16610be2565b610db3610c05600f610b34565b53610dcb610be8601883901c64ffffffffff16610be2565b610dd8610c05600f610b42565b53610def610be8602083901c63ffffffff16610be2565b610dfc610c05600f610b50565b53610e12610be8602883901c62ffffff16610be2565b610e1f610c05600f610b5e565b53610e34610be8603083901c61ffff16610be2565b610d2e610c05600f610b6c565b610c23600f610b7a565b5f5b60108110610e5a57505050565b8060031b81810460081482151715610b2f576001600160801b038316901c60f81b6001600160f81b031916906019808201908110610b2f57610ea16001935f1a9186610a17565b5301610e4d56fea264697066735822122044654326563792ef3b0614c9d7094883d813f19ae9cc0120eb805dfa3eda836a64736f6c634300081c00332f8788117e7eff1d82e926ec794901d17c78024a50270940304540a733656f0d6f3b488caa0dc03e5f3d9fd6a25fa8755afcfd62ccffb6e436c696bfa6b866dead3228b676f7d3cd4284a5443f17f1962b36e491b30a40b2405849e597ba5fb500000000000000000000000021ba1f7c028b1adc78e75ac187b08b1bdd567118",
        "nonce": "0x5c",
        "chainId": "0x3e6"
      },
      "additionalContracts": [],
      "isFixedGasLimit": false
    },
    {
      "hash": "0x6816206cfb637119c93286b5ea1429d7066373bf77adbfe3999935fde81468cb",
      "transactionType": "CREATE",
      "contractName": "StrategyExecutor",
      "contractAddress": "0xacd862ef134d772b0ca53a97f53ccdd00abc05cf",
      "function": null,
      "arguments": [
        "0xdad9175f6d2Da1709bA3F73711E69022538d21a7",
        "0x21ba1F7C028B1ADc78e75Ac187B08b1BDd567118"
      ],
      "transaction": {
        "from": "0x3f07367008158dc272dd8a38812e1460ef5a390a",
        "gas": "0x1b030b",
        "value": "0x0",
        "input": "0x60c08060405234610196576040816118fc803803809161001f828561019a565b8339810103126101965761003e6020610037836101d1565b92016101d1565b6001600160a01b03909116908115610152576001600160a01b0381161561010d576100cb9160805260405160208101907fd6bce2c093ba2aafdf17b9ba70f3003eea56f1f55790d0f0570a5fbb962ea5b38252466040820152306060820152606081526100ac60808261019a565b51902060a0526100bb336101e5565b506100c5816101e5565b5061025b565b50600180546001600160a01b031916331790556040516115ad90816102ef82396080518181816105ec015261095e015260a05181818161048c0152610ebf0152f35b60405162461bcd60e51b815260206004820152601f60248201527f53747261746567794578656375746f723a207a65726f20676f7665726e6f72006044820152606490fd5b606460405162461bcd60e51b815260206004820152602060248201527f53747261746567794578656375746f723a207a65726f206879706572436f72656044820152fd5b5f80fd5b601f909101601f19168101906001600160401b038211908210176101bd57604052565b634e487b7160e01b5f52604160045260245ffd5b51906001600160a01b038216820361019657565b6001600160a01b0381165f9081525f5160206118dc5f395f51905f52602052604090205460ff16610256576001600160a01b03165f8181525f5160206118dc5f395f51905f5260205260408120805460ff191660011790553391905f51602061189c5f395f51905f528180a4600190565b505f90565b6001600160a01b0381165f9081525f5160206118bc5f395f51905f52602052604090205460ff16610256576001600160a01b03165f8181525f5160206118bc5f395f51905f5260205260408120805460ff191660011790553391907f7935bd0ae54bc31f548c14dba4d37c5c64b3f8ca900cb468fb8abd54d5894f55905f51602061189c5f395f51905f529080a460019056fe6080806040526004361015610012575f80fd5b5f905f3560e01c90816301ffc9a7146110fc5750806316c38b3c146110355780631e466b0314610ffd57806320d88ca814610fc3578063248a9ca314610f9157806324ea54f414610f575780632d0335ab14610f1f5780632f2ff15d14610ee25780633644e51514610ea8578063364bc15a14610e6e57806336568abe14610e2857806337ef9de914610dbe5780633a88b6ee14610ca8578063525a8b8d14610c3e5780635487beb614610c015780635c975abb14610bde5780636b45441214610aaf57806375829def14610a645780637ecebe0014610a2b5780638ace292c146109f257806391d14854146109a9578063a217fddf1461098d578063a5b02cd414610948578063b2f65b7c14610353578063c771909c1461032a578063ccc57490146102ef578063d110958214610255578063d279b0ca146101a65763d547741f1461015d575f80fd5b346101a35760403660031901126101a35761019f60043561017c611165565b9061019a610195825f525f602052600160405f20015490565b6112ec565b6114b7565b5080f35b80fd5b50346101a35760203660031901126101a3576101c061114f565b6101c8611241565b6001600160a01b0316801561021057600180546001600160a01b031916821790557f3fcb27ee18740b399dc535c578d2a92c30f93a98d735944768b81646125cc94a8280a280f35b60405162461bcd60e51b815260206004820152601d60248201527f53747261746567794578656375746f723a207a65726f207369676e65720000006044820152606490fd5b50346101a35760403660031901126101a35761026f61114f565b6102776111c3565b90610280611241565b6001600160a01b031680156102aa578252600660205260ff60408320911660ff1982541617905580f35b60405162461bcd60e51b815260206004820152601c60248201527f53747261746567794578656375746f723a207a65726f207661756c74000000006044820152606490fd5b50346101a357806003193601126101a35760206040517f7935bd0ae54bc31f548c14dba4d37c5c64b3f8ca900cb468fb8abd54d5894f558152f35b50346101a357806003193601126101a3576001546040516001600160a01b039091168152602090f35b50346101a35760e03660031901126101a35761036d61114f565b6103756111c3565b6044359261038161117b565b926084359160a4359160c43567ffffffffffffffff811161094457366023820112156109445780600401359167ffffffffffffffff83116109405736602484840101116109405760ff60045416610931576103da61127d565b88156108e65784421161088e576001600160a01b0316808452600560205260408420549096908611156108445760419060405167ffffffffffffffff60ff60208301937f75b4b88abb6612a209e3f7fea3c816129fb7f4417b1a0c0e359bbe7daca87eae85528b6040850152169a8b60608401528c608084015216968760a08301528860c083015260e082015260e08152610477610100826111d3565b519020604051602081019161190160f01b83527f000000000000000000000000000000000000000000000000000000000000000060228301526042820152604281526104c46062826111d3565b5190209203610835576064810135831a601b8110610815575b60ff16601b8114158061080a575b6107fb576020926044859360809360405193845286840152602481013560408401520135606082015282805260015afa156107ef5780516001600160a01b031680156107e0576001546001600160a01b0316036107d15783815260026020526040812054801515806107c8575b610778575083815260036020526040812054801580158061076d575b6106c2575b5050838152600660205260ff6040822054166040519063e89393a360e01b8252600482015260018614602482015282604482015267ffffffffffffffff87166064820152600286146084820152600260a48201526001600160801b03841660c482015260208160e4818560018060a01b037f0000000000000000000000000000000000000000000000000000000000000000165af180156106b7578492919061066c575b5080856040925260056020522055604051948552602085015260408401527f7d8a7739c884cee63d3f5dd59938ec9e356acfe8327ab9111a1a32e19d11ac2060603394a4602060405160018152f35b9091506020813d6020116106af575b81610688602093836111d3565b810103126106ab57516001600160801b03811681036106ab57508290604061061d565b5080fd5b3d915061067b565b6040513d84823e3d90fd5b8388028881048503610759576305f5e100900490620f42408302928304620f424014171561074557818111156105795760449350855f5160206115385f395f51905f5260606040516020815260146020820152730d8caeccae4c2ceca40caf0c6cacac8e640dac2f60631b6040820152a2634dd3f6af60e01b8352600452602452fd5b634e487b7160e01b83526011600452602483fd5b634e487b7160e01b84526011600452602484fd5b506002871415610574565b6044925086855f5160206115385f395f51905f52606060405160208152601060208201526f0e6d2f4ca40caf0c6cacac8e640dac2f60831b6040820152a263b7ae72b360e01b8352600452602452fd5b50808711610558565b638baa579f60e01b8152600490fd5b638baa579f60e01b8252600482fd5b604051903d90823e3d90fd5b638baa579f60e01b8452600484fd5b50601c8114156104eb565b601b0160ff8111156104dd57634e487b7160e01b84526011600452602484fd5b638baa579f60e01b8352600483fd5b6044848789805f5160206115385f395f51905f52606060405160208152600a6020820152691b9bdb98d9481d5cd95960b21b6040820152a2633a42b7b560e21b8352600452602452fd5b83856044925f5160206115385f395f51905f5260606040519260208452600e60208501526d1cda59db985b08195e1c1a5c995960921b604085015260018060a01b031692a26399bbe11960e01b825260045242602452fd5b836004915f5160206115385f395f51905f526060604051926020845260096020850152687a65726f2073697a6560b81b604085015260018060a01b031692a263c459d23f60e01b8152fd5b633b3b4caf60e21b8452600484fd5b8380fd5b8280fd5b50346101a357806003193601126101a3576040517f00000000000000000000000000000000000000000000000000000000000000006001600160a01b03168152602090f35b50346101a357806003193601126101a357602090604051908152f35b50346101a35760403660031901126101a35760406109c5611165565b91600435815280602052209060018060a01b03165f52602052602060ff60405f2054166040519015158152f35b50346101a35760203660031901126101a3576020906040906001600160a01b03610a1a61114f565b168152600383522054604051908152f35b50346101a35760203660031901126101a3576020906040906001600160a01b03610a5361114f565b168152600583522054604051908152f35b50346101a35760203660031901126101a357610aa5610a8161114f565b610a89611241565b82805282602052610aa060016040852001546112ec565b611324565b5061019f33611435565b50346101a35760403660031901126101a35760043567ffffffffffffffff81116106ab57610ae1903690600401611192565b60243567ffffffffffffffff811161094057610b01903690600401611192565b9091610b0b611241565b818103610ba757845b818110610b1f578580f35b80610b2d6001928587611209565b35828060a01b03610b47610b4284878b611209565b61122d565b16885260036020526040882055610b62610b42828589611209565b7f4486afa44fa66ef5076dc5e5fcc45a55a70d0079655ac5aead0037a533c5d9926020610b9084888a611209565b3592604051938452858060a01b031692a201610b14565b60405162461bcd60e51b815260206004820152600f60248201526e0dad2e6dac2e8c6d040d8cadccee8d608b1b6044820152606490fd5b50346101a357806003193601126101a357602060ff600454166040519015158152f35b50346101a35760203660031901126101a35760209060ff906040906001600160a01b03610c2c61114f565b16815260068452205416604051908152f35b50346101a35760403660031901126101a357610c5861114f565b7fa5b6f81a4cdd3680206d8834adf7b49f8a82060d2d8ec450aaf9a091ba6ce109602060243592610c87611241565b6001600160a01b03168085526002825260408086208590555193845292a280f35b5034610da9576080366003190112610da957610cc261114f565b60243580151590818103610da9576044359267ffffffffffffffff8416809403610da957610cee61117b565b91610cf761127d565b15610dad5767ffffffffffffffff6001925b6001600160a01b0390921692911690823b15610da9576040519063066e2b3760e21b82525f0b60048201528460248201528160448201525f8160648183875af18015610d9e57610d89575b5060405193845260208401527fd8dd80e879f0f3f8d0f42f1b82c037f4baeb5a5da602d161d09e1e3c4d13841460403394a480f35b610d969195505f906111d3565b5f935f610d54565b6040513d5f823e3d90fd5b5f80fd5b67ffffffffffffffff5f1992610d09565b34610da9576040366003190112610da957610dd761114f565b7f4486afa44fa66ef5076dc5e5fcc45a55a70d0079655ac5aead0037a533c5d992602060243592610e06611241565b6001600160a01b03165f818152600383526040908190208590555193845292a2005b34610da9576040366003190112610da957610e41611165565b336001600160a01b03821603610e5f57610e5d906004356114b7565b005b63334bd91960e11b5f5260045ffd5b34610da9575f366003190112610da95760206040517ffc8737ab85eb45125971625a9ebdb75cc78e01d5c1fa80c4c6e5203f47bc4fab8152f35b34610da9575f366003190112610da95760206040517f00000000000000000000000000000000000000000000000000000000000000008152f35b34610da9576040366003190112610da957610e5d600435610f01611165565b90610f1a610195825f525f602052600160405f20015490565b6113ad565b34610da9576020366003190112610da9576001600160a01b03610f4061114f565b165f526005602052602060405f2054604051908152f35b34610da9575f366003190112610da95760206040517f55435dd261a4b9b3364963f7738a7a662ad9c84396d64be3365284bb7f0a50418152f35b34610da9576020366003190112610da9576020610fbb6004355f525f602052600160405f20015490565b604051908152f35b34610da9575f366003190112610da95760206040517f75b4b88abb6612a209e3f7fea3c816129fb7f4417b1a0c0e359bbe7daca87eae8152f35b34610da9576020366003190112610da9576001600160a01b0361101e61114f565b165f526002602052602060405f2054604051908152f35b34610da9576020366003190112610da957600435801515809103610da957335f9081527f8a40f0b47fdc2a0ce293b772acfc7508c8315a4d462786c1adc3a56f92ca2d05602052604090205460ff16156110c55760207f40db37ff5c0bdc2c427fbb2078c8f24afea940abac0e3c23bb4ea3bf2da2b2129160ff196004541660ff821617600455604051908152a1005b63e2517d3f60e01b5f52336004527f55435dd261a4b9b3364963f7738a7a662ad9c84396d64be3365284bb7f0a504160245260445ffd5b34610da9576020366003190112610da9576004359063ffffffff60e01b8216809203610da957602091637965db0b60e01b811490811561113e575b5015158152f35b6301ffc9a760e01b14905083611137565b600435906001600160a01b0382168203610da957565b602435906001600160a01b0382168203610da957565b6064359067ffffffffffffffff82168203610da957565b9181601f84011215610da95782359167ffffffffffffffff8311610da9576020808501948460051b010111610da957565b6024359060ff82168203610da957565b90601f8019910116810190811067ffffffffffffffff8211176111f557604052565b634e487b7160e01b5f52604160045260245ffd5b91908110156112195760051b0190565b634e487b7160e01b5f52603260045260245ffd5b356001600160a01b0381168103610da95790565b335f9081525f5160206115585f395f51905f52602052604090205460ff161561126657565b63e2517d3f60e01b5f52336004525f60245260445ffd5b335f9081527f0363fc6b1c9d3a5e0ab0c2ddc08deb0f30108829db06e84f370d2858ffe78c46602052604090205460ff16156112b557565b63e2517d3f60e01b5f52336004527ffc8737ab85eb45125971625a9ebdb75cc78e01d5c1fa80c4c6e5203f47bc4fab60245260445ffd5b5f8181526020818152604080832033845290915290205460ff161561130e5750565b63e2517d3f60e01b5f523360045260245260445ffd5b6001600160a01b0381165f9081525f5160206115585f395f51905f52602052604090205460ff166113a8576001600160a01b03165f8181525f5160206115585f395f51905f5260205260408120805460ff191660011790553391907f2f8788117e7eff1d82e926ec794901d17c78024a50270940304540a733656f0d8180a4600190565b505f90565b5f818152602081815260408083206001600160a01b038616845290915290205460ff1661142f575f818152602081815260408083206001600160a01b0395909516808452949091528120805460ff19166001179055339291907f2f8788117e7eff1d82e926ec794901d17c78024a50270940304540a733656f0d9080a4600190565b50505f90565b6001600160a01b0381165f9081525f5160206115585f395f51905f52602052604090205460ff16156113a8576001600160a01b03165f8181525f5160206115585f395f51905f5260205260408120805460ff191690553391907ff6391f5c32d9c69d2a47ea670b442974b53935d1edc7fd64eb21e047a839171b8180a4600190565b5f818152602081815260408083206001600160a01b038616845290915290205460ff161561142f575f818152602081815260408083206001600160a01b0395909516808452949091528120805460ff19169055339291907ff6391f5c32d9c69d2a47ea670b442974b53935d1edc7fd64eb21e047a839171b9080a460019056fe0a2e350c81cac41697b96707c63c57b6f90c4f42855a0d2cd75c9dd0a92bb46ead3228b676f7d3cd4284a5443f17f1962b36e491b30a40b2405849e597ba5fb5a26469706673582212201ba852c4c73fa38ce3671c651b6863586cebc8b63d966e40570339407350e4ae64736f6c634300081c00332f8788117e7eff1d82e926ec794901d17c78024a50270940304540a733656f0d6f3b488caa0dc03e5f3d9fd6a25fa8755afcfd62ccffb6e436c696bfa6b866dead3228b676f7d3cd4284a5443f17f1962b36e491b30a40b2405849e597ba5fb5000000000000000000000000dad9175f6d2da1709ba3f73711e69022538d21a700000000000000000000000021ba1f7c028b1adc78e75ac187b08b1bdd567118",
        "nonce": "0x5d",
        "chainId": "0x3e6"
      },
      "additionalContracts": [],
      "isFixedGasLimit": false
    },
    {
      "hash": "0xddec75d59b20c4e4979210a8fb56fd165623bbc5ec0f07c22103fb14c28fec77",
      "transactionType": "CALL",
      "contractName": "StrategyExecutor",
      "contractAddress": "0xacd862ef134d772b0ca53a97f53ccdd00abc05cf",
      "function": "grantRole(bytes32,address)",
      "arguments": [
        "0xfc8737ab85eb45125971625a9ebdb75cc78e01d5c1fa80c4c6e5203f47bc4fab",
        "0x3F07367008158dC272Dd8A38812e1460eF5a390a"
      ],
      "transaction": {
        "from": "0x3f07367008158dc272dd8a38812e1460ef5a390a",
        "to": "0xacd862ef134d772b0ca53a97f53ccdd00abc05cf",
        "gas": "0x114a0",
        "value": "0x0",
        "input": "0x2f2ff15dfc8737ab85eb45125971625a9ebdb75cc78e01d5c1fa80c4c6e5203f47bc4fab0000000000000000000000003f07367008158dc272dd8a38812e1460ef5a390a",
        "nonce": "0x5e",
        "chainId": "0x3e6"
      },
      "additionalContracts": [],
      "isFixedGasLimit": false
    },
    {
      "hash": "0x76d25bceeccd5c4de6e0a62cae700ebf91bc2215c1c6c80a0597f84f600746b8",
      "transactionType": "CALL",
      "contractName": "StrategyExecutor",
      "contractAddress": "0xacd862ef134d772b0ca53a97f53ccdd00abc05cf",
      "function": "grantRole(bytes32,address)",
      "arguments": [
        "0x55435dd261a4b9b3364963f7738a7a662ad9c84396d64be3365284bb7f0a5041",
        "0x3F07367008158dC272Dd8A38812e1460eF5a390a"
      ],
      "transaction": {
        "from": "0x3f07367008158dc272dd8a38812e1460ef5a390a",
        "to": "0xacd862ef134d772b0ca53a97f53ccdd00abc05cf",
        "gas": "0x114a0",
        "value": "0x0",
        "input": "0x2f2ff15d55435dd261a4b9b3364963f7738a7a662ad9c84396d64be3365284bb7f0a50410000000000000000000000003f07367008158dc272dd8a38812e1460ef5a390a",
        "nonce": "0x5f",
        "chainId": "0x3e6"
      },
      "additionalContracts": [],
      "isFixedGasLimit": false
    },
    {
      "hash": "0xf963ae049e64fef094b57b9756ade68b1a4d291cf4addc246f089b8377ee6424",
      "transactionType": "CALL",
      "contractName": null,
      "contractAddress": "0xbe8a9d22560a1b126554b70aaca2d763b2e70c4e",
      "function": "grantRole(bytes32,address)",
      "arguments": [
        "0xfc8737ab85eb45125971625a9ebdb75cc78e01d5c1fa80c4c6e5203f47bc4fab",
        "0xaCD862eF134D772b0CA53a97f53CCDd00aBC05CF"
      ],
      "transaction": {
        "from": "0x3f07367008158dc272dd8a38812e1460ef5a390a",
        "to": "0xbe8a9d22560a1b126554b70aaca2d763b2e70c4e",
        "gas": "0x11558",
        "value": "0x0",
        "input": "0x2f2ff15dfc8737ab85eb45125971625a9ebdb75cc78e01d5c1fa80c4c6e5203f47bc4fab000000000000000000000000acd862ef134d772b0ca53a97f53ccdd00abc05cf",
        "nonce": "0x60",
        "chainId": "0x3e6"
      },
      "additionalContracts": [],
      "isFixedGasLimit": false
    },
    {
      "hash": "0x0b6fdf0a1dbe9d30bc69dfbf1355d5ce89e972c12e148c5e72affca53a14e51e",
      "transactionType": "CALL",
      "contractName": null,
      "contractAddress": "0x93669dac07321ff397cf5734ae8364ea24addf45",
      "function": "grantRole(bytes32,address)",
      "arguments": [
        "0xfc8737ab85eb45125971625a9ebdb75cc78e01d5c1fa80c4c6e5203f47bc4fab",
        "0xaCD862eF134D772b0CA53a97f53CCDd00aBC05CF"
      ],
      "transaction": {
        "from": "0x3f07367008158dc272dd8a38812e1460ef5a390a",
        "to": "0x93669dac07321ff397cf5734ae8364ea24addf45",
        "gas": "0x11558",
        "value": "0x0",
        "input": "0x2f2ff15dfc8737ab85eb45125971625a9ebdb75cc78e01d5c1fa80c4c6e5203f47bc4fab000000000000000000000000acd862ef134d772b0ca53a97f53ccdd00abc05cf",
        "nonce": "0x61",
        "chainId": "0x3e6"
      },
      "additionalContracts": [],
      "isFixedGasLimit": false
    },
    {
      "hash": "0xb76a6c8d2dffcc94e9423173093c41fbb6dd8efc1615052f8d1ecbe58abe3e98",
      "transactionType": "CALL",
      "contractName": null,
      "contractAddress": "0x8b15204d88a9bb155be6798522983a3b5f7d7cb0",
      "function": "grantRole(bytes32,address)",
      "arguments": [
        "0xfc8737ab85eb45125971625a9ebdb75cc78e01d5c1fa80c4c6e5203f47bc4fab",
        "0xaCD862eF134D772b0CA53a97f53CCDd00aBC05CF"
      ],
      "transaction": {
        "from": "0x3f07367008158dc272dd8a38812e1460ef5a390a",
        "to": "0x8b15204d88a9bb155be6798522983a3b5f7d7cb0",
        "gas": "0x11558",
        "value": "0x0",
        "input": "0x2f2ff15dfc8737ab85eb45125971625a9ebdb75cc78e01d5c1fa80c4c6e5203f47bc4fab000000000000000000000000acd862ef134d772b0ca53a97f53ccdd00abc05cf",
        "nonce": "0x62",
        "chainId": "0x3e6"
      },
      "additionalContracts": [],
      "isFixedGasLimit": false
    },
    {
      "hash": "0x10e80d4d937fa1ae60111d2646c9f2984323559ccf26144d3e185b02672d1eed",
      "transactionType": "CALL",
      "contractName": null,
      "contractAddress": "0xb62ba9d0a14ac9f9601891179b3da52be71ce052",
      "function": "grantRole(bytes32,address)",
      "arguments": [
        "0xfc8737ab85eb45125971625a9ebdb75cc78e01d5c1fa80c4c6e5203f47bc4fab",
        "0xaCD862eF134D772b0CA53a97f53CCDd00aBC05CF"
      ],
      "transaction": {
        "from": "0x3f07367008158dc272dd8a38812e1460ef5a390a",
        "to": "0xb62ba9d0a14ac9f9601891179b3da52be71ce052",
        "gas": "0x11558",
        "value": "0x0",
        "input": "0x2f2ff15dfc8737ab85eb45125971625a9ebdb75cc78e01d5c1fa80c4c6e5203f47bc4fab000000000000000000000000acd862ef134d772b0ca53a97f53ccdd00abc05cf",
        "nonce": "0x63",
        "chainId": "0x3e6"
      },
      "additionalContracts": [],
      "isFixedGasLimit": false
    },
    {
      "hash": "0xa8a4d33ba01c1ff536a0f6341fb95c46ee7f56785880d99802a128bd3df81dd6",
      "transactionType": "CALL",
      "contractName": "StrategyExecutor",
      "contractAddress": "0xacd862ef134d772b0ca53a97f53ccdd00abc05cf",
      "function": "setMaxLeverageBPS(address,uint256)",
      "arguments": [
        "0xbe8a9d22560A1b126554b70Aaca2D763B2E70C4e",
        "30000"
      ],
      "transaction": {
        "from": "0x3f07367008158dc272dd8a38812e1460ef5a390a",
        "to": "0xacd862ef134d772b0ca53a97f53ccdd00abc05cf",
        "gas": "0x10269",
        "value": "0x0",
        "input": "0x37ef9de9000000000000000000000000be8a9d22560a1b126554b70aaca2d763b2e70c4e0000000000000000000000000000000000000000000000000000000000007530",
        "nonce": "0x64",
        "chainId": "0x3e6"
      },
      "additionalContracts": [],
      "isFixedGasLimit": false
    },
    {
      "hash": "0xc0fb8c08b5876fcd75450319bfb0960410c0b6f56235cca2497e22a8b8dc0e29",
      "transactionType": "CALL",
      "contractName": "StrategyExecutor",
      "contractAddress": "0xacd862ef134d772b0ca53a97f53ccdd00abc05cf",
      "function": "setMaxLeverageBPS(address,uint256)",
      "arguments": [
        "0x93669daC07321FF397cf5734Ae8364EA24addF45",
        "30000"
      ],
      "transaction": {
        "from": "0x3f07367008158dc272dd8a38812e1460ef5a390a",
        "to": "0xacd862ef134d772b0ca53a97f53ccdd00abc05cf",
        "gas": "0x10269",
        "value": "0x0",
        "input": "0x37ef9de900000000000000000000000093669dac07321ff397cf5734ae8364ea24addf450000000000000000000000000000000000000000000000000000000000007530",
        "nonce": "0x65",
        "chainId": "0x3e6"
      },
      "additionalContracts": [],
      "isFixedGasLimit": false
    },
    {
      "hash": "0x6cd131562d3ec7fb85661391291776e56929f4fe44aca4ed51bd2db82f3675b5",
      "transactionType": "CALL",
      "contractName": "StrategyExecutor",
      "contractAddress": "0xacd862ef134d772b0ca53a97f53ccdd00abc05cf",
      "function": "setMaxLeverageBPS(address,uint256)",
      "arguments": [
        "0x8B15204D88a9Bb155bE6798522983A3B5F7d7cB0",
        "30000"
      ],
      "transaction": {
        "from": "0x3f07367008158dc272dd8a38812e1460ef5a390a",
        "to": "0xacd862ef134d772b0ca53a97f53ccdd00abc05cf",
        "gas": "0x10269",
        "value": "0x0",
        "input": "0x37ef9de90000000000000000000000008b15204d88a9bb155be6798522983a3b5f7d7cb00000000000000000000000000000000000000000000000000000000000007530",
        "nonce": "0x66",
        "chainId": "0x3e6"
      },
      "additionalContracts": [],
      "isFixedGasLimit": false
    },
    {
      "hash": "0xc72f8fc745d1eb4febbc2849d5892b54752413052777c5367fec5626cfa1471b",
      "transactionType": "CALL",
      "contractName": "StrategyExecutor",
      "contractAddress": "0xacd862ef134d772b0ca53a97f53ccdd00abc05cf",
      "function": "setMaxLeverageBPS(address,uint256)",
      "arguments": [
        "0xb62BA9d0a14aC9f9601891179B3Da52bE71Ce052",
        "30000"
      ],
      "transaction": {
        "from": "0x3f07367008158dc272dd8a38812e1460ef5a390a",
        "to": "0xacd862ef134d772b0ca53a97f53ccdd00abc05cf",
        "gas": "0x10269",
        "value": "0x0",
        "input": "0x37ef9de9000000000000000000000000b62ba9d0a14ac9f9601891179b3da52be71ce0520000000000000000000000000000000000000000000000000000000000007530",
        "nonce": "0x67",
        "chainId": "0x3e6"
      },
      "additionalContracts": [],
      "isFixedGasLimit": false
    },
    {
      "hash": "0x4467a276a0033082a6e527de9d377a9de23bbd3fa569227b4e3e3611eea8f58c",
      "transactionType": "CALL",
      "contractName": null,
      "contractAddress": "0x4e2e7fd3c85c05697b24743e580b03abcd6d0c65",
      "function": "grantRole(bytes32,address)",
      "arguments": [
        "0x7935bd0ae54bc31f548c14dba4d37c5c64b3f8ca900cb468fb8abd54d5894f55",
        "0x21ba1F7C028B1ADc78e75Ac187B08b1BDd567118"
      ],
      "transaction": {
        "from": "0x3f07367008158dc272dd8a38812e1460ef5a390a",
        "to": "0x4e2e7fd3c85c05697b24743e580b03abcd6d0c65",
        "gas": "0x1143d",
        "value": "0x0",
        "input": "0x2f2ff15d7935bd0ae54bc31f548c14dba4d37c5c64b3f8ca900cb468fb8abd54d5894f5500000000000000000000000021ba1f7c028b1adc78e75ac187b08b1bdd567118",
        "nonce": "0x68",
        "chainId": "0x3e6"
      },
      "additionalContracts": [],
      "isFixedGasLimit": false
    },
    {
      "hash": "0x212aedc1152df938dbfd8e5e7624e9f14d76203dad2a57e9824e604e753f3875",
      "transactionType": "CALL",
      "contractName": null,
      "contractAddress": "0x15f6c4bf4000747e0fdd85b33998a36f5bdf5007",
      "function": "grantRole(bytes32,address)",
      "arguments": [
        "0x7935bd0ae54bc31f548c14dba4d37c5c64b3f8ca900cb468fb8abd54d5894f55",
        "0x21ba1F7C028B1ADc78e75Ac187B08b1BDd567118"
      ],
      "transaction": {
        "from": "0x3f07367008158dc272dd8a38812e1460ef5a390a",
        "to": "0x15f6c4bf4000747e0fdd85b33998a36f5bdf5007",
        "gas": "0x1245e",
        "value": "0x0",
        "input": "0x2f2ff15d7935bd0ae54bc31f548c14dba4d37c5c64b3f8ca900cb468fb8abd54d5894f5500000000000000000000000021ba1f7c028b1adc78e75ac187b08b1bdd567118",
        "nonce": "0x69",
        "chainId": "0x3e6"
      },
      "additionalContracts": [],
      "isFixedGasLimit": false
    },
    {
      "hash": "0xd66b5635e7d1b1cb0ef25aead259a1ba453ff7f2e3ed11d152e67350abb37867",
      "transactionType": "CALL",
      "contractName": null,
      "contractAddress": "0x8fb48f84aa69e89e0360e6d2d26c447aa57dcf73",
      "function": "grantRole(bytes32,address)",
      "arguments": [
        "0x7935bd0ae54bc31f548c14dba4d37c5c64b3f8ca900cb468fb8abd54d5894f55",
        "0x21ba1F7C028B1ADc78e75Ac187B08b1BDd567118"
      ],
      "transaction": {
        "from": "0x3f07367008158dc272dd8a38812e1460ef5a390a",
        "to": "0x8fb48f84aa69e89e0360e6d2d26c447aa57dcf73",
        "gas": "0x1145c",
        "value": "0x0",
        "input": "0x2f2ff15d7935bd0ae54bc31f548c14dba4d37c5c64b3f8ca900cb468fb8abd54d5894f5500000000000000000000000021ba1f7c028b1adc78e75ac187b08b1bdd567118",
        "nonce": "0x6a",
        "chainId": "0x3e6"
      },
      "additionalContracts": [],
      "isFixedGasLimit": false
    },
    {
      "hash": "0x152611d0b87361d8f04e830306b3b56592e7a649234012a4ed7c729cae42db0d",
      "transactionType": "CALL",
      "contractName": null,
      "contractAddress": "0x403e8c79653b1cb7a5c0eaa313ec0c7d0cac7e2c",
      "function": "grantRole(bytes32,address)",
      "arguments": [
        "0x7935bd0ae54bc31f548c14dba4d37c5c64b3f8ca900cb468fb8abd54d5894f55",
        "0x21ba1F7C028B1ADc78e75Ac187B08b1BDd567118"
      ],
      "transaction": {
        "from": "0x3f07367008158dc272dd8a38812e1460ef5a390a",
        "to": "0x403e8c79653b1cb7a5c0eaa313ec0c7d0cac7e2c",
        "gas": "0x1145c",
        "value": "0x0",
        "input": "0x2f2ff15d7935bd0ae54bc31f548c14dba4d37c5c64b3f8ca900cb468fb8abd54d5894f5500000000000000000000000021ba1f7c028b1adc78e75ac187b08b1bdd567118",
        "nonce": "0x6b",
        "chainId": "0x3e6"
      },
      "additionalContracts": [],
      "isFixedGasLimit": false
    },
    {
      "hash": "0x89527b2adf8d9068660e269cb6aeff7e1e968008abd876e2d8d1223e9afcff17",
      "transactionType": "CALL",
      "contractName": null,
      "contractAddress": "0xc69f8a8014b4d17ee2e7457109ff1db33c0c7d7f",
      "function": "grantRole(bytes32,address)",
      "arguments": [
        "0x7935bd0ae54bc31f548c14dba4d37c5c64b3f8ca900cb468fb8abd54d5894f55",
        "0x21ba1F7C028B1ADc78e75Ac187B08b1BDd567118"
      ],
      "transaction": {
        "from": "0x3f07367008158dc272dd8a38812e1460ef5a390a",
        "to": "0xc69f8a8014b4d17ee2e7457109ff1db33c0c7d7f",
        "gas": "0x1145c",
        "value": "0x0",
        "input": "0x2f2ff15d7935bd0ae54bc31f548c14dba4d37c5c64b3f8ca900cb468fb8abd54d5894f5500000000000000000000000021ba1f7c028b1adc78e75ac187b08b1bdd567118",
        "nonce": "0x6c",
        "chainId": "0x3e6"
      },
      "additionalContracts": [],
      "isFixedGasLimit": false
    },
    {
      "hash": "0x54ce353b64bb907813816ba3f0bb81ba9acddb95411597cee8ec860a488b913b",
      "transactionType": "CALL",
      "contractName": null,
      "contractAddress": "0xe990bfbc5c1e5779cb54cb95150edbbb2c2800d0",
      "function": "grantRole(bytes32,address)",
      "arguments": [
        "0x7935bd0ae54bc31f548c14dba4d37c5c64b3f8ca900cb468fb8abd54d5894f55",
        "0x21ba1F7C028B1ADc78e75Ac187B08b1BDd567118"
      ],
      "transaction": {
        "from": "0x3f07367008158dc272dd8a38812e1460ef5a390a",
        "to": "0xe990bfbc5c1e5779cb54cb95150edbbb2c2800d0",
        "gas": "0x1145c",
        "value": "0x0",
        "input": "0x2f2ff15d7935bd0ae54bc31f548c14dba4d37c5c64b3f8ca900cb468fb8abd54d5894f5500000000000000000000000021ba1f7c028b1adc78e75ac187b08b1bdd567118",
        "nonce": "0x6d",
        "chainId": "0x3e6"
      },
      "additionalContracts": [],
      "isFixedGasLimit": false
    },
    {
      "hash": null,
      "transactionType": "CALL",
      "contractName": null,
      "contractAddress": "0x15f6c4bf4000747e0fdd85b33998a36f5bdf5007",
      "function": "grantRole(bytes32,address)",
      "arguments": [
        "0x9957de8c5d95da580823ca52e598d0c0d2818cb1f8fd9773a5166d2a45d82b05",
        "0x3F07367008158dC272Dd8A38812e1460eF5a390a"
      ],
      "transaction": {
        "from": "0x3f07367008158dc272dd8a38812e1460ef5a390a",
        "to": "0x15f6c4bf4000747e0fdd85b33998a36f5bdf5007",
        "gas": "0x9c75",
        "value": "0x0",
        "input": "0x2f2ff15d9957de8c5d95da580823ca52e598d0c0d2818cb1f8fd9773a5166d2a45d82b050000000000000000000000003f07367008158dc272dd8a38812e1460ef5a390a",
        "nonce": "0x6e",
        "chainId": "0x3e6"
      },
      "additionalContracts": [],
      "isFixedGasLimit": false
    },
    {
      "hash": null,
      "transactionType": "CALL",
      "contractName": null,
      "contractAddress": "0xbe8a9d22560a1b126554b70aaca2d763b2e70c4e",
      "function": "grantRole(bytes32,address)",
      "arguments": [
        "0x0000000000000000000000000000000000000000000000000000000000000000",
        "0x21ba1F7C028B1ADc78e75Ac187B08b1BDd567118"
      ],
      "transaction": {
        "from": "0x3f07367008158dc272dd8a38812e1460ef5a390a",
        "to": "0xbe8a9d22560a1b126554b70aaca2d763b2e70c4e",
        "gas": "0x11346",
        "value": "0x0",
        "input": "0x2f2ff15d000000000000000000000000000000000000000000000000000000000000000000000000000000000000000021ba1f7c028b1adc78e75ac187b08b1bdd567118",
        "nonce": "0x6f",
        "chainId": "0x3e6"
      },
      "additionalContracts": [],
      "isFixedGasLimit": false
    },
    {
      "hash": null,
      "transactionType": "CALL",
      "contractName": null,
      "contractAddress": "0x93669dac07321ff397cf5734ae8364ea24addf45",
      "function": "grantRole(bytes32,address)",
      "arguments": [
        "0x0000000000000000000000000000000000000000000000000000000000000000",
        "0x21ba1F7C028B1ADc78e75Ac187B08b1BDd567118"
      ],
      "transaction": {
        "from": "0x3f07367008158dc272dd8a38812e1460ef5a390a",
        "to": "0x93669dac07321ff397cf5734ae8364ea24addf45",
        "gas": "0x11346",
        "value": "0x0",
        "input": "0x2f2ff15d000000000000000000000000000000000000000000000000000000000000000000000000000000000000000021ba1f7c028b1adc78e75ac187b08b1bdd567118",
        "nonce": "0x70",
        "chainId": "0x3e6"
      },
      "additionalContracts": [],
      "isFixedGasLimit": false
    },
    {
      "hash": null,
      "transactionType": "CALL",
      "contractName": null,
      "contractAddress": "0x8b15204d88a9bb155be6798522983a3b5f7d7cb0",
      "function": "grantRole(bytes32,address)",
      "arguments": [
        "0x0000000000000000000000000000000000000000000000000000000000000000",
        "0x21ba1F7C028B1ADc78e75Ac187B08b1BDd567118"
      ],
      "transaction": {
        "from": "0x3f07367008158dc272dd8a38812e1460ef5a390a",
        "to": "0x8b15204d88a9bb155be6798522983a3b5f7d7cb0",
        "gas": "0x11346",
        "value": "0x0",
        "input": "0x2f2ff15d000000000000000000000000000000000000000000000000000000000000000000000000000000000000000021ba1f7c028b1adc78e75ac187b08b1bdd567118",
        "nonce": "0x71",
        "chainId": "0x3e6"
      },
      "additionalContracts": [],
      "isFixedGasLimit": false
    },
    {
      "hash": null,
      "transactionType": "CALL",
      "contractName": null,
      "contractAddress": "0xb62ba9d0a14ac9f9601891179b3da52be71ce052",
      "function": "grantRole(bytes32,address)",
      "arguments": [
        "0x0000000000000000000000000000000000000000000000000000000000000000",
        "0x21ba1F7C028B1ADc78e75Ac187B08b1BDd567118"
      ],
      "transaction": {
        "from": "0x3f07367008158dc272dd8a38812e1460ef5a390a",
        "to": "0xb62ba9d0a14ac9f9601891179b3da52be71ce052",
        "gas": "0x11346",
        "value": "0x0",
        "input": "0x2f2ff15d000000000000000000000000000000000000000000000000000000000000000000000000000000000000000021ba1f7c028b1adc78e75ac187b08b1bdd567118",
        "nonce": "0x72",
        "chainId": "0x3e6"
      },
      "additionalContracts": [],
      "isFixedGasLimit": false
    },
    {
      "hash": null,
      "transactionType": "CALL",
      "contractName": null,
      "contractAddress": "0xbe8a9d22560a1b126554b70aaca2d763b2e70c4e",
      "function": "setStaking(address)",
      "arguments": [
        "0x4E2e7Fd3C85c05697b24743e580B03abCD6d0c65"
      ],
      "transaction": {
        "from": "0x3f07367008158dc272dd8a38812e1460ef5a390a",
        "to": "0xbe8a9d22560a1b126554b70aaca2d763b2e70c4e",
        "gas": "0x10b78",
        "value": "0x0",
        "input": "0x8ff390990000000000000000000000004e2e7fd3c85c05697b24743e580b03abcd6d0c65",
        "nonce": "0x73",
        "chainId": "0x3e6"
      },
      "additionalContracts": [],
      "isFixedGasLimit": false
    },
    {
      "hash": null,
      "transactionType": "CALL",
      "contractName": null,
      "contractAddress": "0x93669dac07321ff397cf5734ae8364ea24addf45",
      "function": "setStaking(address)",
      "arguments": [
        "0x4E2e7Fd3C85c05697b24743e580B03abCD6d0c65"
      ],
      "transaction": {
        "from": "0x3f07367008158dc272dd8a38812e1460ef5a390a",
        "to": "0x93669dac07321ff397cf5734ae8364ea24addf45",
        "gas": "0x10b78",
        "value": "0x0",
        "input": "0x8ff390990000000000000000000000004e2e7fd3c85c05697b24743e580b03abcd6d0c65",
        "nonce": "0x74",
        "chainId": "0x3e6"
      },
      "additionalContracts": [],
      "isFixedGasLimit": false
    },
    {
      "hash": null,
      "transactionType": "CALL",
      "contractName": null,
      "contractAddress": "0x8b15204d88a9bb155be6798522983a3b5f7d7cb0",
      "function": "setStaking(address)",
      "arguments": [
        "0x4E2e7Fd3C85c05697b24743e580B03abCD6d0c65"
      ],
      "transaction": {
        "from": "0x3f07367008158dc272dd8a38812e1460ef5a390a",
        "to": "0x8b15204d88a9bb155be6798522983a3b5f7d7cb0",
        "gas": "0x10b78",
        "value": "0x0",
        "input": "0x8ff390990000000000000000000000004e2e7fd3c85c05697b24743e580b03abcd6d0c65",
        "nonce": "0x75",
        "chainId": "0x3e6"
      },
      "additionalContracts": [],
      "isFixedGasLimit": false
    },
    {
      "hash": null,
      "transactionType": "CALL",
      "contractName": null,
      "contractAddress": "0xb62ba9d0a14ac9f9601891179b3da52be71ce052",
      "function": "setStaking(address)",
      "arguments": [
        "0x4E2e7Fd3C85c05697b24743e580B03abCD6d0c65"
      ],
      "transaction": {
        "from": "0x3f07367008158dc272dd8a38812e1460ef5a390a",
        "to": "0xb62ba9d0a14ac9f9601891179b3da52be71ce052",
        "gas": "0x10b78",
        "value": "0x0",
        "input": "0x8ff390990000000000000000000000004e2e7fd3c85c05697b24743e580b03abcd6d0c65",
        "nonce": "0x76",
        "chainId": "0x3e6"
      },
      "additionalContracts": [],
      "isFixedGasLimit": false
    },
    {
      "hash": null,
      "transactionType": "CALL",
      "contractName": null,
      "contractAddress": "0xbe8a9d22560a1b126554b70aaca2d763b2e70c4e",
      "function": "setFeeRecipient(address)",
      "arguments": [
        "0x8Fb48F84AA69E89e0360e6d2D26C447AA57DcF73"
      ],
      "transaction": {
        "from": "0x3f07367008158dc272dd8a38812e1460ef5a390a",
        "to": "0xbe8a9d22560a1b126554b70aaca2d763b2e70c4e",
        "gas": "0xac71",
        "value": "0x0",
        "input": "0xe74b981b0000000000000000000000008fb48f84aa69e89e0360e6d2d26c447aa57dcf73",
        "nonce": "0x77",
        "chainId": "0x3e6"
      },
      "additionalContracts": [],
      "isFixedGasLimit": false
    },
    {
      "hash": null,
      "transactionType": "CALL",
      "contractName": null,
      "contractAddress": "0x93669dac07321ff397cf5734ae8364ea24addf45",
      "function": "setFeeRecipient(address)",
      "arguments": [
        "0x403e8C79653B1cb7a5c0EaA313Ec0C7d0cAc7e2c"
      ],
      "transaction": {
        "from": "0x3f07367008158dc272dd8a38812e1460ef5a390a",
        "to": "0x93669dac07321ff397cf5734ae8364ea24addf45",
        "gas": "0xac71",
        "value": "0x0",
        "input": "0xe74b981b000000000000000000000000403e8c79653b1cb7a5c0eaa313ec0c7d0cac7e2c",
        "nonce": "0x78",
        "chainId": "0x3e6"
      },
      "additionalContracts": [],
      "isFixedGasLimit": false
    },
    {
      "hash": null,
      "transactionType": "CALL",
      "contractName": null,
      "contractAddress": "0x8b15204d88a9bb155be6798522983a3b5f7d7cb0",
      "function": "setFeeRecipient(address)",
      "arguments": [
        "0xC69f8a8014b4d17ee2E7457109fF1DB33C0c7d7F"
      ],
      "transaction": {
        "from": "0x3f07367008158dc272dd8a38812e1460ef5a390a",
        "to": "0x8b15204d88a9bb155be6798522983a3b5f7d7cb0",
        "gas": "0xac71",
        "value": "0x0",
        "input": "0xe74b981b000000000000000000000000c69f8a8014b4d17ee2e7457109ff1db33c0c7d7f",
        "nonce": "0x79",
        "chainId": "0x3e6"
      },
      "additionalContracts": [],
      "isFixedGasLimit": false
    },
    {
      "hash": null,
      "transactionType": "CALL",
      "contractName": null,
      "contractAddress": "0xb62ba9d0a14ac9f9601891179b3da52be71ce052",
      "function": "setFeeRecipient(address)",
      "arguments": [
        "0xE990BFBc5c1e5779Cb54cB95150eDbBB2C2800d0"
      ],
      "transaction": {
        "from": "0x3f07367008158dc272dd8a38812e1460ef5a390a",
        "to": "0xb62ba9d0a14ac9f9601891179b3da52be71ce052",
        "gas": "0xa2cb",
        "value": "0x0",
        "input": "0xe74b981b000000000000000000000000e990bfbc5c1e5779cb54cb95150edbbb2c2800d0",
        "nonce": "0x7a",
        "chainId": "0x3e6"
      },
      "additionalContracts": [],
      "isFixedGasLimit": false
    },
    {
      "hash": null,
      "transactionType": "CALL",
      "contractName": "StrategyExecutor",
      "contractAddress": "0xacd862ef134d772b0ca53a97f53ccdd00abc05cf",
      "function": "grantRole(bytes32,address)",
      "arguments": [
        "0x7935bd0ae54bc31f548c14dba4d37c5c64b3f8ca900cb468fb8abd54d5894f55",
        "0x21ba1F7C028B1ADc78e75Ac187B08b1BDd567118"
      ],
      "transaction": {
        "from": "0x3f07367008158dc272dd8a38812e1460ef5a390a",
        "to": "0xacd862ef134d772b0ca53a97f53ccdd00abc05cf",
        "gas": "0xa631",
        "value": "0x0",
        "input": "0x2f2ff15d7935bd0ae54bc31f548c14dba4d37c5c64b3f8ca900cb468fb8abd54d5894f5500000000000000000000000021ba1f7c028b1adc78e75ac187b08b1bdd567118",
        "nonce": "0x7b",
        "chainId": "0x3e6"
      },
      "additionalContracts": [],
      "isFixedGasLimit": false
    },
    {
      "hash": null,
      "transactionType": "CALL",
      "contractName": "StrategyExecutor",
      "contractAddress": "0xacd862ef134d772b0ca53a97f53ccdd00abc05cf",
      "function": "setAuthorizedSigner(address)",
      "arguments": [
        "0x3F07367008158dC272Dd8A38812e1460eF5a390a"
      ],
      "transaction": {
        "from": "0x3f07367008158dc272dd8a38812e1460ef5a390a",
        "to": "0xacd862ef134d772b0ca53a97f53ccdd00abc05cf",
        "gas": "0x9f56",
        "value": "0x0",
        "input": "0xd279b0ca0000000000000000000000003f07367008158dc272dd8a38812e1460ef5a390a",
        "nonce": "0x7c",
        "chainId": "0x3e6"
      },
      "additionalContracts": [],
      "isFixedGasLimit": false
    },
    {
      "hash": null,
      "transactionType": "CALL",
      "contractName": "StrategyExecutor",
      "contractAddress": "0xacd862ef134d772b0ca53a97f53ccdd00abc05cf",
      "function": "setVaultRegistry(address,uint8)",
      "arguments": [
        "0x93669daC07321FF397cf5734Ae8364EA24addF45",
        "0"
      ],
      "transaction": {
        "from": "0x3f07367008158dc272dd8a38812e1460ef5a390a",
        "to": "0xacd862ef134d772b0ca53a97f53ccdd00abc05cf",
        "gas": "0x9193",
        "value": "0x0",
        "input": "0xd110958200000000000000000000000093669dac07321ff397cf5734ae8364ea24addf450000000000000000000000000000000000000000000000000000000000000000",
        "nonce": "0x7d",
        "chainId": "0x3e6"
      },
      "additionalContracts": [],
      "isFixedGasLimit": false
    },
    {
      "hash": null,
      "transactionType": "CALL",
      "contractName": "StrategyExecutor",
      "contractAddress": "0xacd862ef134d772b0ca53a97f53ccdd00abc05cf",
      "function": "setVaultRegistry(address,uint8)",
      "arguments": [
        "0xbe8a9d22560A1b126554b70Aaca2D763B2E70C4e",
        "1"
      ],
      "transaction": {
        "from": "0x3f07367008158dc272dd8a38812e1460ef5a390a",
        "to": "0xacd862ef134d772b0ca53a97f53ccdd00abc05cf",
        "gas": "0xfd01",
        "value": "0x0",
        "input": "0xd1109582000000000000000000000000be8a9d22560a1b126554b70aaca2d763b2e70c4e0000000000000000000000000000000000000000000000000000000000000001",
        "nonce": "0x7e",
        "chainId": "0x3e6"
      },
      "additionalContracts": [],
      "isFixedGasLimit": false
    },
    {
      "hash": null,
      "transactionType": "CALL",
      "contractName": "StrategyExecutor",
      "contractAddress": "0xacd862ef134d772b0ca53a97f53ccdd00abc05cf",
      "function": "setVaultRegistry(address,uint8)",
      "arguments": [
        "0xb62BA9d0a14aC9f9601891179B3Da52bE71Ce052",
        "2"
      ],
      "transaction": {
        "from": "0x3f07367008158dc272dd8a38812e1460ef5a390a",
        "to": "0xacd862ef134d772b0ca53a97f53ccdd00abc05cf",
        "gas": "0xfd01",
        "value": "0x0",
        "input": "0xd1109582000000000000000000000000b62ba9d0a14ac9f9601891179b3da52be71ce0520000000000000000000000000000000000000000000000000000000000000002",
        "nonce": "0x7f",
        "chainId": "0x3e6"
      },
      "additionalContracts": [],
      "isFixedGasLimit": false
    },
    {
      "hash": null,
      "transactionType": "CALL",
      "contractName": "StrategyExecutor",
      "contractAddress": "0xacd862ef134d772b0ca53a97f53ccdd00abc05cf",
      "function": "setVaultRegistry(address,uint8)",
      "arguments": [
        "0x8B15204D88a9Bb155bE6798522983A3B5F7d7cB0",
        "3"
      ],
      "transaction": {
        "from": "0x3f07367008158dc272dd8a38812e1460ef5a390a",
        "to": "0xacd862ef134d772b0ca53a97f53ccdd00abc05cf",
        "gas": "0xfd01",
        "value": "0x0",
        "input": "0xd11095820000000000000000000000008b15204d88a9bb155be6798522983a3b5f7d7cb00000000000000000000000000000000000000000000000000000000000000003",
        "nonce": "0x80",
        "chainId": "0x3e6"
      },
      "additionalContracts": [],
      "isFixedGasLimit": false
    },
    {
      "hash": null,
      "transactionType": "CALL",
      "contractName": "StrategyExecutor",
      "contractAddress": "0xacd862ef134d772b0ca53a97f53ccdd00abc05cf",
      "function": "transferAdmin(address)",
      "arguments": [
        "0x21ba1F7C028B1ADc78e75Ac187B08b1BDd567118"
      ],
      "transaction": {
        "from": "0x3f07367008158dc272dd8a38812e1460ef5a390a",
        "to": "0xacd862ef134d772b0ca53a97f53ccdd00abc05cf",
        "gas": "0x9f17",
        "value": "0x0",
        "input": "0x75829def00000000000000000000000021ba1f7c028b1adc78e75ac187b08b1bdd567118",
        "nonce": "0x81",
        "chainId": "0x3e6"
      },
      "additionalContracts": [],
      "isFixedGasLimit": false
    }
  ],
  "receipts": [
    {
      "status": "0x1",
      "cumulativeGasUsed": "0xfb80f",
      "logs": [
        {
          "address": "0xdad9175f6d2da1709ba3f73711e69022538d21a7",
          "topics": [
            "0x2f8788117e7eff1d82e926ec794901d17c78024a50270940304540a733656f0d",
            "0x0000000000000000000000000000000000000000000000000000000000000000",
            "0x00000000000000000000000021ba1f7c028b1adc78e75ac187b08b1bdd567118",
            "0x0000000000000000000000003f07367008158dc272dd8a38812e1460ef5a390a"
          ],
          "data": "0x",
          "blockHash": "0x1dfab94df3da3de4cdedede94f84d3fde586d29074f2a02340b73f16b49b3317",
          "blockNumber": "0x318f994",
          "blockTimestamp": "0x69eef980",
          "transactionHash": "0x0dea4a36eea3cb021e5818b45b22ed2aadf89d17e06863378992c5cf714e03dd",
          "transactionIndex": "0x0",
          "logIndex": "0x0",
          "removed": false
        },
        {
          "address": "0xdad9175f6d2da1709ba3f73711e69022538d21a7",
          "topics": [
            "0x2f8788117e7eff1d82e926ec794901d17c78024a50270940304540a733656f0d",
            "0x7935bd0ae54bc31f548c14dba4d37c5c64b3f8ca900cb468fb8abd54d5894f55",
            "0x00000000000000000000000021ba1f7c028b1adc78e75ac187b08b1bdd567118",
            "0x0000000000000000000000003f07367008158dc272dd8a38812e1460ef5a390a"
          ],
          "data": "0x",
          "blockHash": "0x1dfab94df3da3de4cdedede94f84d3fde586d29074f2a02340b73f16b49b3317",
          "blockNumber": "0x318f994",
          "blockTimestamp": "0x69eef980",
          "transactionHash": "0x0dea4a36eea3cb021e5818b45b22ed2aadf89d17e06863378992c5cf714e03dd",
          "transactionIndex": "0x0",
          "logIndex": "0x1",
          "removed": false
        }
      ],
      "logsBloom": "0x00000004000000000200000000000000000000000000000000000008000000000000000000000000000000000000000000000000000000000000000000000000000000000000000000000000000000020000000000000000000000000000020000000000020000000000000000000800000000000000000000000000000000000000000000000000000000000000010000000080000080000000000000000000000000000000000000010000000000000000000000000000011000000000000000000000000000000000008000000000000000000000000100000000000020000000800000000000000000000000000400000000000000000000000000000000",
      "type": "0x2",
      "transactionHash": "0x0dea4a36eea3cb021e5818b45b22ed2aadf89d17e06863378992c5cf714e03dd",
      "transactionIndex": "0x0",
      "blockHash": "0x1dfab94df3da3de4cdedede94f84d3fde586d29074f2a02340b73f16b49b3317",
      "blockNumber": "0x318f994",
      "gasUsed": "0xfb80f",
      "effectiveGasPrice": "0x5f5e101",
      "from": "0x3f07367008158dc272dd8a38812e1460ef5a390a",
      "to": null,
      "contractAddress": "0xdad9175f6d2da1709ba3f73711e69022538d21a7"
    },
    {
      "status": "0x1",
      "cumulativeGasUsed": "0x14c744",
      "logs": [
        {
          "address": "0xacd862ef134d772b0ca53a97f53ccdd00abc05cf",
          "topics": [
            "0x2f8788117e7eff1d82e926ec794901d17c78024a50270940304540a733656f0d",
            "0x0000000000000000000000000000000000000000000000000000000000000000",
            "0x0000000000000000000000003f07367008158dc272dd8a38812e1460ef5a390a",
            "0x0000000000000000000000003f07367008158dc272dd8a38812e1460ef5a390a"
          ],
          "data": "0x",
          "blockHash": "0xe162241caec6dd2a4060d037e7783d4d04f27e79ad3fc05785bf2495a6b502b5",
          "blockNumber": "0x318f9d1",
          "blockTimestamp": "0x69eef9bc",
          "transactionHash": "0x6816206cfb637119c93286b5ea1429d7066373bf77adbfe3999935fde81468cb",
          "transactionIndex": "0x0",
          "logIndex": "0x0",
          "removed": false
        },
        {
          "address": "0xacd862ef134d772b0ca53a97f53ccdd00abc05cf",
          "topics": [
            "0x2f8788117e7eff1d82e926ec794901d17c78024a50270940304540a733656f0d",
            "0x0000000000000000000000000000000000000000000000000000000000000000",
            "0x00000000000000000000000021ba1f7c028b1adc78e75ac187b08b1bdd567118",
            "0x0000000000000000000000003f07367008158dc272dd8a38812e1460ef5a390a"
          ],
          "data": "0x",
          "blockHash": "0xe162241caec6dd2a4060d037e7783d4d04f27e79ad3fc05785bf2495a6b502b5",
          "blockNumber": "0x318f9d1",
          "blockTimestamp": "0x69eef9bc",
          "transactionHash": "0x6816206cfb637119c93286b5ea1429d7066373bf77adbfe3999935fde81468cb",
          "transactionIndex": "0x0",
          "logIndex": "0x1",
          "removed": false
        },
        {
          "address": "0xacd862ef134d772b0ca53a97f53ccdd00abc05cf",
          "topics": [
            "0x2f8788117e7eff1d82e926ec794901d17c78024a50270940304540a733656f0d",
            "0x7935bd0ae54bc31f548c14dba4d37c5c64b3f8ca900cb468fb8abd54d5894f55",
            "0x00000000000000000000000021ba1f7c028b1adc78e75ac187b08b1bdd567118",
            "0x0000000000000000000000003f07367008158dc272dd8a38812e1460ef5a390a"
          ],
          "data": "0x",
          "blockHash": "0xe162241caec6dd2a4060d037e7783d4d04f27e79ad3fc05785bf2495a6b502b5",
          "blockNumber": "0x318f9d1",
          "blockTimestamp": "0x69eef9bc",
          "transactionHash": "0x6816206cfb637119c93286b5ea1429d7066373bf77adbfe3999935fde81468cb",
          "transactionIndex": "0x0",
          "logIndex": "0x2",
          "removed": false
        }
      ],
      "logsBloom": "0x00000004000000000000000000000000000000000000000000000008000000000000001000000000000000000000000000000000000000000000000000000000000000000000000000000000000000020000000000000000000000000000020000000000020000000000000000000800000000000000000000000000000000000000000800000000000000000000010000000080000000000000000000000000000000000000000000010000000000400000000000000000001000000000000000000000000000000000008000000000000000000000000100000000000020000000800000000000000000000000000400000000000000000000000000000000",
      "type": "0x2",
      "transactionHash": "0x6816206cfb637119c93286b5ea1429d7066373bf77adbfe3999935fde81468cb",
      "transactionIndex": "0x0",
      "blockHash": "0xe162241caec6dd2a4060d037e7783d4d04f27e79ad3fc05785bf2495a6b502b5",
      "blockNumber": "0x318f9d1",
      "gasUsed": "0x14c744",
      "effectiveGasPrice": "0x5f5e101",
      "from": "0x3f07367008158dc272dd8a38812e1460ef5a390a",
      "to": null,
      "contractAddress": "0xacd862ef134d772b0ca53a97f53ccdd00abc05cf"
    },
    {
      "status": "0x1",
      "cumulativeGasUsed": "0xc846",
      "logs": [
        {
          "address": "0xacd862ef134d772b0ca53a97f53ccdd00abc05cf",
          "topics": [
            "0x2f8788117e7eff1d82e926ec794901d17c78024a50270940304540a733656f0d",
            "0xfc8737ab85eb45125971625a9ebdb75cc78e01d5c1fa80c4c6e5203f47bc4fab",
            "0x0000000000000000000000003f07367008158dc272dd8a38812e1460ef5a390a",
            "0x0000000000000000000000003f07367008158dc272dd8a38812e1460ef5a390a"
          ],
          "data": "0x",
          "blockHash": "0x438b15cd6ffe6855045e0d10fd10260fc506a55bde1677e1c6ff368dbcae0f34",
          "blockNumber": "0x318fa0e",
          "blockTimestamp": "0x69eef9f8",
          "transactionHash": "0xddec75d59b20c4e4979210a8fb56fd165623bbc5ec0f07c22103fb14c28fec77",
          "transactionIndex": "0x0",
          "logIndex": "0x0",
          "removed": false
        }
      ],
      "logsBloom": "0x00000004000000000000000000000000000000000000000000000008000000000000001000000000000000000000000000000000000000000000000000000000000000100000000000000000000000000000000000000000000000000000020000000000000000000000000000000000000000000000000000000000000000000200000800000000000000000000000000000000000000000000000000000000000000000000000000010000000000400000000000000000001000000000080000000000000000000000000000000000000000000000000100000000000000000000000000000000000000000000000000000000000000000000000000000000",
      "type": "0x2",
      "transactionHash": "0xddec75d59b20c4e4979210a8fb56fd165623bbc5ec0f07c22103fb14c28fec77",
      "transactionIndex": "0x0",
      "blockHash": "0x438b15cd6ffe6855045e0d10fd10260fc506a55bde1677e1c6ff368dbcae0f34",
      "blockNumber": "0x318fa0e",
      "gasUsed": "0xc846",
      "effectiveGasPrice": "0x5f5e101",
      "from": "0x3f07367008158dc272dd8a38812e1460ef5a390a",
      "to": "0xacd862ef134d772b0ca53a97f53ccdd00abc05cf",
      "contractAddress": null
    },
    {
      "status": "0x1",
      "cumulativeGasUsed": "0x28ec6",
      "logs": [
        {
          "address": "0xacd862ef134d772b0ca53a97f53ccdd00abc05cf",
          "topics": [
            "0x2f8788117e7eff1d82e926ec794901d17c78024a50270940304540a733656f0d",
            "0x55435dd261a4b9b3364963f7738a7a662ad9c84396d64be3365284bb7f0a5041",
            "0x0000000000000000000000003f07367008158dc272dd8a38812e1460ef5a390a",
            "0x0000000000000000000000003f07367008158dc272dd8a38812e1460ef5a390a"
          ],
          "data": "0x",
          "blockHash": "0x06abde5bdce62fb8a91746e6452a2a850ea8fca12b64f9a574d4d7fc781abf65",
          "blockNumber": "0x318fa4b",
          "blockTimestamp": "0x69eefa34",
          "transactionHash": "0x76d25bceeccd5c4de6e0a62cae700ebf91bc2215c1c6c80a0597f84f600746b8",
          "transactionIndex": "0x1",
          "logIndex": "0x3",
          "removed": false
        }
      ],
      "logsBloom": "0x00000004000000000000000000000000000000000000000000000008000000000000001000000000000000000000000000000000000000000000000000000000000000000000000000000000000000000000000000000000000000000000020000000000000000000000000000000000000000000000000000000000000000000000000800000000000000000000000000000000000000000000000000004000000000000000000000010000000000400000000000000000001000000000000000000000020000000000000000000000000000000000000100000000000000000000000000000000000000000000000000000000000000000000000000040000",
      "type": "0x2",
      "transactionHash": "0x76d25bceeccd5c4de6e0a62cae700ebf91bc2215c1c6c80a0597f84f600746b8",
      "transactionIndex": "0x1",
      "blockHash": "0x06abde5bdce62fb8a91746e6452a2a850ea8fca12b64f9a574d4d7fc781abf65",
      "blockNumber": "0x318fa4b",
      "gasUsed": "0xc846",
      "effectiveGasPrice": "0x5f5e101",
      "from": "0x3f07367008158dc272dd8a38812e1460ef5a390a",
      "to": "0xacd862ef134d772b0ca53a97f53ccdd00abc05cf",
      "contractAddress": null
    },
    {
      "status": "0x1",
      "cumulativeGasUsed": "0xc8cc",
      "logs": [
        {
          "address": "0xbe8a9d22560a1b126554b70aaca2d763b2e70c4e",
          "topics": [
            "0x2f8788117e7eff1d82e926ec794901d17c78024a50270940304540a733656f0d",
            "0xfc8737ab85eb45125971625a9ebdb75cc78e01d5c1fa80c4c6e5203f47bc4fab",
            "0x000000000000000000000000acd862ef134d772b0ca53a97f53ccdd00abc05cf",
            "0x0000000000000000000000003f07367008158dc272dd8a38812e1460ef5a390a"
          ],
          "data": "0x",
          "blockHash": "0xc0c75de06a90684e6b24a3bce6c6e2857d1765c5872cc413ed1f2c6a3b081691",
          "blockNumber": "0x318fa88",
          "blockTimestamp": "0x69eefa70",
          "transactionHash": "0xf963ae049e64fef094b57b9756ade68b1a4d291cf4addc246f089b8377ee6424",
          "transactionIndex": "0x0",
          "logIndex": "0x0",
          "removed": false
        }
      ],
      "logsBloom": "0x00000004000000000000000000000000008000000000000000000008000000000000000000000000000000000000000000000000000000010000000000000000000000100000000000000000000000000000000000000000000000008000020000000000000000000000000000000000000000000002000000000000000000000200000000000000000000000000000000000000000000000000000000000000000000000000000000010000000000000000000000000000001000000000080080000000000000000000000000000000000000020000000100000000000000000000000000000000000000000000000000000000000000000000000000000000",
      "type": "0x2",
      "transactionHash": "0xf963ae049e64fef094b57b9756ade68b1a4d291cf4addc246f089b8377ee6424",
      "transactionIndex": "0x0",
      "blockHash": "0xc0c75de06a90684e6b24a3bce6c6e2857d1765c5872cc413ed1f2c6a3b081691",
      "blockNumber": "0x318fa88",
      "gasUsed": "0xc8cc",
      "effectiveGasPrice": "0x5f5e101",
      "from": "0x3f07367008158dc272dd8a38812e1460ef5a390a",
      "to": "0xbe8a9d22560a1b126554b70aaca2d763b2e70c4e",
      "contractAddress": null
    },
    {
      "status": "0x1",
      "cumulativeGasUsed": "0xc8cc",
      "logs": [
        {
          "address": "0x93669dac07321ff397cf5734ae8364ea24addf45",
          "topics": [
            "0x2f8788117e7eff1d82e926ec794901d17c78024a50270940304540a733656f0d",
            "0xfc8737ab85eb45125971625a9ebdb75cc78e01d5c1fa80c4c6e5203f47bc4fab",
            "0x000000000000000000000000acd862ef134d772b0ca53a97f53ccdd00abc05cf",
            "0x0000000000000000000000003f07367008158dc272dd8a38812e1460ef5a390a"
          ],
          "data": "0x",
          "blockHash": "0x46ac045aa39f8e4a323e56e26a1fab2c47cb69eac67e3be035bc838f031e53cc",
          "blockNumber": "0x318fac5",
          "blockTimestamp": "0x69eefaac",
          "transactionHash": "0x0b6fdf0a1dbe9d30bc69dfbf1355d5ce89e972c12e148c5e72affca53a14e51e",
          "transactionIndex": "0x0",
          "logIndex": "0x0",
          "removed": false
        }
      ],
      "logsBloom": "0x00000004000000000000000000000000000000000000000000000008000000000010000000000000000000000000000000000000000000010000000000000000000000100000000000000000000000000000000000000000000000008000020000000000000000000000000000000000000000000000000000800000000000000200000000000000000000000000000000000000020000000000000000000000000000000000000000010000000000000000000000000000001000000000080000000000000000000000000000000000000000020000000100000000000000000000000000000000000000000000000000000000000000000000000000000000",
      "type": "0x2",
      "transactionHash": "0x0b6fdf0a1dbe9d30bc69dfbf1355d5ce89e972c12e148c5e72affca53a14e51e",
      "transactionIndex": "0x0",
      "blockHash": "0x46ac045aa39f8e4a323e56e26a1fab2c47cb69eac67e3be035bc838f031e53cc",
      "blockNumber": "0x318fac5",
      "gasUsed": "0xc8cc",
      "effectiveGasPrice": "0x5f5e101",
      "from": "0x3f07367008158dc272dd8a38812e1460ef5a390a",
      "to": "0x93669dac07321ff397cf5734ae8364ea24addf45",
      "contractAddress": null
    },
    {
      "status": "0x1",
      "cumulativeGasUsed": "0xc8cc",
      "logs": [
        {
          "address": "0x8b15204d88a9bb155be6798522983a3b5f7d7cb0",
          "topics": [
            "0x2f8788117e7eff1d82e926ec794901d17c78024a50270940304540a733656f0d",
            "0xfc8737ab85eb45125971625a9ebdb75cc78e01d5c1fa80c4c6e5203f47bc4fab",
            "0x000000000000000000000000acd862ef134d772b0ca53a97f53ccdd00abc05cf",
            "0x0000000000000000000000003f07367008158dc272dd8a38812e1460ef5a390a"
          ],
          "data": "0x",
          "blockHash": "0x7da7b15e8431824448c5c21b395548e6b18ad9b9cdc7499f5381f20a5cb94dcf",
          "blockNumber": "0x318fb02",
          "blockTimestamp": "0x69eefae8",
          "transactionHash": "0xb76a6c8d2dffcc94e9423173093c41fbb6dd8efc1615052f8d1ecbe58abe3e98",
          "transactionIndex": "0x0",
          "logIndex": "0x0",
          "removed": false
        }
      ],
      "logsBloom": "0x00000004000000000000000000000000000000000000000000000008000000000000000000000000000000000000000000000000000004010000000000000000000000100000000000000000000000000000000000000000000000008000020000000000000000000000000000000000000000000000000000000000000000000200000000000000000000000000000000000000000000000000000000000000000000004000000000010000000000000000000000000000001000000000080000000000000000000000000000000000000000020000000100000000000000000000000000001000000000000000000000000000000000000000000000000000",
      "type": "0x2",
      "transactionHash": "0xb76a6c8d2dffcc94e9423173093c41fbb6dd8efc1615052f8d1ecbe58abe3e98",
      "transactionIndex": "0x0",
      "blockHash": "0x7da7b15e8431824448c5c21b395548e6b18ad9b9cdc7499f5381f20a5cb94dcf",
      "blockNumber": "0x318fb02",
      "gasUsed": "0xc8cc",
      "effectiveGasPrice": "0x5f5e101",
      "from": "0x3f07367008158dc272dd8a38812e1460ef5a390a",
      "to": "0x8b15204d88a9bb155be6798522983a3b5f7d7cb0",
      "contractAddress": null
    },
    {
      "status": "0x1",
      "cumulativeGasUsed": "0xc8cc",
      "logs": [
        {
          "address": "0xb62ba9d0a14ac9f9601891179b3da52be71ce052",
          "topics": [
            "0x2f8788117e7eff1d82e926ec794901d17c78024a50270940304540a733656f0d",
            "0xfc8737ab85eb45125971625a9ebdb75cc78e01d5c1fa80c4c6e5203f47bc4fab",
            "0x000000000000000000000000acd862ef134d772b0ca53a97f53ccdd00abc05cf",
            "0x0000000000000000000000003f07367008158dc272dd8a38812e1460ef5a390a"
          ],
          "data": "0x",
          "blockHash": "0x2f0502700ad41d347a00427b52d04ff5a83a762ce7c333bd4f04a1afbd25d9dd",
          "blockNumber": "0x318fb3f",
          "blockTimestamp": "0x69eefb24",
          "transactionHash": "0x10e80d4d937fa1ae60111d2646c9f2984323559ccf26144d3e185b02672d1eed",
          "transactionIndex": "0x0",
          "logIndex": "0x0",
          "removed": false
        }
      ],
      "logsBloom": "0x00000004000000000000000000000000000000000000000000000008000000000000000000000400000000000000000000000000000000010000000000000000040000100000000000000000000000000000000000000000000000008000020000000000000000000000000000000000000000000000000000000800000000000200000000000000000000000000000000000000000000000000000000000000000000000000000000010000000000000000000000000000001000000000080000000000000000000000000000000000000000020000000100000000000000000000000000000000000000000000000000000000000000000000000000000000",
      "type": "0x2",
      "transactionHash": "0x10e80d4d937fa1ae60111d2646c9f2984323559ccf26144d3e185b02672d1eed",
      "transactionIndex": "0x0",
      "blockHash": "0x2f0502700ad41d347a00427b52d04ff5a83a762ce7c333bd4f04a1afbd25d9dd",
      "blockNumber": "0x318fb3f",
      "gasUsed": "0xc8cc",
      "effectiveGasPrice": "0x5f5e101",
      "from": "0x3f07367008158dc272dd8a38812e1460ef5a390a",
      "to": "0xb62ba9d0a14ac9f9601891179b3da52be71ce052",
      "contractAddress": null
    },
    {
      "status": "0x1",
      "cumulativeGasUsed": "0xbb16",
      "logs": [
        {
          "address": "0xacd862ef134d772b0ca53a97f53ccdd00abc05cf",
          "topics": [
            "0x4486afa44fa66ef5076dc5e5fcc45a55a70d0079655ac5aead0037a533c5d992",
            "0x000000000000000000000000be8a9d22560a1b126554b70aaca2d763b2e70c4e"
          ],
          "data": "0x0000000000000000000000000000000000000000000000000000000000007530",
          "blockHash": "0xed47b2ac482e2617e29780541f05550c3b18baa3b03bbcf6ed36ea879645e78c",
          "blockNumber": "0x318fb7c",
          "blockTimestamp": "0x69eefb60",
          "transactionHash": "0xa8a4d33ba01c1ff536a0f6341fb95c46ee7f56785880d99802a128bd3df81dd6",
          "transactionIndex": "0x0",
          "logIndex": "0x0",
          "removed": false
        }
      ],
      "logsBloom": "0x40000000000000000000000000000000000000000400000000000000000080000000001000000000000000000002000000000000000000000000000000000000000000000000000000000000000000000000000000000000000000000000000000000000000000000000000000000000000000000000000000000000000000000000000800000000000000000000000000000000000000000000000000000000000000000000000200000000000000400000000000000000000000000000000000000000000000000002000000000000000000000000000000000000000000000000000000000000000000000000000000000000000000000000000000000000",
      "type": "0x2",
      "transactionHash": "0xa8a4d33ba01c1ff536a0f6341fb95c46ee7f56785880d99802a128bd3df81dd6",
      "transactionIndex": "0x0",
      "blockHash": "0xed47b2ac482e2617e29780541f05550c3b18baa3b03bbcf6ed36ea879645e78c",
      "blockNumber": "0x318fb7c",
      "gasUsed": "0xbb16",
      "effectiveGasPrice": "0x5f5e101",
      "from": "0x3f07367008158dc272dd8a38812e1460ef5a390a",
      "to": "0xacd862ef134d772b0ca53a97f53ccdd00abc05cf",
      "contractAddress": null
    },
    {
      "status": "0x1",
      "cumulativeGasUsed": "0x3fdb3",
      "logs": [
        {
          "address": "0xacd862ef134d772b0ca53a97f53ccdd00abc05cf",
          "topics": [
            "0x4486afa44fa66ef5076dc5e5fcc45a55a70d0079655ac5aead0037a533c5d992",
            "0x00000000000000000000000093669dac07321ff397cf5734ae8364ea24addf45"
          ],
          "data": "0x0000000000000000000000000000000000000000000000000000000000007530",
          "blockHash": "0x8be8f42d87b96c5aded265bda40c85b72ac3c1085de0ce2cd4467457735fc798",
          "blockNumber": "0x318fbb9",
          "blockTimestamp": "0x69eefb9c",
          "transactionHash": "0xc0fb8c08b5876fcd75450319bfb0960410c0b6f56235cca2497e22a8b8dc0e29",
          "transactionIndex": "0x3",
          "logIndex": "0x5",
          "removed": false
        }
      ],
      "logsBloom": "0x00000000000000000000000000000000000000000400000000000000000000000000001000000000000000000000000000000000000000000000000000000000000000000000020000000000000000000000000000000000000000000000000000000800000000000000000000000000000000000000000000000000000000000000000800000000000000000000000000000000000000000004000000000000000000000000000200000000000000400000000000000000000000000000000000000000000000000002000000000000000000000000000000000000000000000000000000000000000000000000000000000000000000000000000000000000",
      "type": "0x2",
      "transactionHash": "0xc0fb8c08b5876fcd75450319bfb0960410c0b6f56235cca2497e22a8b8dc0e29",
      "transactionIndex": "0x3",
      "blockHash": "0x8be8f42d87b96c5aded265bda40c85b72ac3c1085de0ce2cd4467457735fc798",
      "blockNumber": "0x318fbb9",
      "gasUsed": "0xbb16",
      "effectiveGasPrice": "0x5f5e101",
      "from": "0x3f07367008158dc272dd8a38812e1460ef5a390a",
      "to": "0xacd862ef134d772b0ca53a97f53ccdd00abc05cf",
      "contractAddress": null
    },
    {
      "status": "0x1",
      "cumulativeGasUsed": "0xbb16",
      "logs": [
        {
          "address": "0xacd862ef134d772b0ca53a97f53ccdd00abc05cf",
          "topics": [
            "0x4486afa44fa66ef5076dc5e5fcc45a55a70d0079655ac5aead0037a533c5d992",
            "0x0000000000000000000000008b15204d88a9bb155be6798522983a3b5f7d7cb0"
          ],
          "data": "0x0000000000000000000000000000000000000000000000000000000000007530",
          "blockHash": "0xdd1c53079ff95e14f92bcaf680dd836b5d14d84791dade3d11e0306ec4495812",
          "blockNumber": "0x318fbf6",
          "blockTimestamp": "0x69eefbd8",
          "transactionHash": "0x6cd131562d3ec7fb85661391291776e56929f4fe44aca4ed51bd2db82f3675b5",
          "transactionIndex": "0x0",
          "logIndex": "0x0",
          "removed": false
        }
      ],
      "logsBloom": "0x00000000000000000000000000000000000000000400000000000000000000000000001000000000000000000000000000000000000000000000000000000000000000000000000000000000000000000000000000000000000000000000000000000000000000000000000000000000000000000000000000000000000000000040000800000000000000000000000000000000000000000000000000000000000000000000000200000000000000400000000000000000000000000000080000000000000000000002000000000000000000000000000000000000000000000000000000000000000000000000000000000000000040000000000000000000",
      "type": "0x2",
      "transactionHash": "0x6cd131562d3ec7fb85661391291776e56929f4fe44aca4ed51bd2db82f3675b5",
      "transactionIndex": "0x0",
      "blockHash": "0xdd1c53079ff95e14f92bcaf680dd836b5d14d84791dade3d11e0306ec4495812",
      "blockNumber": "0x318fbf6",
      "gasUsed": "0xbb16",
      "effectiveGasPrice": "0x5f5e101",
      "from": "0x3f07367008158dc272dd8a38812e1460ef5a390a",
      "to": "0xacd862ef134d772b0ca53a97f53ccdd00abc05cf",
      "contractAddress": null
    },
    {
      "status": "0x1",
      "cumulativeGasUsed": "0xbb16",
      "logs": [
        {
          "address": "0xacd862ef134d772b0ca53a97f53ccdd00abc05cf",
          "topics": [
            "0x4486afa44fa66ef5076dc5e5fcc45a55a70d0079655ac5aead0037a533c5d992",
            "0x000000000000000000000000b62ba9d0a14ac9f9601891179b3da52be71ce052"
          ],
          "data": "0x0000000000000000000000000000000000000000000000000000000000007530",
          "blockHash": "0x8c1c3a8d415e1cb95d5a441e78e5cf0736689f976376da5e70757bc5b718ba19",
          "blockNumber": "0x318fc33",
          "blockTimestamp": "0x69eefc14",
          "transactionHash": "0xc72f8fc745d1eb4febbc2849d5892b54752413052777c5367fec5626cfa1471b",
          "transactionIndex": "0x0",
          "logIndex": "0x0",
          "removed": false
        }
      ],
      "logsBloom": "0x00000000000000000000000000000000000000000400000000000000000000000000001000000000000000000000000000000000000000000000000000000000000000000000000000000000000000000000000000000000000000000000000100000000000000000000000000000000000000000000000000000000000000000000000800000000000000000000000000000000000000000000000800000000000000000000000200000000000000400000000004000000000000000000000000000000000000000002000000000000000000000000000000000000000000000000000000000000000000000000000000000000000000000000000000000000",
      "type": "0x2",
      "transactionHash": "0xc72f8fc745d1eb4febbc2849d5892b54752413052777c5367fec5626cfa1471b",
      "transactionIndex": "0x0",
      "blockHash": "0x8c1c3a8d415e1cb95d5a441e78e5cf0736689f976376da5e70757bc5b718ba19",
      "blockNumber": "0x318fc33",
      "gasUsed": "0xbb16",
      "effectiveGasPrice": "0x5f5e101",
      "from": "0x3f07367008158dc272dd8a38812e1460ef5a390a",
      "to": "0xacd862ef134d772b0ca53a97f53ccdd00abc05cf",
      "contractAddress": null
    },
    {
      "status": "0x1",
      "cumulativeGasUsed": "0xc7ff",
      "logs": [
        {
          "address": "0x4e2e7fd3c85c05697b24743e580b03abcd6d0c65",
          "topics": [
            "0x2f8788117e7eff1d82e926ec794901d17c78024a50270940304540a733656f0d",
            "0x7935bd0ae54bc31f548c14dba4d37c5c64b3f8ca900cb468fb8abd54d5894f55",
            "0x00000000000000000000000021ba1f7c028b1adc78e75ac187b08b1bdd567118",
            "0x0000000000000000000000003f07367008158dc272dd8a38812e1460ef5a390a"
          ],
          "data": "0x",
          "blockHash": "0x003d72d555aae69f641f58ee6a5b7979ef99033e9c8619da9f68ac7dc69b4119",
          "blockNumber": "0x318fc70",
          "blockTimestamp": "0x69eefc50",
          "transactionHash": "0x4467a276a0033082a6e527de9d377a9de23bbd3fa569227b4e3e3611eea8f58c",
          "transactionIndex": "0x0",
          "logIndex": "0x0",
          "removed": false
        }
      ],
      "logsBloom": "0x00000004000000000000000000000000000000000000000000000008000000000000000000000000000000000000000000000000000000000000000000000000000000000000000000000000000000020000000000000000000000000000020000000000000000000000000000000000000000000000000000100000000000000000000000000000000000000000010000000080000000000000000000000000000000000000000000010000000000000000001000000000001000000000080000000000000000000000008000000000000000000000000100000000000000000000800000000000000000000000000400000000000000000000000000000000",
      "type": "0x2",
      "transactionHash": "0x4467a276a0033082a6e527de9d377a9de23bbd3fa569227b4e3e3611eea8f58c",
      "transactionIndex": "0x0",
      "blockHash": "0x003d72d555aae69f641f58ee6a5b7979ef99033e9c8619da9f68ac7dc69b4119",
      "blockNumber": "0x318fc70",
      "gasUsed": "0xc7ff",
      "effectiveGasPrice": "0x5f5e101",
      "from": "0x3f07367008158dc272dd8a38812e1460ef5a390a",
      "to": "0x4e2e7fd3c85c05697b24743e580b03abcd6d0c65",
      "contractAddress": null
    },
    {
      "status": "0x1",
      "cumulativeGasUsed": "0xc7e9",
      "logs": [
        {
          "address": "0x15f6c4bf4000747e0fdd85b33998a36f5bdf5007",
          "topics": [
            "0x2f8788117e7eff1d82e926ec794901d17c78024a50270940304540a733656f0d",
            "0x7935bd0ae54bc31f548c14dba4d37c5c64b3f8ca900cb468fb8abd54d5894f55",
            "0x00000000000000000000000021ba1f7c028b1adc78e75ac187b08b1bdd567118",
            "0x0000000000000000000000003f07367008158dc272dd8a38812e1460ef5a390a"
          ],
          "data": "0x",
          "blockHash": "0x8975e79a765fbc9206c760bffdc0ba3d64848f26b89d29aee996aa5a6822c7ba",
          "blockNumber": "0x318fcad",
          "blockTimestamp": "0x69eefc8c",
          "transactionHash": "0x212aedc1152df938dbfd8e5e7624e9f14d76203dad2a57e9824e604e753f3875",
          "transactionIndex": "0x0",
          "logIndex": "0x0",
          "removed": false
        }
      ],
      "logsBloom": "0x00000004000000000000000000000000002000000000000000000008000000000000000000000004000000000000000000000000000000000000000000000000000000000000000000000000000000020000000000000000000000000000020000000000000000000000000000000000000000000000000000000000000000000000000000000000000000000000010000000080000000000000000000000000000000000000000000010000000000000000000000000000001000000000000000000000000000000000008000000000000000000000000100000000000000000000800000000000000000000000000400000000000000000000000000000000",
      "type": "0x2",
      "transactionHash": "0x212aedc1152df938dbfd8e5e7624e9f14d76203dad2a57e9824e604e753f3875",
      "transactionIndex": "0x0",
      "blockHash": "0x8975e79a765fbc9206c760bffdc0ba3d64848f26b89d29aee996aa5a6822c7ba",
      "blockNumber": "0x318fcad",
      "gasUsed": "0xc7e9",
      "effectiveGasPrice": "0x5f5e101",
      "from": "0x3f07367008158dc272dd8a38812e1460ef5a390a",
      "to": "0x15f6c4bf4000747e0fdd85b33998a36f5bdf5007",
      "contractAddress": null
    },
    {
      "status": "0x1",
      "cumulativeGasUsed": "0x1579a",
      "logs": [
        {
          "address": "0x8fb48f84aa69e89e0360e6d2d26c447aa57dcf73",
          "topics": [
            "0x2f8788117e7eff1d82e926ec794901d17c78024a50270940304540a733656f0d",
            "0x7935bd0ae54bc31f548c14dba4d37c5c64b3f8ca900cb468fb8abd54d5894f55",
            "0x00000000000000000000000021ba1f7c028b1adc78e75ac187b08b1bdd567118",
            "0x0000000000000000000000003f07367008158dc272dd8a38812e1460ef5a390a"
          ],
          "data": "0x",
          "blockHash": "0x12271479edc026c17eb9f1fb23c14e9df3d7f3d2d3b7b79956bc8a2a0178575c",
          "blockNumber": "0x318fcea",
          "blockTimestamp": "0x69eefcc8",
          "transactionHash": "0xd66b5635e7d1b1cb0ef25aead259a1ba453ff7f2e3ed11d152e67350abb37867",
          "transactionIndex": "0x1",
          "logIndex": "0x1",
          "removed": false
        }
      ],
      "logsBloom": "0x00000004000000000000000000000000000000000000000000000008000000000000000000000000000000000000000000000000000000000000000000000000000000000000000000000000000000020000000000000000000000000000020000000000000000000000000000000000000000000000000000000000000000000000000000000000000000000000010000000080000000000000000000000000000000000000000000010000000000000000000000000000001400000000000000000000000000000000008000000000000000000000000100000000024000000000800000000000000000000000000400000000000000000000000000000000",
      "type": "0x2",
      "transactionHash": "0xd66b5635e7d1b1cb0ef25aead259a1ba453ff7f2e3ed11d152e67350abb37867",
      "transactionIndex": "0x1",
      "blockHash": "0x12271479edc026c17eb9f1fb23c14e9df3d7f3d2d3b7b79956bc8a2a0178575c",
      "blockNumber": "0x318fcea",
      "gasUsed": "0xc815",
      "effectiveGasPrice": "0x5f5e101",
      "from": "0x3f07367008158dc272dd8a38812e1460ef5a390a",
      "to": "0x8fb48f84aa69e89e0360e6d2d26c447aa57dcf73",
      "contractAddress": null
    },
    {
      "status": "0x1",
      "cumulativeGasUsed": "0xc815",
      "logs": [
        {
          "address": "0x403e8c79653b1cb7a5c0eaa313ec0c7d0cac7e2c",
          "topics": [
            "0x2f8788117e7eff1d82e926ec794901d17c78024a50270940304540a733656f0d",
            "0x7935bd0ae54bc31f548c14dba4d37c5c64b3f8ca900cb468fb8abd54d5894f55",
            "0x00000000000000000000000021ba1f7c028b1adc78e75ac187b08b1bdd567118",
            "0x0000000000000000000000003f07367008158dc272dd8a38812e1460ef5a390a"
          ],
          "data": "0x",
          "blockHash": "0xa03920cd5bf882bb7aa45aa039f3aaf9a82c111e2fc8b5841b4cb5047bd35d14",
          "blockNumber": "0x318fd27",
          "blockTimestamp": "0x69eefd04",
          "transactionHash": "0x152611d0b87361d8f04e830306b3b56592e7a649234012a4ed7c729cae42db0d",
          "transactionIndex": "0x0",
          "logIndex": "0x0",
          "removed": false
        }
      ],
      "logsBloom": "0x00000004000000000000000200000000000000000000000000000008000000000000000000000000000000000000000000000000000000000000000000000000000000000000000000000000000000020000000000000000000000000000020000000000000000000000000000000000000000000000000000000000000000000000000000000040000000000000010000000080000000000000100000000000000000000000000000010000000000000000000000000000001000000000000000000000000000000000008000000000000000000000000100000000000000000000800000000000000000000000000400000000000000000000000000000000",
      "type": "0x2",
      "transactionHash": "0x152611d0b87361d8f04e830306b3b56592e7a649234012a4ed7c729cae42db0d",
      "transactionIndex": "0x0",
      "blockHash": "0xa03920cd5bf882bb7aa45aa039f3aaf9a82c111e2fc8b5841b4cb5047bd35d14",
      "blockNumber": "0x318fd27",
      "gasUsed": "0xc815",
      "effectiveGasPrice": "0x5f5e101",
      "from": "0x3f07367008158dc272dd8a38812e1460ef5a390a",
      "to": "0x403e8c79653b1cb7a5c0eaa313ec0c7d0cac7e2c",
      "contractAddress": null
    },
    {
      "status": "0x1",
      "cumulativeGasUsed": "0x3b535",
      "logs": [
        {
          "address": "0xc69f8a8014b4d17ee2e7457109ff1db33c0c7d7f",
          "topics": [
            "0x2f8788117e7eff1d82e926ec794901d17c78024a50270940304540a733656f0d",
            "0x7935bd0ae54bc31f548c14dba4d37c5c64b3f8ca900cb468fb8abd54d5894f55",
            "0x00000000000000000000000021ba1f7c028b1adc78e75ac187b08b1bdd567118",
            "0x0000000000000000000000003f07367008158dc272dd8a38812e1460ef5a390a"
          ],
          "data": "0x",
          "blockHash": "0x1022bd783f0cb67dd5f89ba997c8beac8db05979dcc490c427861199d4e7ee34",
          "blockNumber": "0x318fd64",
          "blockTimestamp": "0x69eefd40",
          "transactionHash": "0x89527b2adf8d9068660e269cb6aeff7e1e968008abd876e2d8d1223e9afcff17",
          "transactionIndex": "0x3",
          "logIndex": "0x3",
          "removed": false
        }
      ],
      "logsBloom": "0x00000004000000000000000000000000000000000000000000000008000000000000000000080000000000000000000000800000000000000000000000000000000000000000000000000000000000020000000000000000000000000000020000000000000000000000000000000000000000000000000000000000000000000000000000000000000000000000010000000080000000000000000000000000000000000000100000010000000000000000000000000000001000000000000000000000000000000000008000000000000000000000000100000000000000000000800000000000000000000000000400000000000000000000000000000000",
      "type": "0x2",
      "transactionHash": "0x89527b2adf8d9068660e269cb6aeff7e1e968008abd876e2d8d1223e9afcff17",
      "transactionIndex": "0x3",
      "blockHash": "0x1022bd783f0cb67dd5f89ba997c8beac8db05979dcc490c427861199d4e7ee34",
      "blockNumber": "0x318fd64",
      "gasUsed": "0xc815",
      "effectiveGasPrice": "0x5f5e101",
      "from": "0x3f07367008158dc272dd8a38812e1460ef5a390a",
      "to": "0xc69f8a8014b4d17ee2e7457109ff1db33c0c7d7f",
      "contractAddress": null
    }
  ],
  "libraries": [],
  "pending": [
    "0x54ce353b64bb907813816ba3f0bb81ba9acddb95411597cee8ec860a488b913b"
  ],
  "returns": {},
  "timestamp": 1777270082525,
  "chain": 998,
  "commit": "f675270"
}